{
  "_format": "hh-sol-artifact-1",
  "contractName": "MealVoucher",
  "sourceName": "contracts/MealVoucher.sol",
  "abi": [
    {
      "inputs": [
        {
          "internalType": "address",
          "name": "_usdcToken",
          "type": "address"
        },
        {
          "internalType": "uint256",
          "name": "voucherPrice",
          "type": "uint256"
        },
        {
          "internalType": "uint256",
          "name": "fees",
          "type": "uint256"
        }
      ],
      "stateMutability": "nonpayable",
      "type": "constructor"
    },
    {
      "anonymous": false,
      "inputs": [
        {
          "indexed": true,
          "internalType": "address",
          "name": "depositor",
          "type": "address"
        },
        {
          "indexed": false,
          "internalType": "uint256",
          "name": "amount",
          "type": "uint256"
        }
      ],
      "name": "Received",
      "type": "event"
    },
    {
      "anonymous": false,
      "inputs": [
        {
          "components": [
            {
              "internalType": "address",
              "name": "from",
              "type": "address"
            },
            {
              "internalType": "address",
              "name": "to",
              "type": "address"
            },
            {
              "internalType": "uint256",
              "name": "value",
              "type": "uint256"
            },
            {
              "internalType": "string",
              "name": "transferType",
              "type": "string"
            }
          ],
          "indexed": false,
          "internalType": "struct MealVoucher.Transaction[]",
          "name": "",
          "type": "tuple[]"
        }
      ],
      "name": "Transfer",
      "type": "event"
    },
    {
      "anonymous": false,
      "inputs": [
        {
          "components": [
            {
              "internalType": "uint256",
              "name": "value",
              "type": "uint256"
            },
            {
              "internalType": "string",
              "name": "voucherStatus",
              "type": "string"
            },
            {
              "internalType": "uint256",
              "name": "id",
              "type": "uint256"
            },
            {
              "internalType": "string",
              "name": "actionStatus",
              "type": "string"
            },
            {
              "internalType": "address",
              "name": "userAddress",
              "type": "address"
            },
            {
              "internalType": "address",
              "name": "contractAddress",
              "type": "address"
            }
          ],
          "indexed": false,
          "internalType": "struct MealVoucher.Voucher[]",
          "name": "",
          "type": "tuple[]"
        }
      ],
      "name": "VoucherGenerated",
      "type": "event"
    },
    {
      "anonymous": false,
      "inputs": [
        {
          "components": [
            {
              "internalType": "uint256",
              "name": "value",
              "type": "uint256"
            },
            {
              "internalType": "string",
              "name": "voucherStatus",
              "type": "string"
            },
            {
              "internalType": "uint256",
              "name": "id",
              "type": "uint256"
            },
            {
              "internalType": "string",
              "name": "actionStatus",
              "type": "string"
            },
            {
              "internalType": "address",
              "name": "userAddress",
              "type": "address"
            },
            {
              "internalType": "address",
              "name": "contractAddress",
              "type": "address"
            }
          ],
          "indexed": false,
          "internalType": "struct MealVoucher.Voucher[]",
          "name": "",
          "type": "tuple[]"
        }
      ],
      "name": "VoucherUsed",
      "type": "event"
    },
    {
      "inputs": [],
      "name": "depositAvax",
      "outputs": [],
      "stateMutability": "payable",
      "type": "function"
    },
    {
      "inputs": [
        {
          "internalType": "uint256",
          "name": "amount",
          "type": "uint256"
        }
      ],
      "name": "depositUSDC",
      "outputs": [],
      "stateMutability": "payable",
      "type": "function"
    },
    {
      "inputs": [
        {
          "components": [
            {
              "internalType": "address",
              "name": "userAddress",
              "type": "address"
            },
            {
              "internalType": "uint256[]",
              "name": "voucherIds",
              "type": "uint256[]"
            }
          ],
          "internalType": "struct MealVoucher.VoucherIds[]",
          "name": "listOfIds",
          "type": "tuple[]"
        },
        {
          "internalType": "uint256",
          "name": "numberOfVouchers",
          "type": "uint256"
        }
      ],
      "name": "generateVoucher",
      "outputs": [],
      "stateMutability": "nonpayable",
      "type": "function"
    },
    {
      "inputs": [],
      "name": "getLifeTimeDonation",
      "outputs": [
        {
          "internalType": "uint256",
          "name": "",
          "type": "uint256"
        }
      ],
      "stateMutability": "view",
      "type": "function"
    },
    {
      "inputs": [],
      "name": "getUsdcBalance",
      "outputs": [
        {
          "internalType": "uint256",
          "name": "",
          "type": "uint256"
        }
      ],
      "stateMutability": "view",
      "type": "function"
    },
    {
      "inputs": [
        {
          "internalType": "address",
          "name": "userAddress",
          "type": "address"
        }
      ],
      "name": "getUserVouchers",
      "outputs": [
        {
          "internalType": "uint256[]",
          "name": "",
          "type": "uint256[]"
        }
      ],
      "stateMutability": "view",
      "type": "function"
    },
    {
      "inputs": [],
      "name": "managementFees",
      "outputs": [
        {
          "internalType": "uint256",
          "name": "",
          "type": "uint256"
        }
      ],
      "stateMutability": "view",
      "type": "function"
    },
    {
      "inputs": [
        {
          "internalType": "address",
          "name": "",
          "type": "address"
        },
        {
          "internalType": "uint256",
          "name": "",
          "type": "uint256"
        }
      ],
      "name": "mealVoucher",
      "outputs": [
        {
          "internalType": "uint256",
          "name": "value",
          "type": "uint256"
        },
        {
          "internalType": "enum MealVoucher.VoucherStatus",
          "name": "status",
          "type": "uint8"
        }
      ],
      "stateMutability": "view",
      "type": "function"
    },
    {
      "inputs": [],
      "name": "mealVoucherPrice",
      "outputs": [
        {
          "internalType": "uint256",
          "name": "",
          "type": "uint256"
        }
      ],
      "stateMutability": "view",
      "type": "function"
    },
    {
      "inputs": [],
      "name": "owner",
      "outputs": [
        {
          "internalType": "address",
          "name": "",
          "type": "address"
        }
      ],
      "stateMutability": "view",
      "type": "function"
    },
    {
      "inputs": [
        {
          "components": [
            {
              "internalType": "address",
              "name": "userAddress",
              "type": "address"
            },
            {
              "internalType": "uint256",
              "name": "voucherId",
              "type": "uint256"
            },
            {
              "internalType": "address",
              "name": "merchantAddress",
              "type": "address"
            }
          ],
          "internalType": "struct MealVoucher.VoucherPayable[]",
          "name": "vouchers",
          "type": "tuple[]"
        },
        {
          "internalType": "uint256",
          "name": "numberOfVouchers",
          "type": "uint256"
        }
      ],
      "name": "redeemVoucher",
      "outputs": [],
      "stateMutability": "nonpayable",
      "type": "function"
    },
    {
      "inputs": [
        {
          "internalType": "address",
          "name": "_address",
          "type": "address"
        },
        {
          "internalType": "uint256",
          "name": "voucherId",
          "type": "uint256"
        }
      ],
      "name": "retrieveVoucherDetail",
      "outputs": [
        {
          "components": [
            {
              "internalType": "uint256",
              "name": "value",
              "type": "uint256"
            },
            {
              "internalType": "string",
              "name": "voucherStatus",
              "type": "string"
            },
            {
              "internalType": "uint256",
              "name": "id",
              "type": "uint256"
            },
            {
              "internalType": "string",
              "name": "actionStatus",
              "type": "string"
            },
            {
              "internalType": "address",
              "name": "userAddress",
              "type": "address"
            },
            {
              "internalType": "address",
              "name": "contractAddress",
              "type": "address"
            }
          ],
          "internalType": "struct MealVoucher.Voucher",
          "name": "",
          "type": "tuple"
        }
      ],
      "stateMutability": "view",
      "type": "function"
    },
    {
      "inputs": [
        {
          "internalType": "uint256",
          "name": "voucherPrice",
          "type": "uint256"
        }
      ],
      "name": "setVoucherPrice",
      "outputs": [
        {
          "internalType": "bool",
          "name": "",
          "type": "bool"
        }
      ],
      "stateMutability": "nonpayable",
      "type": "function"
    },
    {
      "inputs": [],
      "name": "totalAmountRedeemed",
      "outputs": [
        {
          "internalType": "uint256",
          "name": "",
          "type": "uint256"
        }
      ],
      "stateMutability": "view",
      "type": "function"
    },
    {
      "inputs": [],
      "name": "totalVoucherIssued",
      "outputs": [
        {
          "internalType": "uint256",
          "name": "",
          "type": "uint256"
        }
      ],
      "stateMutability": "view",
      "type": "function"
    },
    {
      "inputs": [],
      "name": "totalVoucherUsed",
      "outputs": [
        {
          "internalType": "uint256",
          "name": "",
          "type": "uint256"
        }
      ],
      "stateMutability": "view",
      "type": "function"
    },
    {
      "inputs": [],
      "name": "unusedVoucherAmount",
      "outputs": [
        {
          "internalType": "uint256",
          "name": "",
          "type": "uint256"
        }
      ],
      "stateMutability": "view",
      "type": "function"
    },
    {
      "inputs": [
        {
          "internalType": "uint256",
          "name": "fees",
          "type": "uint256"
        }
      ],
      "name": "updateManagementFees",
      "outputs": [
        {
          "internalType": "bool",
          "name": "",
          "type": "bool"
        }
      ],
      "stateMutability": "nonpayable",
      "type": "function"
    },
    {
      "inputs": [
        {
          "internalType": "address",
          "name": "_usdcToken",
          "type": "address"
        }
      ],
      "name": "updateUsdcAddress",
      "outputs": [
        {
          "internalType": "bool",
          "name": "",
          "type": "bool"
        }
      ],
      "stateMutability": "nonpayable",
      "type": "function"
    },
    {
      "inputs": [],
      "name": "usdcToken",
      "outputs": [
        {
          "internalType": "contract IERC20",
          "name": "",
          "type": "address"
        }
      ],
      "stateMutability": "view",
      "type": "function"
    },
    {
      "inputs": [],
      "name": "withdraw",
      "outputs": [],
      "stateMutability": "nonpayable",
      "type": "function"
    }
  ],
  "bytecode": "0x60806040523480156200001157600080fd5b506040516200394438038062003944833981810160405281019062000037919062000194565b33600160006101000a81548173ffffffffffffffffffffffffffffffffffffffff021916908373ffffffffffffffffffffffffffffffffffffffff160217905550826000806101000a81548173ffffffffffffffffffffffffffffffffffffffff021916908373ffffffffffffffffffffffffffffffffffffffff16021790555060006003819055506000600481905550600060068190555060006005819055508160078190555080600881905550505050620001f0565b600080fd5b600073ffffffffffffffffffffffffffffffffffffffff82169050919050565b60006200012182620000f4565b9050919050565b620001338162000114565b81146200013f57600080fd5b50565b600081519050620001538162000128565b92915050565b6000819050919050565b6200016e8162000159565b81146200017a57600080fd5b50565b6000815190506200018e8162000163565b92915050565b600080600060608486031215620001b057620001af620000ef565b5b6000620001c08682870162000142565b9350506020620001d3868287016200017d565b9250506040620001e6868287016200017d565b9150509250925092565b61374480620002006000396000f3fe60806040526004361061012a5760003560e01c80638da5cb5b116100ab578063c31ee12e1161006f578063c31ee12e146103da578063d286c4a714610405578063db5aef2114610442578063f688bcfb1461046b578063fb6fd42414610487578063ff2a46e0146104b05761012a565b80638da5cb5b146102cc57806390229fee146102f7578063934dd29314610322578063abb1c05a1461035f578063b0015a551461039c5761012a565b80633ccfd60b116100f25780633ccfd60b146101f75780634e81e2b11461020e5780635799884a146102395780635cdfd08c146102765780636e97aa86146102a15761012a565b806311eac8551461012f57806323b826ca1461015a5780632405686714610185578063283512b41461018f5780632d211e95146101ba575b600080fd5b34801561013b57600080fd5b506101446104db565b6040516101519190612826565b60405180910390f35b34801561016657600080fd5b5061016f6104ff565b60405161017c919061285a565b60405180910390f35b61018d610505565b005b34801561019b57600080fd5b506101a4610555565b6040516101b1919061285a565b60405180910390f35b3480156101c657600080fd5b506101e160048036038101906101dc91906128c7565b61060a565b6040516101ee91906129b2565b60405180910390f35b34801561020357600080fd5b5061020c6106a1565b005b34801561021a57600080fd5b5061022361089a565b604051610230919061285a565b60405180910390f35b34801561024557600080fd5b50610260600480360381019061025b9190612a00565b6108a0565b60405161026d9190612a48565b60405180910390f35b34801561028257600080fd5b5061028b6109f2565b604051610298919061285a565b60405180910390f35b3480156102ad57600080fd5b506102b66109f8565b6040516102c3919061285a565b60405180910390f35b3480156102d857600080fd5b506102e16109fe565b6040516102ee9190612a72565b60405180910390f35b34801561030357600080fd5b5061030c610a24565b604051610319919061285a565b60405180910390f35b34801561032e57600080fd5b50610349600480360381019061034491906128c7565b610a2a565b6040516103569190612a48565b60405180910390f35b34801561036b57600080fd5b5061038660048036038101906103819190612a8d565b610b12565b6040516103939190612bfc565b60405180910390f35b3480156103a857600080fd5b506103c360048036038101906103be9190612a8d565b610bfc565b6040516103d1929190612c95565b60405180910390f35b3480156103e657600080fd5b506103ef610c3a565b6040516103fc919061285a565b60405180910390f35b34801561041157600080fd5b5061042c60048036038101906104279190612a00565b610cdc565b6040516104399190612a48565b60405180910390f35b34801561044e57600080fd5b5061046960048036038101906104649190612f5d565b610ddb565b005b61048560048036038101906104809190612a00565b611535565b005b34801561049357600080fd5b506104ae60048036038101906104a991906130e0565b6116c2565b005b3480156104bc57600080fd5b506104c5611edb565b6040516104d2919061285a565b60405180910390f35b60008054906101000a900473ffffffffffffffffffffffffffffffffffffffff1681565b60035481565b3373ffffffffffffffffffffffffffffffffffffffff167f88a5966d370b9919b20f3e2c13ff65706f196a4e32cc2c12bf57088f885258743460405161054b919061285a565b60405180910390a2565b600061060560008054906101000a900473ffffffffffffffffffffffffffffffffffffffff1673ffffffffffffffffffffffffffffffffffffffff166370a08231306040518263ffffffff1660e01b81526004016105b39190612a72565b602060405180830381865afa1580156105d0573d6000803e3d6000fd5b505050506040513d601f19601f820116820180604052508101906105f49190613151565b600554611ee190919063ffffffff16565b905090565b6060600960008373ffffffffffffffffffffffffffffffffffffffff1673ffffffffffffffffffffffffffffffffffffffff16815260200190815260200160002080548060200260200160405190810160405280929190818152602001828054801561069557602002820191906000526020600020905b815481526020019060010190808311610681575b50505050509050919050565b600160009054906101000a900473ffffffffffffffffffffffffffffffffffffffff1673ffffffffffffffffffffffffffffffffffffffff163373ffffffffffffffffffffffffffffffffffffffff16146106fc6007611ef7565b9061073d576040517f08c379a000000000000000000000000000000000000000000000000000000000815260040161073491906131c8565b60405180910390fd5b5060008054906101000a900473ffffffffffffffffffffffffffffffffffffffff1673ffffffffffffffffffffffffffffffffffffffff1663a9059cbb600160009054906101000a900473ffffffffffffffffffffffffffffffffffffffff1660008054906101000a900473ffffffffffffffffffffffffffffffffffffffff1673ffffffffffffffffffffffffffffffffffffffff166370a08231306040518263ffffffff1660e01b81526004016107f69190612a72565b602060405180830381865afa158015610813573d6000803e3d6000fd5b505050506040513d601f19601f820116820180604052508101906108379190613151565b6040518363ffffffff1660e01b81526004016108549291906131ea565b6020604051808303816000875af1158015610873573d6000803e3d6000fd5b505050506040513d601f19601f82011682018060405250810190610897919061323f565b50565b60045481565b6000600160009054906101000a900473ffffffffffffffffffffffffffffffffffffffff1673ffffffffffffffffffffffffffffffffffffffff163373ffffffffffffffffffffffffffffffffffffffff16146108fd6007611ef7565b9061093e576040517f08c379a000000000000000000000000000000000000000000000000000000000815260040161093591906131c8565b60405180910390fd5b50600082101561094e6008611ef7565b9061098f576040517f08c379a000000000000000000000000000000000000000000000000000000000815260040161098691906131c8565b60405180910390fd5b506127108211156109a06009611ef7565b906109e1576040517f08c379a00000000000000000000000000000000000000000000000000000000081526004016109d891906131c8565b60405180910390fd5b508160088190555060019050919050565b60085481565b60065481565b600160009054906101000a900473ffffffffffffffffffffffffffffffffffffffff1681565b60075481565b6000600160009054906101000a900473ffffffffffffffffffffffffffffffffffffffff1673ffffffffffffffffffffffffffffffffffffffff163373ffffffffffffffffffffffffffffffffffffffff1614610a876007611ef7565b90610ac8576040517f08c379a0000000000000000000000000000000000000000000000000000000008152600401610abf91906131c8565b60405180910390fd5b50816000806101000a81548173ffffffffffffffffffffffffffffffffffffffff021916908373ffffffffffffffffffffffffffffffffffffffff16021790555060019050919050565b610b1a6126f1565b6000600260008573ffffffffffffffffffffffffffffffffffffffff1673ffffffffffffffffffffffffffffffffffffffff1681526020019081526020016000206000848152602001908152602001600020905060006040518060c0016040528083600001548152602001610b9f8460010160009054906101000a900460ff166124f4565b8152602001858152602001610bb4600e611ef7565b81526020018673ffffffffffffffffffffffffffffffffffffffff1681526020013073ffffffffffffffffffffffffffffffffffffffff168152509050809250505092915050565b6002602052816000526040600020602052806000526040600020600091509150508060000154908060010160009054906101000a900460ff16905082565b60008060009054906101000a900473ffffffffffffffffffffffffffffffffffffffff1673ffffffffffffffffffffffffffffffffffffffff166370a08231306040518263ffffffff1660e01b8152600401610c969190612a72565b602060405180830381865afa158015610cb3573d6000803e3d6000fd5b505050506040513d601f19601f82011682018060405250810190610cd79190613151565b905090565b6000600160009054906101000a900473ffffffffffffffffffffffffffffffffffffffff1673ffffffffffffffffffffffffffffffffffffffff163373ffffffffffffffffffffffffffffffffffffffff1614610d396007611ef7565b90610d7a576040517f08c379a0000000000000000000000000000000000000000000000000000000008152600401610d7191906131c8565b60405180910390fd5b5060008211610d89600c611ef7565b90610dca576040517f08c379a0000000000000000000000000000000000000000000000000000000008152600401610dc191906131c8565b60405180910390fd5b508160078190555060019050919050565b600160009054906101000a900473ffffffffffffffffffffffffffffffffffffffff1673ffffffffffffffffffffffffffffffffffffffff163373ffffffffffffffffffffffffffffffffffffffff1614610e366007611ef7565b90610e77576040517f08c379a0000000000000000000000000000000000000000000000000000000008152600401610e6e91906131c8565b60405180910390fd5b506000610f2860065460008054906101000a900473ffffffffffffffffffffffffffffffffffffffff1673ffffffffffffffffffffffffffffffffffffffff166370a08231306040518263ffffffff1660e01b8152600401610ed99190612a72565b602060405180830381865afa158015610ef6573d6000803e3d6000fd5b505050506040513d601f19601f82011682018060405250810190610f1a9190613151565b61260690919063ffffffff16565b90506000610f416007548461261c90919063ffffffff16565b905080821015610f51600d611ef7565b90610f92576040517f08c379a0000000000000000000000000000000000000000000000000000000008152600401610f8991906131c8565b60405180910390fd5b5060008367ffffffffffffffff811115610faf57610fae612cc3565b5b604051908082528060200260200182016040528015610fe857816020015b610fd56126f1565b815260200190600190039081610fcd5790505b50905060005b85518110156114f657600086828151811061100c5761100b61326c565b5b6020026020010151600001519050600087838151811061102f5761102e61326c565b5b602002602001015160200151905060005b81518110156114e0576000600260008573ffffffffffffffffffffffffffffffffffffffff1673ffffffffffffffffffffffffffffffffffffffff168152602001908152602001600020600084848151811061109f5761109e61326c565b5b602002602001015181526020019081526020016000206000015411806111635750600160028111156110d4576110d3612c1e565b5b600260008573ffffffffffffffffffffffffffffffffffffffff1673ffffffffffffffffffffffffffffffffffffffff16815260200190815260200160002060008484815181106111285761112761326c565b5b6020026020010151815260200190815260200160002060010160009054906101000a900460ff16600281111561116157611160612c1e565b5b145b156112915760006040518060c001604052806007548152602001611200600260008873ffffffffffffffffffffffffffffffffffffffff1673ffffffffffffffffffffffffffffffffffffffff16815260200190815260200160002060008787815181106111d4576111d361326c565b5b6020026020010151815260200190815260200160002060010160009054906101000a900460ff166124f4565b81526020018484815181106112185761121761326c565b5b6020026020010151815260200161122f6002611ef7565b81526020018573ffffffffffffffffffffffffffffffffffffffff1681526020013073ffffffffffffffffffffffffffffffffffffffff168152509050808683815181106112805761127f61326c565b5b6020026020010181905250506114cd565b600060405180604001604052806007548152602001600060028111156112ba576112b9612c1e565b5b815250905060006040518060c0016040528060075481526020016112de60006124f4565b81526020018585815181106112f6576112f561326c565b5b6020026020010151815260200161130d6001611ef7565b81526020018673ffffffffffffffffffffffffffffffffffffffff1681526020013073ffffffffffffffffffffffffffffffffffffffff16815250905081600260008773ffffffffffffffffffffffffffffffffffffffff1673ffffffffffffffffffffffffffffffffffffffff168152602001908152602001600020600086868151811061139f5761139e61326c565b5b602002602001015181526020019081526020016000206000820151816000015560208201518160010160006101000a81548160ff021916908360028111156113ea576113e9612c1e565b5b0217905550905050611409600754600654611ee190919063ffffffff16565b6006819055506114256001600354611ee190919063ffffffff16565b600381905550600960008673ffffffffffffffffffffffffffffffffffffffff1673ffffffffffffffffffffffffffffffffffffffff16815260200190815260200160002084848151811061147d5761147c61326c565b5b60200260200101519080600181540180825580915050600190039060005260206000200160009091909190915055808784815181106114bf576114be61326c565b5b602002602001018190525050505b80806114d8906132ca565b915050611040565b50505080806114ee906132ca565b915050610fee565b507f85afef6cbb83d349042ed9422b66bb7031fb0b5c024f2112c1d57975fef01c13816040516115269190613464565b60405180910390a15050505050565b60008111611543600a611ef7565b90611584576040517f08c379a000000000000000000000000000000000000000000000000000000000815260040161157b91906131c8565b60405180910390fd5b5060008054906101000a900473ffffffffffffffffffffffffffffffffffffffff1673ffffffffffffffffffffffffffffffffffffffff166323b872dd3330846040518463ffffffff1660e01b81526004016115e293929190613486565b6020604051808303816000875af1158015611601573d6000803e3d6000fd5b505050506040513d601f19601f82011682018060405250810190611625919061323f565b61162f600b611ef7565b90611670576040517f08c379a000000000000000000000000000000000000000000000000000000000815260040161166791906131c8565b60405180910390fd5b503373ffffffffffffffffffffffffffffffffffffffff167f88a5966d370b9919b20f3e2c13ff65706f196a4e32cc2c12bf57088f88525874826040516116b7919061285a565b60405180910390a250565b600160009054906101000a900473ffffffffffffffffffffffffffffffffffffffff1673ffffffffffffffffffffffffffffffffffffffff163373ffffffffffffffffffffffffffffffffffffffff161461171d6007611ef7565b9061175e576040517f08c379a000000000000000000000000000000000000000000000000000000000815260040161175591906131c8565b60405180910390fd5b5060008167ffffffffffffffff81111561177b5761177a612cc3565b5b6040519080825280602002602001820160405280156117b457816020015b6117a16126f1565b8152602001906001900390816117995790505b50905060006002836117c691906134bd565b67ffffffffffffffff8111156117df576117de612cc3565b5b60405190808252806020026020018201604052801561181857816020015b611805612753565b8152602001906001900390816117fd5790505b50905060005b8451811015611e6657600085828151811061183c5761183b61326c565b5b602002602001015190506000816000015190506000826020015190506000836040015190506000600260008573ffffffffffffffffffffffffffffffffffffffff1673ffffffffffffffffffffffffffffffffffffffff1681526020019081526020016000206000848152602001908152602001600020905060008160000154116119595760006040518060c00160405280836000015481526020016118e260026124f4565b81526020018581526020016118f76003611ef7565b81526020018673ffffffffffffffffffffffffffffffffffffffff1681526020013073ffffffffffffffffffffffffffffffffffffffff168152509050808988815181106119485761194761326c565b5b602002602001018190525050611e4e565b6001600281111561196d5761196c612c1e565b5b8160010160009054906101000a900460ff16600281111561199157611990612c1e565b5b03611a3e5760006040518060c00160405280836000015481526020016119c78460010160009054906101000a900460ff166124f4565b81526020018581526020016119dc6004611ef7565b81526020018673ffffffffffffffffffffffffffffffffffffffff1681526020013073ffffffffffffffffffffffffffffffffffffffff16815250905080898881518110611a2d57611a2c61326c565b5b602002602001018190525050611e4d565b60018160010160006101000a81548160ff02191690836002811115611a6657611a65612c1e565b5b0217905550600081600001549050611a898160065461260690919063ffffffff16565b6006819055506000611aba612710611aac6008548561261c90919063ffffffff16565b61263290919063ffffffff16565b905060008054906101000a900473ffffffffffffffffffffffffffffffffffffffff1673ffffffffffffffffffffffffffffffffffffffff1663a9059cbb858385611b0591906134ff565b6040518363ffffffff1660e01b8152600401611b229291906131ea565b6020604051808303816000875af1158015611b41573d6000803e3d6000fd5b505050506040513d601f19601f82011682018060405250810190611b65919061323f565b50600060405180608001604052803073ffffffffffffffffffffffffffffffffffffffff1681526020018673ffffffffffffffffffffffffffffffffffffffff1681526020018385611bb791906134ff565b8152602001611bc66001612648565b815250905060008054906101000a900473ffffffffffffffffffffffffffffffffffffffff1673ffffffffffffffffffffffffffffffffffffffff1663a9059cbb600160009054906101000a900473ffffffffffffffffffffffffffffffffffffffff16846040518363ffffffff1660e01b8152600401611c489291906131ea565b6020604051808303816000875af1158015611c67573d6000803e3d6000fd5b505050506040513d601f19601f82011682018060405250810190611c8b919061323f565b50600060405180608001604052803073ffffffffffffffffffffffffffffffffffffffff168152602001600160009054906101000a900473ffffffffffffffffffffffffffffffffffffffff1673ffffffffffffffffffffffffffffffffffffffff168152602001848152602001611d036000612648565b8152509050818b60028c611d1791906134bd565b81518110611d2857611d2761326c565b5b6020026020010181905250808b600160028d611d4491906134bd565b611d4e9190613533565b81518110611d5f57611d5e61326c565b5b602002602001018190525060006040518060c0016040528087600001548152602001611d9b8860010160009054906101000a900460ff166124f4565b8152602001898152602001611db06000611ef7565b81526020018a73ffffffffffffffffffffffffffffffffffffffff1681526020013073ffffffffffffffffffffffffffffffffffffffff168152509050808d8c81518110611e0157611e0061326c565b5b6020026020010181905250611e226001600454611ee190919063ffffffff16565b600481905550611e418660000154600554611ee190919063ffffffff16565b60058190555050505050505b5b50505050508080611e5e906132ca565b91505061181e565b507f04c67c21e78871948226045205c92ed4fd307cf67aa4b9a336aaff4a19b0a46782604051611e969190613464565b60405180910390a17fb49d040883395a490103d88a7af5461adbf654639678b705d119d1a9edd40c9a81604051611ecd919061368c565b60405180910390a150505050565b60055481565b60008183611eef9190613533565b905092915050565b60606000600e811115611f0d57611f0c612c1e565b5b82600e811115611f2057611f1f612c1e565b5b03611f62576040518060400160405280600e81526020017f52454445454d5f5355434345535300000000000000000000000000000000000081525090506124ef565b6001600e811115611f7657611f75612c1e565b5b82600e811115611f8957611f88612c1e565b5b03611fcb576040518060400160405280601081526020017f47454e45524154455f535543434553530000000000000000000000000000000081525090506124ef565b6002600e811115611fdf57611fde612c1e565b5b82600e811115611ff257611ff1612c1e565b5b03612034576040518060400160405280600f81526020017f564f55434845525f45584953544544000000000000000000000000000000000081525090506124ef565b6003600e81111561204857612047612c1e565b5b82600e81111561205b5761205a612c1e565b5b0361209d576040518060400160405280600f81526020017f494e56414c49445f564f5543484552000000000000000000000000000000000081525090506124ef565b6004600e8111156120b1576120b0612c1e565b5b82600e8111156120c4576120c3612c1e565b5b03612106576040518060400160405280600c81526020017f555345445f564f5543484552000000000000000000000000000000000000000081525090506124ef565b6005600e81111561211a57612119612c1e565b5b82600e81111561212d5761212c612c1e565b5b0361216f576040518060400160405280600e81526020017f5245564f4b455f5355434345535300000000000000000000000000000000000081525090506124ef565b6006600e81111561218357612182612c1e565b5b82600e81111561219657612195612c1e565b5b036121d8576040518060400160405280600d81526020017f5245564f4b455f4641494c45440000000000000000000000000000000000000081525090506124ef565b6008600e8111156121ec576121eb612c1e565b5b82600e8111156121ff576121fe612c1e565b5b03612241576040518060400160405280600f81526020017f464545535f42454c4f575f5a45524f000000000000000000000000000000000081525090506124ef565b6009600e81111561225557612254612c1e565b5b82600e81111561226857612267612c1e565b5b036122aa576040518060400160405280601281526020017f464545535f41424f56455f48554e44524544000000000000000000000000000081525090506124ef565b600a600e8111156122be576122bd612c1e565b5b82600e8111156122d1576122d0612c1e565b5b03612313576040518060400160405280601681526020017f494e56414c49445f4445504f5349545f414d4f554e540000000000000000000081525090506124ef565b600b600e81111561232757612326612c1e565b5b82600e81111561233a57612339612c1e565b5b0361237c576040518060400160405280601781526020017f494e53554646494349454e545f555345525f46554e445300000000000000000081525090506124ef565b600c600e8111156123905761238f612c1e565b5b82600e8111156123a3576123a2612c1e565b5b036123e5576040518060400160405280601581526020017f494e56414c49445f564f55434845525f5052494345000000000000000000000081525090506124ef565b600d600e8111156123f9576123f8612c1e565b5b82600e81111561240c5761240b612c1e565b5b0361244e576040518060400160405280601281526020017f494e53554646494349454e545f46554e4453000000000000000000000000000081525090506124ef565b600e8081111561246157612460612c1e565b5b82600e81111561247457612473612c1e565b5b036124b6576040518060400160405280601881526020017f44455441494c5f52455452494556414c5f53554343455353000000000000000081525090506124ef565b6040518060400160405280601681526020017f494e53554646494349454e545f50524956494c4547450000000000000000000081525090505b919050565b60606000600281111561250a57612509612c1e565b5b82600281111561251d5761251c612c1e565b5b0361255f576040518060400160405280600581526020017f56414c49440000000000000000000000000000000000000000000000000000008152509050612601565b6001600281111561257357612572612c1e565b5b82600281111561258657612585612c1e565b5b036125c8576040518060400160405280600481526020017f55534544000000000000000000000000000000000000000000000000000000008152509050612601565b6040518060400160405280600781526020017f494e56414c49440000000000000000000000000000000000000000000000000081525090505b919050565b6000818361261491906134ff565b905092915050565b6000818361262a91906134bd565b905092915050565b6000818361264091906136dd565b905092915050565b60606000600181111561265e5761265d612c1e565b5b82600181111561267157612670612c1e565b5b036126b3576040518060400160405280600481526020017f464545530000000000000000000000000000000000000000000000000000000081525090506126ec565b6040518060400160405280600881526020017f5452414e5346455200000000000000000000000000000000000000000000000081525090505b919050565b6040518060c0016040528060008152602001606081526020016000815260200160608152602001600073ffffffffffffffffffffffffffffffffffffffff168152602001600073ffffffffffffffffffffffffffffffffffffffff1681525090565b6040518060800160405280600073ffffffffffffffffffffffffffffffffffffffff168152602001600073ffffffffffffffffffffffffffffffffffffffff16815260200160008152602001606081525090565b600073ffffffffffffffffffffffffffffffffffffffff82169050919050565b6000819050919050565b60006127ec6127e76127e2846127a7565b6127c7565b6127a7565b9050919050565b60006127fe826127d1565b9050919050565b6000612810826127f3565b9050919050565b61282081612805565b82525050565b600060208201905061283b6000830184612817565b92915050565b6000819050919050565b61285481612841565b82525050565b600060208201905061286f600083018461284b565b92915050565b6000604051905090565b600080fd5b600080fd5b6000612894826127a7565b9050919050565b6128a481612889565b81146128af57600080fd5b50565b6000813590506128c18161289b565b92915050565b6000602082840312156128dd576128dc61287f565b5b60006128eb848285016128b2565b91505092915050565b600081519050919050565b600082825260208201905092915050565b6000819050602082019050919050565b61292981612841565b82525050565b600061293b8383612920565b60208301905092915050565b6000602082019050919050565b600061295f826128f4565b61296981856128ff565b935061297483612910565b8060005b838110156129a557815161298c888261292f565b975061299783612947565b925050600181019050612978565b5085935050505092915050565b600060208201905081810360008301526129cc8184612954565b905092915050565b6129dd81612841565b81146129e857600080fd5b50565b6000813590506129fa816129d4565b92915050565b600060208284031215612a1657612a1561287f565b5b6000612a24848285016129eb565b91505092915050565b60008115159050919050565b612a4281612a2d565b82525050565b6000602082019050612a5d6000830184612a39565b92915050565b612a6c81612889565b82525050565b6000602082019050612a876000830184612a63565b92915050565b60008060408385031215612aa457612aa361287f565b5b6000612ab2858286016128b2565b9250506020612ac3858286016129eb565b9150509250929050565b600081519050919050565b600082825260208201905092915050565b60005b83811015612b07578082015181840152602081019050612aec565b60008484015250505050565b6000601f19601f8301169050919050565b6000612b2f82612acd565b612b398185612ad8565b9350612b49818560208601612ae9565b612b5281612b13565b840191505092915050565b612b6681612889565b82525050565b600060c083016000830151612b846000860182612920565b5060208301518482036020860152612b9c8282612b24565b9150506040830151612bb16040860182612920565b5060608301518482036060860152612bc98282612b24565b9150506080830151612bde6080860182612b5d565b5060a0830151612bf160a0860182612b5d565b508091505092915050565b60006020820190508181036000830152612c168184612b6c565b905092915050565b7f4e487b7100000000000000000000000000000000000000000000000000000000600052602160045260246000fd5b60038110612c5e57612c5d612c1e565b5b50565b6000819050612c6f82612c4d565b919050565b6000612c7f82612c61565b9050919050565b612c8f81612c74565b82525050565b6000604082019050612caa600083018561284b565b612cb76020830184612c86565b9392505050565b600080fd5b7f4e487b7100000000000000000000000000000000000000000000000000000000600052604160045260246000fd5b612cfb82612b13565b810181811067ffffffffffffffff82111715612d1a57612d19612cc3565b5b80604052505050565b6000612d2d612875565b9050612d398282612cf2565b919050565b600067ffffffffffffffff821115612d5957612d58612cc3565b5b602082029050602081019050919050565b600080fd5b600080fd5b600080fd5b600067ffffffffffffffff821115612d9457612d93612cc3565b5b602082029050602081019050919050565b6000612db8612db384612d79565b612d23565b90508083825260208201905060208402830185811115612ddb57612dda612d6a565b5b835b81811015612e045780612df088826129eb565b845260208401935050602081019050612ddd565b5050509392505050565b600082601f830112612e2357612e22612cbe565b5b8135612e33848260208601612da5565b91505092915050565b600060408284031215612e5257612e51612d6f565b5b612e5c6040612d23565b90506000612e6c848285016128b2565b600083015250602082013567ffffffffffffffff811115612e9057612e8f612d74565b5b612e9c84828501612e0e565b60208301525092915050565b6000612ebb612eb684612d3e565b612d23565b90508083825260208201905060208402830185811115612ede57612edd612d6a565b5b835b81811015612f2557803567ffffffffffffffff811115612f0357612f02612cbe565b5b808601612f108982612e3c565b85526020850194505050602081019050612ee0565b5050509392505050565b600082601f830112612f4457612f43612cbe565b5b8135612f54848260208601612ea8565b91505092915050565b60008060408385031215612f7457612f7361287f565b5b600083013567ffffffffffffffff811115612f9257612f91612884565b5b612f9e85828601612f2f565b9250506020612faf858286016129eb565b9150509250929050565b600067ffffffffffffffff821115612fd457612fd3612cc3565b5b602082029050602081019050919050565b600060608284031215612ffb57612ffa612d6f565b5b6130056060612d23565b90506000613015848285016128b2565b6000830152506020613029848285016129eb565b602083015250604061303d848285016128b2565b60408301525092915050565b600061305c61305784612fb9565b612d23565b9050808382526020820190506060840283018581111561307f5761307e612d6a565b5b835b818110156130a857806130948882612fe5565b845260208401935050606081019050613081565b5050509392505050565b600082601f8301126130c7576130c6612cbe565b5b81356130d7848260208601613049565b91505092915050565b600080604083850312156130f7576130f661287f565b5b600083013567ffffffffffffffff81111561311557613114612884565b5b613121858286016130b2565b9250506020613132858286016129eb565b9150509250929050565b60008151905061314b816129d4565b92915050565b6000602082840312156131675761316661287f565b5b60006131758482850161313c565b91505092915050565b600082825260208201905092915050565b600061319a82612acd565b6131a4818561317e565b93506131b4818560208601612ae9565b6131bd81612b13565b840191505092915050565b600060208201905081810360008301526131e2818461318f565b905092915050565b60006040820190506131ff6000830185612a63565b61320c602083018461284b565b9392505050565b61321c81612a2d565b811461322757600080fd5b50565b60008151905061323981613213565b92915050565b6000602082840312156132555761325461287f565b5b60006132638482850161322a565b91505092915050565b7f4e487b7100000000000000000000000000000000000000000000000000000000600052603260045260246000fd5b7f4e487b7100000000000000000000000000000000000000000000000000000000600052601160045260246000fd5b60006132d582612841565b91507fffffffffffffffffffffffffffffffffffffffffffffffffffffffffffffffff82036133075761330661329b565b5b600182019050919050565b600081519050919050565b600082825260208201905092915050565b6000819050602082019050919050565b600060c0830160008301516133566000860182612920565b506020830151848203602086015261336e8282612b24565b91505060408301516133836040860182612920565b506060830151848203606086015261339b8282612b24565b91505060808301516133b06080860182612b5d565b5060a08301516133c360a0860182612b5d565b508091505092915050565b60006133da838361333e565b905092915050565b6000602082019050919050565b60006133fa82613312565b613404818561331d565b9350836020820285016134168561332e565b8060005b85811015613452578484038952815161343385826133ce565b945061343e836133e2565b925060208a0199505060018101905061341a565b50829750879550505050505092915050565b6000602082019050818103600083015261347e81846133ef565b905092915050565b600060608201905061349b6000830186612a63565b6134a86020830185612a63565b6134b5604083018461284b565b949350505050565b60006134c882612841565b91506134d383612841565b92508282026134e181612841565b915082820484148315176134f8576134f761329b565b5b5092915050565b600061350a82612841565b915061351583612841565b925082820390508181111561352d5761352c61329b565b5b92915050565b600061353e82612841565b915061354983612841565b92508282019050808211156135615761356061329b565b5b92915050565b600081519050919050565b600082825260208201905092915050565b6000819050602082019050919050565b60006080830160008301516135ab6000860182612b5d565b5060208301516135be6020860182612b5d565b5060408301516135d16040860182612920565b50606083015184820360608601526135e98282612b24565b9150508091505092915050565b60006136028383613593565b905092915050565b6000602082019050919050565b600061362282613567565b61362c8185613572565b93508360208202850161363e85613583565b8060005b8581101561367a578484038952815161365b85826135f6565b94506136668361360a565b925060208a01995050600181019050613642565b50829750879550505050505092915050565b600060208201905081810360008301526136a68184613617565b905092915050565b7f4e487b7100000000000000000000000000000000000000000000000000000000600052601260045260246000fd5b60006136e882612841565b91506136f383612841565b925082613703576137026136ae565b5b82820490509291505056fea264697066735822122094e6fd323989d9a8f739dc8dce5658af3ae64a693461c5ef02902861631f7f1564736f6c63430008120033",
  "linkReferences": {},
  "deployedLinkReferences": {}
}