{"contracts/MealVoucher.sol":{"MealVoucher":{"abi":[{"inputs":[{"internalType":"address","name":"_usdcToken","type":"address"},{"internalType":"uint256","name":"voucherPrice","type":"uint256"},{"internalType":"uint256","name":"fees","type":"uint256"}],"stateMutability":"nonpayable","type":"constructor"},{"anonymous":false,"inputs":[{"indexed":true,"internalType":"address","name":"depositor","type":"address"},{"indexed":false,"internalType":"uint256","name":"amount","type":"uint256"}],"name":"Received","type":"event"},{"anonymous":false,"inputs":[{"components":[{"internalType":"address","name":"from","type":"address"},{"internalType":"address","name":"to","type":"address"},{"internalType":"uint256","name":"value","type":"uint256"},{"internalType":"string","name":"transferType","type":"string"}],"indexed":false,"internalType":"struct MealVoucher.Transaction[]","name":"","type":"tuple[]"}],"name":"Transfer","type":"event"},{"anonymous":false,"inputs":[{"components":[{"internalType":"uint256","name":"value","type":"uint256"},{"internalType":"string","name":"voucherStatus","type":"string"},{"internalType":"uint256","name":"id","type":"uint256"},{"internalType":"string","name":"actionStatus","type":"string"},{"internalType":"address","name":"userAddress","type":"address"},{"internalType":"address","name":"contractAddress","type":"address"}],"indexed":false,"internalType":"struct MealVoucher.Voucher[]","name":"","type":"tuple[]"}],"name":"VoucherGenerated","type":"event"},{"anonymous":false,"inputs":[{"components":[{"internalType":"uint256","name":"value","type":"uint256"},{"internalType":"string","name":"voucherStatus","type":"string"},{"internalType":"uint256","name":"id","type":"uint256"},{"internalType":"string","name":"actionStatus","type":"string"},{"internalType":"address","name":"userAddress","type":"address"},{"internalType":"address","name":"contractAddress","type":"address"}],"indexed":false,"internalType":"struct MealVoucher.Voucher[]","name":"","type":"tuple[]"}],"name":"VoucherUsed","type":"event"},{"inputs":[],"name":"depositAvax","outputs":[],"stateMutability":"payable","type":"function"},{"inputs":[{"internalType":"uint256","name":"amount","type":"uint256"}],"name":"depositUSDC","outputs":[],"stateMutability":"payable","type":"function"},{"inputs":[{"components":[{"internalType":"address","name":"userAddress","type":"address"},{"internalType":"uint256[]","name":"voucherIds","type":"uint256[]"}],"internalType":"struct MealVoucher.VoucherIds[]","name":"listOfIds","type":"tuple[]"},{"internalType":"uint256","name":"numberOfVouchers","type":"uint256"}],"name":"generateVoucher","outputs":[],"stateMutability":"nonpayable","type":"function"},{"inputs":[],"name":"getLifeTimeDonation","outputs":[{"internalType":"uint256","name":"","type":"uint256"}],"stateMutability":"view","type":"function"},{"inputs":[],"name":"getUsdcBalance","outputs":[{"internalType":"uint256","name":"","type":"uint256"}],"stateMutability":"view","type":"function"},{"inputs":[{"internalType":"address","name":"userAddress","type":"address"}],"name":"getUserVouchers","outputs":[{"internalType":"uint256[]","name":"","type":"uint256[]"}],"stateMutability":"view","type":"function"},{"inputs":[],"name":"managementFees","outputs":[{"internalType":"uint256","name":"","type":"uint256"}],"stateMutability":"view","type":"function"},{"inputs":[{"internalType":"address","name":"","type":"address"},{"internalType":"uint256","name":"","type":"uint256"}],"name":"mealVoucher","outputs":[{"internalType":"uint256","name":"value","type":"uint256"},{"internalType":"enum MealVoucher.VoucherStatus","name":"status","type":"uint8"}],"stateMutability":"view","type":"function"},{"inputs":[],"name":"mealVoucherPrice","outputs":[{"internalType":"uint256","name":"","type":"uint256"}],"stateMutability":"view","type":"function"},{"inputs":[],"name":"owner","outputs":[{"internalType":"address","name":"","type":"address"}],"stateMutability":"view","type":"function"},{"inputs":[{"components":[{"internalType":"address","name":"userAddress","type":"address"},{"internalType":"uint256","name":"voucherId","type":"uint256"},{"internalType":"address","name":"merchantAddress","type":"address"}],"internalType":"struct MealVoucher.VoucherPayable[]","name":"vouchers","type":"tuple[]"},{"internalType":"uint256","name":"numberOfVouchers","type":"uint256"}],"name":"redeemVoucher","outputs":[],"stateMutability":"nonpayable","type":"function"},{"inputs":[{"internalType":"address","name":"_address","type":"address"},{"internalType":"uint256","name":"voucherId","type":"uint256"}],"name":"retrieveVoucherDetail","outputs":[{"components":[{"internalType":"uint256","name":"value","type":"uint256"},{"internalType":"string","name":"voucherStatus","type":"string"},{"internalType":"uint256","name":"id","type":"uint256"},{"internalType":"string","name":"actionStatus","type":"string"},{"internalType":"address","name":"userAddress","type":"address"},{"internalType":"address","name":"contractAddress","type":"address"}],"internalType":"struct MealVoucher.Voucher","name":"","type":"tuple"}],"stateMutability":"view","type":"function"},{"inputs":[{"internalType":"uint256","name":"voucherPrice","type":"uint256"}],"name":"setVoucherPrice","outputs":[{"internalType":"bool","name":"","type":"bool"}],"stateMutability":"nonpayable","type":"function"},{"inputs":[],"name":"totalAmountRedeemed","outputs":[{"internalType":"uint256","name":"","type":"uint256"}],"stateMutability":"view","type":"function"},{"inputs":[],"name":"totalVoucherIssued","outputs":[{"internalType":"uint256","name":"","type":"uint256"}],"stateMutability":"view","type":"function"},{"inputs":[],"name":"totalVoucherUsed","outputs":[{"internalType":"uint256","name":"","type":"uint256"}],"stateMutability":"view","type":"function"},{"inputs":[],"name":"unusedVoucherAmount","outputs":[{"internalType":"uint256","name":"","type":"uint256"}],"stateMutability":"view","type":"function"},{"inputs":[{"internalType":"uint256","name":"fees","type":"uint256"}],"name":"updateManagementFees","outputs":[{"internalType":"bool","name":"","type":"bool"}],"stateMutability":"nonpayable","type":"function"},{"inputs":[{"internalType":"address","name":"_usdcToken","type":"address"}],"name":"updateUsdcAddress","outputs":[{"internalType":"bool","name":"","type":"bool"}],"stateMutability":"nonpayable","type":"function"},{"inputs":[],"name":"usdcToken","outputs":[{"internalType":"contract IERC20","name":"","type":"address"}],"stateMutability":"view","type":"function"},{"inputs":[],"name":"withdraw","outputs":[],"stateMutability":"nonpayable","type":"function"}],"evm":{"bytecode":{"linkReferences":{},"object":"60806040523480156200001157600080fd5b506040516200394438038062003944833981810160405281019062000037919062000194565b33600160006101000a81548173ffffffffffffffffffffffffffffffffffffffff021916908373ffffffffffffffffffffffffffffffffffffffff160217905550826000806101000a81548173ffffffffffffffffffffffffffffffffffffffff021916908373ffffffffffffffffffffffffffffffffffffffff16021790555060006003819055506000600481905550600060068190555060006005819055508160078190555080600881905550505050620001f0565b600080fd5b600073ffffffffffffffffffffffffffffffffffffffff82169050919050565b60006200012182620000f4565b9050919050565b620001338162000114565b81146200013f57600080fd5b50565b600081519050620001538162000128565b92915050565b6000819050919050565b6200016e8162000159565b81146200017a57600080fd5b50565b6000815190506200018e8162000163565b92915050565b600080600060608486031215620001b057620001af620000ef565b5b6000620001c08682870162000142565b9350506020620001d3868287016200017d565b9250506040620001e6868287016200017d565b9150509250925092565b61374480620002006000396000f3fe60806040526004361061012a5760003560e01c80638da5cb5b116100ab578063c31ee12e1161006f578063c31ee12e146103da578063d286c4a714610405578063db5aef2114610442578063f688bcfb1461046b578063fb6fd42414610487578063ff2a46e0146104b05761012a565b80638da5cb5b146102cc57806390229fee146102f7578063934dd29314610322578063abb1c05a1461035f578063b0015a551461039c5761012a565b80633ccfd60b116100f25780633ccfd60b146101f75780634e81e2b11461020e5780635799884a146102395780635cdfd08c146102765780636e97aa86146102a15761012a565b806311eac8551461012f57806323b826ca1461015a5780632405686714610185578063283512b41461018f5780632d211e95146101ba575b600080fd5b34801561013b57600080fd5b506101446104db565b6040516101519190612826565b60405180910390f35b34801561016657600080fd5b5061016f6104ff565b60405161017c919061285a565b60405180910390f35b61018d610505565b005b34801561019b57600080fd5b506101a4610555565b6040516101b1919061285a565b60405180910390f35b3480156101c657600080fd5b506101e160048036038101906101dc91906128c7565b61060a565b6040516101ee91906129b2565b60405180910390f35b34801561020357600080fd5b5061020c6106a1565b005b34801561021a57600080fd5b5061022361089a565b604051610230919061285a565b60405180910390f35b34801561024557600080fd5b50610260600480360381019061025b9190612a00565b6108a0565b60405161026d9190612a48565b60405180910390f35b34801561028257600080fd5b5061028b6109f2565b604051610298919061285a565b60405180910390f35b3480156102ad57600080fd5b506102b66109f8565b6040516102c3919061285a565b60405180910390f35b3480156102d857600080fd5b506102e16109fe565b6040516102ee9190612a72565b60405180910390f35b34801561030357600080fd5b5061030c610a24565b604051610319919061285a565b60405180910390f35b34801561032e57600080fd5b50610349600480360381019061034491906128c7565b610a2a565b6040516103569190612a48565b60405180910390f35b34801561036b57600080fd5b5061038660048036038101906103819190612a8d565b610b12565b6040516103939190612bfc565b60405180910390f35b3480156103a857600080fd5b506103c360048036038101906103be9190612a8d565b610bfc565b6040516103d1929190612c95565b60405180910390f35b3480156103e657600080fd5b506103ef610c3a565b6040516103fc919061285a565b60405180910390f35b34801561041157600080fd5b5061042c60048036038101906104279190612a00565b610cdc565b6040516104399190612a48565b60405180910390f35b34801561044e57600080fd5b5061046960048036038101906104649190612f5d565b610ddb565b005b61048560048036038101906104809190612a00565b611535565b005b34801561049357600080fd5b506104ae60048036038101906104a991906130e0565b6116c2565b005b3480156104bc57600080fd5b506104c5611edb565b6040516104d2919061285a565b60405180910390f35b60008054906101000a900473ffffffffffffffffffffffffffffffffffffffff1681565b60035481565b3373ffffffffffffffffffffffffffffffffffffffff167f88a5966d370b9919b20f3e2c13ff65706f196a4e32cc2c12bf57088f885258743460405161054b919061285a565b60405180910390a2565b600061060560008054906101000a900473ffffffffffffffffffffffffffffffffffffffff1673ffffffffffffffffffffffffffffffffffffffff166370a08231306040518263ffffffff1660e01b81526004016105b39190612a72565b602060405180830381865afa1580156105d0573d6000803e3d6000fd5b505050506040513d601f19601f820116820180604052508101906105f49190613151565b600554611ee190919063ffffffff16565b905090565b6060600960008373ffffffffffffffffffffffffffffffffffffffff1673ffffffffffffffffffffffffffffffffffffffff16815260200190815260200160002080548060200260200160405190810160405280929190818152602001828054801561069557602002820191906000526020600020905b815481526020019060010190808311610681575b50505050509050919050565b600160009054906101000a900473ffffffffffffffffffffffffffffffffffffffff1673ffffffffffffffffffffffffffffffffffffffff163373ffffffffffffffffffffffffffffffffffffffff16146106fc6007611ef7565b9061073d576040517f08c379a000000000000000000000000000000000000000000000000000000000815260040161073491906131c8565b60405180910390fd5b5060008054906101000a900473ffffffffffffffffffffffffffffffffffffffff1673ffffffffffffffffffffffffffffffffffffffff1663a9059cbb600160009054906101000a900473ffffffffffffffffffffffffffffffffffffffff1660008054906101000a900473ffffffffffffffffffffffffffffffffffffffff1673ffffffffffffffffffffffffffffffffffffffff166370a08231306040518263ffffffff1660e01b81526004016107f69190612a72565b602060405180830381865afa158015610813573d6000803e3d6000fd5b505050506040513d601f19601f820116820180604052508101906108379190613151565b6040518363ffffffff1660e01b81526004016108549291906131ea565b6020604051808303816000875af1158015610873573d6000803e3d6000fd5b505050506040513d601f19601f82011682018060405250810190610897919061323f565b50565b60045481565b6000600160009054906101000a900473ffffffffffffffffffffffffffffffffffffffff1673ffffffffffffffffffffffffffffffffffffffff163373ffffffffffffffffffffffffffffffffffffffff16146108fd6007611ef7565b9061093e576040517f08c379a000000000000000000000000000000000000000000000000000000000815260040161093591906131c8565b60405180910390fd5b50600082101561094e6008611ef7565b9061098f576040517f08c379a000000000000000000000000000000000000000000000000000000000815260040161098691906131c8565b60405180910390fd5b506127108211156109a06009611ef7565b906109e1576040517f08c379a00000000000000000000000000000000000000000000000000000000081526004016109d891906131c8565b60405180910390fd5b508160088190555060019050919050565b60085481565b60065481565b600160009054906101000a900473ffffffffffffffffffffffffffffffffffffffff1681565b60075481565b6000600160009054906101000a900473ffffffffffffffffffffffffffffffffffffffff1673ffffffffffffffffffffffffffffffffffffffff163373ffffffffffffffffffffffffffffffffffffffff1614610a876007611ef7565b90610ac8576040517f08c379a0000000000000000000000000000000000000000000000000000000008152600401610abf91906131c8565b60405180910390fd5b50816000806101000a81548173ffffffffffffffffffffffffffffffffffffffff021916908373ffffffffffffffffffffffffffffffffffffffff16021790555060019050919050565b610b1a6126f1565b6000600260008573ffffffffffffffffffffffffffffffffffffffff1673ffffffffffffffffffffffffffffffffffffffff1681526020019081526020016000206000848152602001908152602001600020905060006040518060c0016040528083600001548152602001610b9f8460010160009054906101000a900460ff166124f4565b8152602001858152602001610bb4600e611ef7565b81526020018673ffffffffffffffffffffffffffffffffffffffff1681526020013073ffffffffffffffffffffffffffffffffffffffff168152509050809250505092915050565b6002602052816000526040600020602052806000526040600020600091509150508060000154908060010160009054906101000a900460ff16905082565b60008060009054906101000a900473ffffffffffffffffffffffffffffffffffffffff1673ffffffffffffffffffffffffffffffffffffffff166370a08231306040518263ffffffff1660e01b8152600401610c969190612a72565b602060405180830381865afa158015610cb3573d6000803e3d6000fd5b505050506040513d601f19601f82011682018060405250810190610cd79190613151565b905090565b6000600160009054906101000a900473ffffffffffffffffffffffffffffffffffffffff1673ffffffffffffffffffffffffffffffffffffffff163373ffffffffffffffffffffffffffffffffffffffff1614610d396007611ef7565b90610d7a576040517f08c379a0000000000000000000000000000000000000000000000000000000008152600401610d7191906131c8565b60405180910390fd5b5060008211610d89600c611ef7565b90610dca576040517f08c379a0000000000000000000000000000000000000000000000000000000008152600401610dc191906131c8565b60405180910390fd5b508160078190555060019050919050565b600160009054906101000a900473ffffffffffffffffffffffffffffffffffffffff1673ffffffffffffffffffffffffffffffffffffffff163373ffffffffffffffffffffffffffffffffffffffff1614610e366007611ef7565b90610e77576040517f08c379a0000000000000000000000000000000000000000000000000000000008152600401610e6e91906131c8565b60405180910390fd5b506000610f2860065460008054906101000a900473ffffffffffffffffffffffffffffffffffffffff1673ffffffffffffffffffffffffffffffffffffffff166370a08231306040518263ffffffff1660e01b8152600401610ed99190612a72565b602060405180830381865afa158015610ef6573d6000803e3d6000fd5b505050506040513d601f19601f82011682018060405250810190610f1a9190613151565b61260690919063ffffffff16565b90506000610f416007548461261c90919063ffffffff16565b905080821015610f51600d611ef7565b90610f92576040517f08c379a0000000000000000000000000000000000000000000000000000000008152600401610f8991906131c8565b60405180910390fd5b5060008367ffffffffffffffff811115610faf57610fae612cc3565b5b604051908082528060200260200182016040528015610fe857816020015b610fd56126f1565b815260200190600190039081610fcd5790505b50905060005b85518110156114f657600086828151811061100c5761100b61326c565b5b6020026020010151600001519050600087838151811061102f5761102e61326c565b5b602002602001015160200151905060005b81518110156114e0576000600260008573ffffffffffffffffffffffffffffffffffffffff1673ffffffffffffffffffffffffffffffffffffffff168152602001908152602001600020600084848151811061109f5761109e61326c565b5b602002602001015181526020019081526020016000206000015411806111635750600160028111156110d4576110d3612c1e565b5b600260008573ffffffffffffffffffffffffffffffffffffffff1673ffffffffffffffffffffffffffffffffffffffff16815260200190815260200160002060008484815181106111285761112761326c565b5b6020026020010151815260200190815260200160002060010160009054906101000a900460ff16600281111561116157611160612c1e565b5b145b156112915760006040518060c001604052806007548152602001611200600260008873ffffffffffffffffffffffffffffffffffffffff1673ffffffffffffffffffffffffffffffffffffffff16815260200190815260200160002060008787815181106111d4576111d361326c565b5b6020026020010151815260200190815260200160002060010160009054906101000a900460ff166124f4565b81526020018484815181106112185761121761326c565b5b6020026020010151815260200161122f6002611ef7565b81526020018573ffffffffffffffffffffffffffffffffffffffff1681526020013073ffffffffffffffffffffffffffffffffffffffff168152509050808683815181106112805761127f61326c565b5b6020026020010181905250506114cd565b600060405180604001604052806007548152602001600060028111156112ba576112b9612c1e565b5b815250905060006040518060c0016040528060075481526020016112de60006124f4565b81526020018585815181106112f6576112f561326c565b5b6020026020010151815260200161130d6001611ef7565b81526020018673ffffffffffffffffffffffffffffffffffffffff1681526020013073ffffffffffffffffffffffffffffffffffffffff16815250905081600260008773ffffffffffffffffffffffffffffffffffffffff1673ffffffffffffffffffffffffffffffffffffffff168152602001908152602001600020600086868151811061139f5761139e61326c565b5b602002602001015181526020019081526020016000206000820151816000015560208201518160010160006101000a81548160ff021916908360028111156113ea576113e9612c1e565b5b0217905550905050611409600754600654611ee190919063ffffffff16565b6006819055506114256001600354611ee190919063ffffffff16565b600381905550600960008673ffffffffffffffffffffffffffffffffffffffff1673ffffffffffffffffffffffffffffffffffffffff16815260200190815260200160002084848151811061147d5761147c61326c565b5b60200260200101519080600181540180825580915050600190039060005260206000200160009091909190915055808784815181106114bf576114be61326c565b5b602002602001018190525050505b80806114d8906132ca565b915050611040565b50505080806114ee906132ca565b915050610fee565b507f85afef6cbb83d349042ed9422b66bb7031fb0b5c024f2112c1d57975fef01c13816040516115269190613464565b60405180910390a15050505050565b60008111611543600a611ef7565b90611584576040517f08c379a000000000000000000000000000000000000000000000000000000000815260040161157b91906131c8565b60405180910390fd5b5060008054906101000a900473ffffffffffffffffffffffffffffffffffffffff1673ffffffffffffffffffffffffffffffffffffffff166323b872dd3330846040518463ffffffff1660e01b81526004016115e293929190613486565b6020604051808303816000875af1158015611601573d6000803e3d6000fd5b505050506040513d601f19601f82011682018060405250810190611625919061323f565b61162f600b611ef7565b90611670576040517f08c379a000000000000000000000000000000000000000000000000000000000815260040161166791906131c8565b60405180910390fd5b503373ffffffffffffffffffffffffffffffffffffffff167f88a5966d370b9919b20f3e2c13ff65706f196a4e32cc2c12bf57088f88525874826040516116b7919061285a565b60405180910390a250565b600160009054906101000a900473ffffffffffffffffffffffffffffffffffffffff1673ffffffffffffffffffffffffffffffffffffffff163373ffffffffffffffffffffffffffffffffffffffff161461171d6007611ef7565b9061175e576040517f08c379a000000000000000000000000000000000000000000000000000000000815260040161175591906131c8565b60405180910390fd5b5060008167ffffffffffffffff81111561177b5761177a612cc3565b5b6040519080825280602002602001820160405280156117b457816020015b6117a16126f1565b8152602001906001900390816117995790505b50905060006002836117c691906134bd565b67ffffffffffffffff8111156117df576117de612cc3565b5b60405190808252806020026020018201604052801561181857816020015b611805612753565b8152602001906001900390816117fd5790505b50905060005b8451811015611e6657600085828151811061183c5761183b61326c565b5b602002602001015190506000816000015190506000826020015190506000836040015190506000600260008573ffffffffffffffffffffffffffffffffffffffff1673ffffffffffffffffffffffffffffffffffffffff1681526020019081526020016000206000848152602001908152602001600020905060008160000154116119595760006040518060c00160405280836000015481526020016118e260026124f4565b81526020018581526020016118f76003611ef7565b81526020018673ffffffffffffffffffffffffffffffffffffffff1681526020013073ffffffffffffffffffffffffffffffffffffffff168152509050808988815181106119485761194761326c565b5b602002602001018190525050611e4e565b6001600281111561196d5761196c612c1e565b5b8160010160009054906101000a900460ff16600281111561199157611990612c1e565b5b03611a3e5760006040518060c00160405280836000015481526020016119c78460010160009054906101000a900460ff166124f4565b81526020018581526020016119dc6004611ef7565b81526020018673ffffffffffffffffffffffffffffffffffffffff1681526020013073ffffffffffffffffffffffffffffffffffffffff16815250905080898881518110611a2d57611a2c61326c565b5b602002602001018190525050611e4d565b60018160010160006101000a81548160ff02191690836002811115611a6657611a65612c1e565b5b0217905550600081600001549050611a898160065461260690919063ffffffff16565b6006819055506000611aba612710611aac6008548561261c90919063ffffffff16565b61263290919063ffffffff16565b905060008054906101000a900473ffffffffffffffffffffffffffffffffffffffff1673ffffffffffffffffffffffffffffffffffffffff1663a9059cbb858385611b0591906134ff565b6040518363ffffffff1660e01b8152600401611b229291906131ea565b6020604051808303816000875af1158015611b41573d6000803e3d6000fd5b505050506040513d601f19601f82011682018060405250810190611b65919061323f565b50600060405180608001604052803073ffffffffffffffffffffffffffffffffffffffff1681526020018673ffffffffffffffffffffffffffffffffffffffff1681526020018385611bb791906134ff565b8152602001611bc66001612648565b815250905060008054906101000a900473ffffffffffffffffffffffffffffffffffffffff1673ffffffffffffffffffffffffffffffffffffffff1663a9059cbb600160009054906101000a900473ffffffffffffffffffffffffffffffffffffffff16846040518363ffffffff1660e01b8152600401611c489291906131ea565b6020604051808303816000875af1158015611c67573d6000803e3d6000fd5b505050506040513d601f19601f82011682018060405250810190611c8b919061323f565b50600060405180608001604052803073ffffffffffffffffffffffffffffffffffffffff168152602001600160009054906101000a900473ffffffffffffffffffffffffffffffffffffffff1673ffffffffffffffffffffffffffffffffffffffff168152602001848152602001611d036000612648565b8152509050818b60028c611d1791906134bd565b81518110611d2857611d2761326c565b5b6020026020010181905250808b600160028d611d4491906134bd565b611d4e9190613533565b81518110611d5f57611d5e61326c565b5b602002602001018190525060006040518060c0016040528087600001548152602001611d9b8860010160009054906101000a900460ff166124f4565b8152602001898152602001611db06000611ef7565b81526020018a73ffffffffffffffffffffffffffffffffffffffff1681526020013073ffffffffffffffffffffffffffffffffffffffff168152509050808d8c81518110611e0157611e0061326c565b5b6020026020010181905250611e226001600454611ee190919063ffffffff16565b600481905550611e418660000154600554611ee190919063ffffffff16565b60058190555050505050505b5b50505050508080611e5e906132ca565b91505061181e565b507f04c67c21e78871948226045205c92ed4fd307cf67aa4b9a336aaff4a19b0a46782604051611e969190613464565b60405180910390a17fb49d040883395a490103d88a7af5461adbf654639678b705d119d1a9edd40c9a81604051611ecd919061368c565b60405180910390a150505050565b60055481565b60008183611eef9190613533565b905092915050565b60606000600e811115611f0d57611f0c612c1e565b5b82600e811115611f2057611f1f612c1e565b5b03611f62576040518060400160405280600e81526020017f52454445454d5f5355434345535300000000000000000000000000000000000081525090506124ef565b6001600e811115611f7657611f75612c1e565b5b82600e811115611f8957611f88612c1e565b5b03611fcb576040518060400160405280601081526020017f47454e45524154455f535543434553530000000000000000000000000000000081525090506124ef565b6002600e811115611fdf57611fde612c1e565b5b82600e811115611ff257611ff1612c1e565b5b03612034576040518060400160405280600f81526020017f564f55434845525f45584953544544000000000000000000000000000000000081525090506124ef565b6003600e81111561204857612047612c1e565b5b82600e81111561205b5761205a612c1e565b5b0361209d576040518060400160405280600f81526020017f494e56414c49445f564f5543484552000000000000000000000000000000000081525090506124ef565b6004600e8111156120b1576120b0612c1e565b5b82600e8111156120c4576120c3612c1e565b5b03612106576040518060400160405280600c81526020017f555345445f564f5543484552000000000000000000000000000000000000000081525090506124ef565b6005600e81111561211a57612119612c1e565b5b82600e81111561212d5761212c612c1e565b5b0361216f576040518060400160405280600e81526020017f5245564f4b455f5355434345535300000000000000000000000000000000000081525090506124ef565b6006600e81111561218357612182612c1e565b5b82600e81111561219657612195612c1e565b5b036121d8576040518060400160405280600d81526020017f5245564f4b455f4641494c45440000000000000000000000000000000000000081525090506124ef565b6008600e8111156121ec576121eb612c1e565b5b82600e8111156121ff576121fe612c1e565b5b03612241576040518060400160405280600f81526020017f464545535f42454c4f575f5a45524f000000000000000000000000000000000081525090506124ef565b6009600e81111561225557612254612c1e565b5b82600e81111561226857612267612c1e565b5b036122aa576040518060400160405280601281526020017f464545535f41424f56455f48554e44524544000000000000000000000000000081525090506124ef565b600a600e8111156122be576122bd612c1e565b5b82600e8111156122d1576122d0612c1e565b5b03612313576040518060400160405280601681526020017f494e56414c49445f4445504f5349545f414d4f554e540000000000000000000081525090506124ef565b600b600e81111561232757612326612c1e565b5b82600e81111561233a57612339612c1e565b5b0361237c576040518060400160405280601781526020017f494e53554646494349454e545f555345525f46554e445300000000000000000081525090506124ef565b600c600e8111156123905761238f612c1e565b5b82600e8111156123a3576123a2612c1e565b5b036123e5576040518060400160405280601581526020017f494e56414c49445f564f55434845525f5052494345000000000000000000000081525090506124ef565b600d600e8111156123f9576123f8612c1e565b5b82600e81111561240c5761240b612c1e565b5b0361244e576040518060400160405280601281526020017f494e53554646494349454e545f46554e4453000000000000000000000000000081525090506124ef565b600e8081111561246157612460612c1e565b5b82600e81111561247457612473612c1e565b5b036124b6576040518060400160405280601881526020017f44455441494c5f52455452494556414c5f53554343455353000000000000000081525090506124ef565b6040518060400160405280601681526020017f494e53554646494349454e545f50524956494c4547450000000000000000000081525090505b919050565b60606000600281111561250a57612509612c1e565b5b82600281111561251d5761251c612c1e565b5b0361255f576040518060400160405280600581526020017f56414c49440000000000000000000000000000000000000000000000000000008152509050612601565b6001600281111561257357612572612c1e565b5b82600281111561258657612585612c1e565b5b036125c8576040518060400160405280600481526020017f55534544000000000000000000000000000000000000000000000000000000008152509050612601565b6040518060400160405280600781526020017f494e56414c49440000000000000000000000000000000000000000000000000081525090505b919050565b6000818361261491906134ff565b905092915050565b6000818361262a91906134bd565b905092915050565b6000818361264091906136dd565b905092915050565b60606000600181111561265e5761265d612c1e565b5b82600181111561267157612670612c1e565b5b036126b3576040518060400160405280600481526020017f464545530000000000000000000000000000000000000000000000000000000081525090506126ec565b6040518060400160405280600881526020017f5452414e5346455200000000000000000000000000000000000000000000000081525090505b919050565b6040518060c0016040528060008152602001606081526020016000815260200160608152602001600073ffffffffffffffffffffffffffffffffffffffff168152602001600073ffffffffffffffffffffffffffffffffffffffff1681525090565b6040518060800160405280600073ffffffffffffffffffffffffffffffffffffffff168152602001600073ffffffffffffffffffffffffffffffffffffffff16815260200160008152602001606081525090565b600073ffffffffffffffffffffffffffffffffffffffff82169050919050565b6000819050919050565b60006127ec6127e76127e2846127a7565b6127c7565b6127a7565b9050919050565b60006127fe826127d1565b9050919050565b6000612810826127f3565b9050919050565b61282081612805565b82525050565b600060208201905061283b6000830184612817565b92915050565b6000819050919050565b61285481612841565b82525050565b600060208201905061286f600083018461284b565b92915050565b6000604051905090565b600080fd5b600080fd5b6000612894826127a7565b9050919050565b6128a481612889565b81146128af57600080fd5b50565b6000813590506128c18161289b565b92915050565b6000602082840312156128dd576128dc61287f565b5b60006128eb848285016128b2565b91505092915050565b600081519050919050565b600082825260208201905092915050565b6000819050602082019050919050565b61292981612841565b82525050565b600061293b8383612920565b60208301905092915050565b6000602082019050919050565b600061295f826128f4565b61296981856128ff565b935061297483612910565b8060005b838110156129a557815161298c888261292f565b975061299783612947565b925050600181019050612978565b5085935050505092915050565b600060208201905081810360008301526129cc8184612954565b905092915050565b6129dd81612841565b81146129e857600080fd5b50565b6000813590506129fa816129d4565b92915050565b600060208284031215612a1657612a1561287f565b5b6000612a24848285016129eb565b91505092915050565b60008115159050919050565b612a4281612a2d565b82525050565b6000602082019050612a5d6000830184612a39565b92915050565b612a6c81612889565b82525050565b6000602082019050612a876000830184612a63565b92915050565b60008060408385031215612aa457612aa361287f565b5b6000612ab2858286016128b2565b9250506020612ac3858286016129eb565b9150509250929050565b600081519050919050565b600082825260208201905092915050565b60005b83811015612b07578082015181840152602081019050612aec565b60008484015250505050565b6000601f19601f8301169050919050565b6000612b2f82612acd565b612b398185612ad8565b9350612b49818560208601612ae9565b612b5281612b13565b840191505092915050565b612b6681612889565b82525050565b600060c083016000830151612b846000860182612920565b5060208301518482036020860152612b9c8282612b24565b9150506040830151612bb16040860182612920565b5060608301518482036060860152612bc98282612b24565b9150506080830151612bde6080860182612b5d565b5060a0830151612bf160a0860182612b5d565b508091505092915050565b60006020820190508181036000830152612c168184612b6c565b905092915050565b7f4e487b7100000000000000000000000000000000000000000000000000000000600052602160045260246000fd5b60038110612c5e57612c5d612c1e565b5b50565b6000819050612c6f82612c4d565b919050565b6000612c7f82612c61565b9050919050565b612c8f81612c74565b82525050565b6000604082019050612caa600083018561284b565b612cb76020830184612c86565b9392505050565b600080fd5b7f4e487b7100000000000000000000000000000000000000000000000000000000600052604160045260246000fd5b612cfb82612b13565b810181811067ffffffffffffffff82111715612d1a57612d19612cc3565b5b80604052505050565b6000612d2d612875565b9050612d398282612cf2565b919050565b600067ffffffffffffffff821115612d5957612d58612cc3565b5b602082029050602081019050919050565b600080fd5b600080fd5b600080fd5b600067ffffffffffffffff821115612d9457612d93612cc3565b5b602082029050602081019050919050565b6000612db8612db384612d79565b612d23565b90508083825260208201905060208402830185811115612ddb57612dda612d6a565b5b835b81811015612e045780612df088826129eb565b845260208401935050602081019050612ddd565b5050509392505050565b600082601f830112612e2357612e22612cbe565b5b8135612e33848260208601612da5565b91505092915050565b600060408284031215612e5257612e51612d6f565b5b612e5c6040612d23565b90506000612e6c848285016128b2565b600083015250602082013567ffffffffffffffff811115612e9057612e8f612d74565b5b612e9c84828501612e0e565b60208301525092915050565b6000612ebb612eb684612d3e565b612d23565b90508083825260208201905060208402830185811115612ede57612edd612d6a565b5b835b81811015612f2557803567ffffffffffffffff811115612f0357612f02612cbe565b5b808601612f108982612e3c565b85526020850194505050602081019050612ee0565b5050509392505050565b600082601f830112612f4457612f43612cbe565b5b8135612f54848260208601612ea8565b91505092915050565b60008060408385031215612f7457612f7361287f565b5b600083013567ffffffffffffffff811115612f9257612f91612884565b5b612f9e85828601612f2f565b9250506020612faf858286016129eb565b9150509250929050565b600067ffffffffffffffff821115612fd457612fd3612cc3565b5b602082029050602081019050919050565b600060608284031215612ffb57612ffa612d6f565b5b6130056060612d23565b90506000613015848285016128b2565b6000830152506020613029848285016129eb565b602083015250604061303d848285016128b2565b60408301525092915050565b600061305c61305784612fb9565b612d23565b9050808382526020820190506060840283018581111561307f5761307e612d6a565b5b835b818110156130a857806130948882612fe5565b845260208401935050606081019050613081565b5050509392505050565b600082601f8301126130c7576130c6612cbe565b5b81356130d7848260208601613049565b91505092915050565b600080604083850312156130f7576130f661287f565b5b600083013567ffffffffffffffff81111561311557613114612884565b5b613121858286016130b2565b9250506020613132858286016129eb565b9150509250929050565b60008151905061314b816129d4565b92915050565b6000602082840312156131675761316661287f565b5b60006131758482850161313c565b91505092915050565b600082825260208201905092915050565b600061319a82612acd565b6131a4818561317e565b93506131b4818560208601612ae9565b6131bd81612b13565b840191505092915050565b600060208201905081810360008301526131e2818461318f565b905092915050565b60006040820190506131ff6000830185612a63565b61320c602083018461284b565b9392505050565b61321c81612a2d565b811461322757600080fd5b50565b60008151905061323981613213565b92915050565b6000602082840312156132555761325461287f565b5b60006132638482850161322a565b91505092915050565b7f4e487b7100000000000000000000000000000000000000000000000000000000600052603260045260246000fd5b7f4e487b7100000000000000000000000000000000000000000000000000000000600052601160045260246000fd5b60006132d582612841565b91507fffffffffffffffffffffffffffffffffffffffffffffffffffffffffffffffff82036133075761330661329b565b5b600182019050919050565b600081519050919050565b600082825260208201905092915050565b6000819050602082019050919050565b600060c0830160008301516133566000860182612920565b506020830151848203602086015261336e8282612b24565b91505060408301516133836040860182612920565b506060830151848203606086015261339b8282612b24565b91505060808301516133b06080860182612b5d565b5060a08301516133c360a0860182612b5d565b508091505092915050565b60006133da838361333e565b905092915050565b6000602082019050919050565b60006133fa82613312565b613404818561331d565b9350836020820285016134168561332e565b8060005b85811015613452578484038952815161343385826133ce565b945061343e836133e2565b925060208a0199505060018101905061341a565b50829750879550505050505092915050565b6000602082019050818103600083015261347e81846133ef565b905092915050565b600060608201905061349b6000830186612a63565b6134a86020830185612a63565b6134b5604083018461284b565b949350505050565b60006134c882612841565b91506134d383612841565b92508282026134e181612841565b915082820484148315176134f8576134f761329b565b5b5092915050565b600061350a82612841565b915061351583612841565b925082820390508181111561352d5761352c61329b565b5b92915050565b600061353e82612841565b915061354983612841565b92508282019050808211156135615761356061329b565b5b92915050565b600081519050919050565b600082825260208201905092915050565b6000819050602082019050919050565b60006080830160008301516135ab6000860182612b5d565b5060208301516135be6020860182612b5d565b5060408301516135d16040860182612920565b50606083015184820360608601526135e98282612b24565b9150508091505092915050565b60006136028383613593565b905092915050565b6000602082019050919050565b600061362282613567565b61362c8185613572565b93508360208202850161363e85613583565b8060005b8581101561367a578484038952815161365b85826135f6565b94506136668361360a565b925060208a01995050600181019050613642565b50829750879550505050505092915050565b600060208201905081810360008301526136a68184613617565b905092915050565b7f4e487b7100000000000000000000000000000000000000000000000000000000600052601260045260246000fd5b60006136e882612841565b91506136f383612841565b925082613703576137026136ae565b5b82820490509291505056fea264697066735822122094e6fd323989d9a8f739dc8dce5658af3ae64a693461c5ef02902861631f7f1564736f6c63430008120033","opcodes":"PUSH1 0x80 PUSH1 0x40 MSTORE CALLVALUE DUP1 ISZERO PUSH3 0x11 JUMPI PUSH1 0x0 DUP1 REVERT JUMPDEST POP PUSH1 0x40 MLOAD PUSH3 0x3944 CODESIZE SUB DUP1 PUSH3 0x3944 DUP4 CODECOPY DUP2 DUP2 ADD PUSH1 0x40 MSTORE DUP2 ADD SWAP1 PUSH3 0x37 SWAP2 SWAP1 PUSH3 0x194 JUMP JUMPDEST CALLER PUSH1 0x1 PUSH1 0x0 PUSH2 0x100 EXP DUP2 SLOAD DUP2 PUSH20 0xFFFFFFFFFFFFFFFFFFFFFFFFFFFFFFFFFFFFFFFF MUL NOT AND SWAP1 DUP4 PUSH20 0xFFFFFFFFFFFFFFFFFFFFFFFFFFFFFFFFFFFFFFFF AND MUL OR SWAP1 SSTORE POP DUP3 PUSH1 0x0 DUP1 PUSH2 0x100 EXP DUP2 SLOAD DUP2 PUSH20 0xFFFFFFFFFFFFFFFFFFFFFFFFFFFFFFFFFFFFFFFF MUL NOT AND SWAP1 DUP4 PUSH20 0xFFFFFFFFFFFFFFFFFFFFFFFFFFFFFFFFFFFFFFFF AND MUL OR SWAP1 SSTORE POP PUSH1 0x0 PUSH1 0x3 DUP2 SWAP1 SSTORE POP PUSH1 0x0 PUSH1 0x4 DUP2 SWAP1 SSTORE POP PUSH1 0x0 PUSH1 0x6 DUP2 SWAP1 SSTORE POP PUSH1 0x0 PUSH1 0x5 DUP2 SWAP1 SSTORE POP DUP2 PUSH1 0x7 DUP2 SWAP1 SSTORE POP DUP1 PUSH1 0x8 DUP2 SWAP1 SSTORE POP POP POP POP PUSH3 0x1F0 JUMP JUMPDEST PUSH1 0x0 DUP1 REVERT JUMPDEST PUSH1 0x0 PUSH20 0xFFFFFFFFFFFFFFFFFFFFFFFFFFFFFFFFFFFFFFFF DUP3 AND SWAP1 POP SWAP2 SWAP1 POP JUMP JUMPDEST PUSH1 0x0 PUSH3 0x121 DUP3 PUSH3 0xF4 JUMP JUMPDEST SWAP1 POP SWAP2 SWAP1 POP JUMP JUMPDEST PUSH3 0x133 DUP2 PUSH3 0x114 JUMP JUMPDEST DUP2 EQ PUSH3 0x13F JUMPI PUSH1 0x0 DUP1 REVERT JUMPDEST POP JUMP JUMPDEST PUSH1 0x0 DUP2 MLOAD SWAP1 POP PUSH3 0x153 DUP2 PUSH3 0x128 JUMP JUMPDEST SWAP3 SWAP2 POP POP JUMP JUMPDEST PUSH1 0x0 DUP2 SWAP1 POP SWAP2 SWAP1 POP JUMP JUMPDEST PUSH3 0x16E DUP2 PUSH3 0x159 JUMP JUMPDEST DUP2 EQ PUSH3 0x17A JUMPI PUSH1 0x0 DUP1 REVERT JUMPDEST POP JUMP JUMPDEST PUSH1 0x0 DUP2 MLOAD SWAP1 POP PUSH3 0x18E DUP2 PUSH3 0x163 JUMP JUMPDEST SWAP3 SWAP2 POP POP JUMP JUMPDEST PUSH1 0x0 DUP1 PUSH1 0x0 PUSH1 0x60 DUP5 DUP7 SUB SLT ISZERO PUSH3 0x1B0 JUMPI PUSH3 0x1AF PUSH3 0xEF JUMP JUMPDEST JUMPDEST PUSH1 0x0 PUSH3 0x1C0 DUP7 DUP3 DUP8 ADD PUSH3 0x142 JUMP JUMPDEST SWAP4 POP POP PUSH1 0x20 PUSH3 0x1D3 DUP7 DUP3 DUP8 ADD PUSH3 0x17D JUMP JUMPDEST SWAP3 POP POP PUSH1 0x40 PUSH3 0x1E6 DUP7 DUP3 DUP8 ADD PUSH3 0x17D JUMP JUMPDEST SWAP2 POP POP SWAP3 POP SWAP3 POP SWAP3 JUMP JUMPDEST PUSH2 0x3744 DUP1 PUSH3 0x200 PUSH1 0x0 CODECOPY PUSH1 0x0 RETURN INVALID PUSH1 0x80 PUSH1 0x40 MSTORE PUSH1 0x4 CALLDATASIZE LT PUSH2 0x12A JUMPI PUSH1 0x0 CALLDATALOAD PUSH1 0xE0 SHR DUP1 PUSH4 0x8DA5CB5B GT PUSH2 0xAB JUMPI DUP1 PUSH4 0xC31EE12E GT PUSH2 0x6F JUMPI DUP1 PUSH4 0xC31EE12E EQ PUSH2 0x3DA JUMPI DUP1 PUSH4 0xD286C4A7 EQ PUSH2 0x405 JUMPI DUP1 PUSH4 0xDB5AEF21 EQ PUSH2 0x442 JUMPI DUP1 PUSH4 0xF688BCFB EQ PUSH2 0x46B JUMPI DUP1 PUSH4 0xFB6FD424 EQ PUSH2 0x487 JUMPI DUP1 PUSH4 0xFF2A46E0 EQ PUSH2 0x4B0 JUMPI PUSH2 0x12A JUMP JUMPDEST DUP1 PUSH4 0x8DA5CB5B EQ PUSH2 0x2CC JUMPI DUP1 PUSH4 0x90229FEE EQ PUSH2 0x2F7 JUMPI DUP1 PUSH4 0x934DD293 EQ PUSH2 0x322 JUMPI DUP1 PUSH4 0xABB1C05A EQ PUSH2 0x35F JUMPI DUP1 PUSH4 0xB0015A55 EQ PUSH2 0x39C JUMPI PUSH2 0x12A JUMP JUMPDEST DUP1 PUSH4 0x3CCFD60B GT PUSH2 0xF2 JUMPI DUP1 PUSH4 0x3CCFD60B EQ PUSH2 0x1F7 JUMPI DUP1 PUSH4 0x4E81E2B1 EQ PUSH2 0x20E JUMPI DUP1 PUSH4 0x5799884A EQ PUSH2 0x239 JUMPI DUP1 PUSH4 0x5CDFD08C EQ PUSH2 0x276 JUMPI DUP1 PUSH4 0x6E97AA86 EQ PUSH2 0x2A1 JUMPI PUSH2 0x12A JUMP JUMPDEST DUP1 PUSH4 0x11EAC855 EQ PUSH2 0x12F JUMPI DUP1 PUSH4 0x23B826CA EQ PUSH2 0x15A JUMPI DUP1 PUSH4 0x24056867 EQ PUSH2 0x185 JUMPI DUP1 PUSH4 0x283512B4 EQ PUSH2 0x18F JUMPI DUP1 PUSH4 0x2D211E95 EQ PUSH2 0x1BA JUMPI JUMPDEST PUSH1 0x0 DUP1 REVERT JUMPDEST CALLVALUE DUP1 ISZERO PUSH2 0x13B JUMPI PUSH1 0x0 DUP1 REVERT JUMPDEST POP PUSH2 0x144 PUSH2 0x4DB JUMP JUMPDEST PUSH1 0x40 MLOAD PUSH2 0x151 SWAP2 SWAP1 PUSH2 0x2826 JUMP JUMPDEST PUSH1 0x40 MLOAD DUP1 SWAP2 SUB SWAP1 RETURN JUMPDEST CALLVALUE DUP1 ISZERO PUSH2 0x166 JUMPI PUSH1 0x0 DUP1 REVERT JUMPDEST POP PUSH2 0x16F PUSH2 0x4FF JUMP JUMPDEST PUSH1 0x40 MLOAD PUSH2 0x17C SWAP2 SWAP1 PUSH2 0x285A JUMP JUMPDEST PUSH1 0x40 MLOAD DUP1 SWAP2 SUB SWAP1 RETURN JUMPDEST PUSH2 0x18D PUSH2 0x505 JUMP JUMPDEST STOP JUMPDEST CALLVALUE DUP1 ISZERO PUSH2 0x19B JUMPI PUSH1 0x0 DUP1 REVERT JUMPDEST POP PUSH2 0x1A4 PUSH2 0x555 JUMP JUMPDEST PUSH1 0x40 MLOAD PUSH2 0x1B1 SWAP2 SWAP1 PUSH2 0x285A JUMP JUMPDEST PUSH1 0x40 MLOAD DUP1 SWAP2 SUB SWAP1 RETURN JUMPDEST CALLVALUE DUP1 ISZERO PUSH2 0x1C6 JUMPI PUSH1 0x0 DUP1 REVERT JUMPDEST POP PUSH2 0x1E1 PUSH1 0x4 DUP1 CALLDATASIZE SUB DUP2 ADD SWAP1 PUSH2 0x1DC SWAP2 SWAP1 PUSH2 0x28C7 JUMP JUMPDEST PUSH2 0x60A JUMP JUMPDEST PUSH1 0x40 MLOAD PUSH2 0x1EE SWAP2 SWAP1 PUSH2 0x29B2 JUMP JUMPDEST PUSH1 0x40 MLOAD DUP1 SWAP2 SUB SWAP1 RETURN JUMPDEST CALLVALUE DUP1 ISZERO PUSH2 0x203 JUMPI PUSH1 0x0 DUP1 REVERT JUMPDEST POP PUSH2 0x20C PUSH2 0x6A1 JUMP JUMPDEST STOP JUMPDEST CALLVALUE DUP1 ISZERO PUSH2 0x21A JUMPI PUSH1 0x0 DUP1 REVERT JUMPDEST POP PUSH2 0x223 PUSH2 0x89A JUMP JUMPDEST PUSH1 0x40 MLOAD PUSH2 0x230 SWAP2 SWAP1 PUSH2 0x285A JUMP JUMPDEST PUSH1 0x40 MLOAD DUP1 SWAP2 SUB SWAP1 RETURN JUMPDEST CALLVALUE DUP1 ISZERO PUSH2 0x245 JUMPI PUSH1 0x0 DUP1 REVERT JUMPDEST POP PUSH2 0x260 PUSH1 0x4 DUP1 CALLDATASIZE SUB DUP2 ADD SWAP1 PUSH2 0x25B SWAP2 SWAP1 PUSH2 0x2A00 JUMP JUMPDEST PUSH2 0x8A0 JUMP JUMPDEST PUSH1 0x40 MLOAD PUSH2 0x26D SWAP2 SWAP1 PUSH2 0x2A48 JUMP JUMPDEST PUSH1 0x40 MLOAD DUP1 SWAP2 SUB SWAP1 RETURN JUMPDEST CALLVALUE DUP1 ISZERO PUSH2 0x282 JUMPI PUSH1 0x0 DUP1 REVERT JUMPDEST POP PUSH2 0x28B PUSH2 0x9F2 JUMP JUMPDEST PUSH1 0x40 MLOAD PUSH2 0x298 SWAP2 SWAP1 PUSH2 0x285A JUMP JUMPDEST PUSH1 0x40 MLOAD DUP1 SWAP2 SUB SWAP1 RETURN JUMPDEST CALLVALUE DUP1 ISZERO PUSH2 0x2AD JUMPI PUSH1 0x0 DUP1 REVERT JUMPDEST POP PUSH2 0x2B6 PUSH2 0x9F8 JUMP JUMPDEST PUSH1 0x40 MLOAD PUSH2 0x2C3 SWAP2 SWAP1 PUSH2 0x285A JUMP JUMPDEST PUSH1 0x40 MLOAD DUP1 SWAP2 SUB SWAP1 RETURN JUMPDEST CALLVALUE DUP1 ISZERO PUSH2 0x2D8 JUMPI PUSH1 0x0 DUP1 REVERT JUMPDEST POP PUSH2 0x2E1 PUSH2 0x9FE JUMP JUMPDEST PUSH1 0x40 MLOAD PUSH2 0x2EE SWAP2 SWAP1 PUSH2 0x2A72 JUMP JUMPDEST PUSH1 0x40 MLOAD DUP1 SWAP2 SUB SWAP1 RETURN JUMPDEST CALLVALUE DUP1 ISZERO PUSH2 0x303 JUMPI PUSH1 0x0 DUP1 REVERT JUMPDEST POP PUSH2 0x30C PUSH2 0xA24 JUMP JUMPDEST PUSH1 0x40 MLOAD PUSH2 0x319 SWAP2 SWAP1 PUSH2 0x285A JUMP JUMPDEST PUSH1 0x40 MLOAD DUP1 SWAP2 SUB SWAP1 RETURN JUMPDEST CALLVALUE DUP1 ISZERO PUSH2 0x32E JUMPI PUSH1 0x0 DUP1 REVERT JUMPDEST POP PUSH2 0x349 PUSH1 0x4 DUP1 CALLDATASIZE SUB DUP2 ADD SWAP1 PUSH2 0x344 SWAP2 SWAP1 PUSH2 0x28C7 JUMP JUMPDEST PUSH2 0xA2A JUMP JUMPDEST PUSH1 0x40 MLOAD PUSH2 0x356 SWAP2 SWAP1 PUSH2 0x2A48 JUMP JUMPDEST PUSH1 0x40 MLOAD DUP1 SWAP2 SUB SWAP1 RETURN JUMPDEST CALLVALUE DUP1 ISZERO PUSH2 0x36B JUMPI PUSH1 0x0 DUP1 REVERT JUMPDEST POP PUSH2 0x386 PUSH1 0x4 DUP1 CALLDATASIZE SUB DUP2 ADD SWAP1 PUSH2 0x381 SWAP2 SWAP1 PUSH2 0x2A8D JUMP JUMPDEST PUSH2 0xB12 JUMP JUMPDEST PUSH1 0x40 MLOAD PUSH2 0x393 SWAP2 SWAP1 PUSH2 0x2BFC JUMP JUMPDEST PUSH1 0x40 MLOAD DUP1 SWAP2 SUB SWAP1 RETURN JUMPDEST CALLVALUE DUP1 ISZERO PUSH2 0x3A8 JUMPI PUSH1 0x0 DUP1 REVERT JUMPDEST POP PUSH2 0x3C3 PUSH1 0x4 DUP1 CALLDATASIZE SUB DUP2 ADD SWAP1 PUSH2 0x3BE SWAP2 SWAP1 PUSH2 0x2A8D JUMP JUMPDEST PUSH2 0xBFC JUMP JUMPDEST PUSH1 0x40 MLOAD PUSH2 0x3D1 SWAP3 SWAP2 SWAP1 PUSH2 0x2C95 JUMP JUMPDEST PUSH1 0x40 MLOAD DUP1 SWAP2 SUB SWAP1 RETURN JUMPDEST CALLVALUE DUP1 ISZERO PUSH2 0x3E6 JUMPI PUSH1 0x0 DUP1 REVERT JUMPDEST POP PUSH2 0x3EF PUSH2 0xC3A JUMP JUMPDEST PUSH1 0x40 MLOAD PUSH2 0x3FC SWAP2 SWAP1 PUSH2 0x285A JUMP JUMPDEST PUSH1 0x40 MLOAD DUP1 SWAP2 SUB SWAP1 RETURN JUMPDEST CALLVALUE DUP1 ISZERO PUSH2 0x411 JUMPI PUSH1 0x0 DUP1 REVERT JUMPDEST POP PUSH2 0x42C PUSH1 0x4 DUP1 CALLDATASIZE SUB DUP2 ADD SWAP1 PUSH2 0x427 SWAP2 SWAP1 PUSH2 0x2A00 JUMP JUMPDEST PUSH2 0xCDC JUMP JUMPDEST PUSH1 0x40 MLOAD PUSH2 0x439 SWAP2 SWAP1 PUSH2 0x2A48 JUMP JUMPDEST PUSH1 0x40 MLOAD DUP1 SWAP2 SUB SWAP1 RETURN JUMPDEST CALLVALUE DUP1 ISZERO PUSH2 0x44E JUMPI PUSH1 0x0 DUP1 REVERT JUMPDEST POP PUSH2 0x469 PUSH1 0x4 DUP1 CALLDATASIZE SUB DUP2 ADD SWAP1 PUSH2 0x464 SWAP2 SWAP1 PUSH2 0x2F5D JUMP JUMPDEST PUSH2 0xDDB JUMP JUMPDEST STOP JUMPDEST PUSH2 0x485 PUSH1 0x4 DUP1 CALLDATASIZE SUB DUP2 ADD SWAP1 PUSH2 0x480 SWAP2 SWAP1 PUSH2 0x2A00 JUMP JUMPDEST PUSH2 0x1535 JUMP JUMPDEST STOP JUMPDEST CALLVALUE DUP1 ISZERO PUSH2 0x493 JUMPI PUSH1 0x0 DUP1 REVERT JUMPDEST POP PUSH2 0x4AE PUSH1 0x4 DUP1 CALLDATASIZE SUB DUP2 ADD SWAP1 PUSH2 0x4A9 SWAP2 SWAP1 PUSH2 0x30E0 JUMP JUMPDEST PUSH2 0x16C2 JUMP JUMPDEST STOP JUMPDEST CALLVALUE DUP1 ISZERO PUSH2 0x4BC JUMPI PUSH1 0x0 DUP1 REVERT JUMPDEST POP PUSH2 0x4C5 PUSH2 0x1EDB JUMP JUMPDEST PUSH1 0x40 MLOAD PUSH2 0x4D2 SWAP2 SWAP1 PUSH2 0x285A JUMP JUMPDEST PUSH1 0x40 MLOAD DUP1 SWAP2 SUB SWAP1 RETURN JUMPDEST PUSH1 0x0 DUP1 SLOAD SWAP1 PUSH2 0x100 EXP SWAP1 DIV PUSH20 0xFFFFFFFFFFFFFFFFFFFFFFFFFFFFFFFFFFFFFFFF AND DUP2 JUMP JUMPDEST PUSH1 0x3 SLOAD DUP2 JUMP JUMPDEST CALLER PUSH20 0xFFFFFFFFFFFFFFFFFFFFFFFFFFFFFFFFFFFFFFFF AND PUSH32 0x88A5966D370B9919B20F3E2C13FF65706F196A4E32CC2C12BF57088F88525874 CALLVALUE PUSH1 0x40 MLOAD PUSH2 0x54B SWAP2 SWAP1 PUSH2 0x285A JUMP JUMPDEST PUSH1 0x40 MLOAD DUP1 SWAP2 SUB SWAP1 LOG2 JUMP JUMPDEST PUSH1 0x0 PUSH2 0x605 PUSH1 0x0 DUP1 SLOAD SWAP1 PUSH2 0x100 EXP SWAP1 DIV PUSH20 0xFFFFFFFFFFFFFFFFFFFFFFFFFFFFFFFFFFFFFFFF AND PUSH20 0xFFFFFFFFFFFFFFFFFFFFFFFFFFFFFFFFFFFFFFFF AND PUSH4 0x70A08231 ADDRESS PUSH1 0x40 MLOAD DUP3 PUSH4 0xFFFFFFFF AND PUSH1 0xE0 SHL DUP2 MSTORE PUSH1 0x4 ADD PUSH2 0x5B3 SWAP2 SWAP1 PUSH2 0x2A72 JUMP JUMPDEST PUSH1 0x20 PUSH1 0x40 MLOAD DUP1 DUP4 SUB DUP2 DUP7 GAS STATICCALL ISZERO DUP1 ISZERO PUSH2 0x5D0 JUMPI RETURNDATASIZE PUSH1 0x0 DUP1 RETURNDATACOPY RETURNDATASIZE PUSH1 0x0 REVERT JUMPDEST POP POP POP POP PUSH1 0x40 MLOAD RETURNDATASIZE PUSH1 0x1F NOT PUSH1 0x1F DUP3 ADD AND DUP3 ADD DUP1 PUSH1 0x40 MSTORE POP DUP2 ADD SWAP1 PUSH2 0x5F4 SWAP2 SWAP1 PUSH2 0x3151 JUMP JUMPDEST PUSH1 0x5 SLOAD PUSH2 0x1EE1 SWAP1 SWAP2 SWAP1 PUSH4 0xFFFFFFFF AND JUMP JUMPDEST SWAP1 POP SWAP1 JUMP JUMPDEST PUSH1 0x60 PUSH1 0x9 PUSH1 0x0 DUP4 PUSH20 0xFFFFFFFFFFFFFFFFFFFFFFFFFFFFFFFFFFFFFFFF AND PUSH20 0xFFFFFFFFFFFFFFFFFFFFFFFFFFFFFFFFFFFFFFFF AND DUP2 MSTORE PUSH1 0x20 ADD SWAP1 DUP2 MSTORE PUSH1 0x20 ADD PUSH1 0x0 KECCAK256 DUP1 SLOAD DUP1 PUSH1 0x20 MUL PUSH1 0x20 ADD PUSH1 0x40 MLOAD SWAP1 DUP2 ADD PUSH1 0x40 MSTORE DUP1 SWAP3 SWAP2 SWAP1 DUP2 DUP2 MSTORE PUSH1 0x20 ADD DUP3 DUP1 SLOAD DUP1 ISZERO PUSH2 0x695 JUMPI PUSH1 0x20 MUL DUP3 ADD SWAP2 SWAP1 PUSH1 0x0 MSTORE PUSH1 0x20 PUSH1 0x0 KECCAK256 SWAP1 JUMPDEST DUP2 SLOAD DUP2 MSTORE PUSH1 0x20 ADD SWAP1 PUSH1 0x1 ADD SWAP1 DUP1 DUP4 GT PUSH2 0x681 JUMPI JUMPDEST POP POP POP POP POP SWAP1 POP SWAP2 SWAP1 POP JUMP JUMPDEST PUSH1 0x1 PUSH1 0x0 SWAP1 SLOAD SWAP1 PUSH2 0x100 EXP SWAP1 DIV PUSH20 0xFFFFFFFFFFFFFFFFFFFFFFFFFFFFFFFFFFFFFFFF AND PUSH20 0xFFFFFFFFFFFFFFFFFFFFFFFFFFFFFFFFFFFFFFFF AND CALLER PUSH20 0xFFFFFFFFFFFFFFFFFFFFFFFFFFFFFFFFFFFFFFFF AND EQ PUSH2 0x6FC PUSH1 0x7 PUSH2 0x1EF7 JUMP JUMPDEST SWAP1 PUSH2 0x73D JUMPI PUSH1 0x40 MLOAD PUSH32 0x8C379A000000000000000000000000000000000000000000000000000000000 DUP2 MSTORE PUSH1 0x4 ADD PUSH2 0x734 SWAP2 SWAP1 PUSH2 0x31C8 JUMP JUMPDEST PUSH1 0x40 MLOAD DUP1 SWAP2 SUB SWAP1 REVERT JUMPDEST POP PUSH1 0x0 DUP1 SLOAD SWAP1 PUSH2 0x100 EXP SWAP1 DIV PUSH20 0xFFFFFFFFFFFFFFFFFFFFFFFFFFFFFFFFFFFFFFFF AND PUSH20 0xFFFFFFFFFFFFFFFFFFFFFFFFFFFFFFFFFFFFFFFF AND PUSH4 0xA9059CBB PUSH1 0x1 PUSH1 0x0 SWAP1 SLOAD SWAP1 PUSH2 0x100 EXP SWAP1 DIV PUSH20 0xFFFFFFFFFFFFFFFFFFFFFFFFFFFFFFFFFFFFFFFF AND PUSH1 0x0 DUP1 SLOAD SWAP1 PUSH2 0x100 EXP SWAP1 DIV PUSH20 0xFFFFFFFFFFFFFFFFFFFFFFFFFFFFFFFFFFFFFFFF AND PUSH20 0xFFFFFFFFFFFFFFFFFFFFFFFFFFFFFFFFFFFFFFFF AND PUSH4 0x70A08231 ADDRESS PUSH1 0x40 MLOAD DUP3 PUSH4 0xFFFFFFFF AND PUSH1 0xE0 SHL DUP2 MSTORE PUSH1 0x4 ADD PUSH2 0x7F6 SWAP2 SWAP1 PUSH2 0x2A72 JUMP JUMPDEST PUSH1 0x20 PUSH1 0x40 MLOAD DUP1 DUP4 SUB DUP2 DUP7 GAS STATICCALL ISZERO DUP1 ISZERO PUSH2 0x813 JUMPI RETURNDATASIZE PUSH1 0x0 DUP1 RETURNDATACOPY RETURNDATASIZE PUSH1 0x0 REVERT JUMPDEST POP POP POP POP PUSH1 0x40 MLOAD RETURNDATASIZE PUSH1 0x1F NOT PUSH1 0x1F DUP3 ADD AND DUP3 ADD DUP1 PUSH1 0x40 MSTORE POP DUP2 ADD SWAP1 PUSH2 0x837 SWAP2 SWAP1 PUSH2 0x3151 JUMP JUMPDEST PUSH1 0x40 MLOAD DUP4 PUSH4 0xFFFFFFFF AND PUSH1 0xE0 SHL DUP2 MSTORE PUSH1 0x4 ADD PUSH2 0x854 SWAP3 SWAP2 SWAP1 PUSH2 0x31EA JUMP JUMPDEST PUSH1 0x20 PUSH1 0x40 MLOAD DUP1 DUP4 SUB DUP2 PUSH1 0x0 DUP8 GAS CALL ISZERO DUP1 ISZERO PUSH2 0x873 JUMPI RETURNDATASIZE PUSH1 0x0 DUP1 RETURNDATACOPY RETURNDATASIZE PUSH1 0x0 REVERT JUMPDEST POP POP POP POP PUSH1 0x40 MLOAD RETURNDATASIZE PUSH1 0x1F NOT PUSH1 0x1F DUP3 ADD AND DUP3 ADD DUP1 PUSH1 0x40 MSTORE POP DUP2 ADD SWAP1 PUSH2 0x897 SWAP2 SWAP1 PUSH2 0x323F JUMP JUMPDEST POP JUMP JUMPDEST PUSH1 0x4 SLOAD DUP2 JUMP JUMPDEST PUSH1 0x0 PUSH1 0x1 PUSH1 0x0 SWAP1 SLOAD SWAP1 PUSH2 0x100 EXP SWAP1 DIV PUSH20 0xFFFFFFFFFFFFFFFFFFFFFFFFFFFFFFFFFFFFFFFF AND PUSH20 0xFFFFFFFFFFFFFFFFFFFFFFFFFFFFFFFFFFFFFFFF AND CALLER PUSH20 0xFFFFFFFFFFFFFFFFFFFFFFFFFFFFFFFFFFFFFFFF AND EQ PUSH2 0x8FD PUSH1 0x7 PUSH2 0x1EF7 JUMP JUMPDEST SWAP1 PUSH2 0x93E JUMPI PUSH1 0x40 MLOAD PUSH32 0x8C379A000000000000000000000000000000000000000000000000000000000 DUP2 MSTORE PUSH1 0x4 ADD PUSH2 0x935 SWAP2 SWAP1 PUSH2 0x31C8 JUMP JUMPDEST PUSH1 0x40 MLOAD DUP1 SWAP2 SUB SWAP1 REVERT JUMPDEST POP PUSH1 0x0 DUP3 LT ISZERO PUSH2 0x94E PUSH1 0x8 PUSH2 0x1EF7 JUMP JUMPDEST SWAP1 PUSH2 0x98F JUMPI PUSH1 0x40 MLOAD PUSH32 0x8C379A000000000000000000000000000000000000000000000000000000000 DUP2 MSTORE PUSH1 0x4 ADD PUSH2 0x986 SWAP2 SWAP1 PUSH2 0x31C8 JUMP JUMPDEST PUSH1 0x40 MLOAD DUP1 SWAP2 SUB SWAP1 REVERT JUMPDEST POP PUSH2 0x2710 DUP3 GT ISZERO PUSH2 0x9A0 PUSH1 0x9 PUSH2 0x1EF7 JUMP JUMPDEST SWAP1 PUSH2 0x9E1 JUMPI PUSH1 0x40 MLOAD PUSH32 0x8C379A000000000000000000000000000000000000000000000000000000000 DUP2 MSTORE PUSH1 0x4 ADD PUSH2 0x9D8 SWAP2 SWAP1 PUSH2 0x31C8 JUMP JUMPDEST PUSH1 0x40 MLOAD DUP1 SWAP2 SUB SWAP1 REVERT JUMPDEST POP DUP2 PUSH1 0x8 DUP2 SWAP1 SSTORE POP PUSH1 0x1 SWAP1 POP SWAP2 SWAP1 POP JUMP JUMPDEST PUSH1 0x8 SLOAD DUP2 JUMP JUMPDEST PUSH1 0x6 SLOAD DUP2 JUMP JUMPDEST PUSH1 0x1 PUSH1 0x0 SWAP1 SLOAD SWAP1 PUSH2 0x100 EXP SWAP1 DIV PUSH20 0xFFFFFFFFFFFFFFFFFFFFFFFFFFFFFFFFFFFFFFFF AND DUP2 JUMP JUMPDEST PUSH1 0x7 SLOAD DUP2 JUMP JUMPDEST PUSH1 0x0 PUSH1 0x1 PUSH1 0x0 SWAP1 SLOAD SWAP1 PUSH2 0x100 EXP SWAP1 DIV PUSH20 0xFFFFFFFFFFFFFFFFFFFFFFFFFFFFFFFFFFFFFFFF AND PUSH20 0xFFFFFFFFFFFFFFFFFFFFFFFFFFFFFFFFFFFFFFFF AND CALLER PUSH20 0xFFFFFFFFFFFFFFFFFFFFFFFFFFFFFFFFFFFFFFFF AND EQ PUSH2 0xA87 PUSH1 0x7 PUSH2 0x1EF7 JUMP JUMPDEST SWAP1 PUSH2 0xAC8 JUMPI PUSH1 0x40 MLOAD PUSH32 0x8C379A000000000000000000000000000000000000000000000000000000000 DUP2 MSTORE PUSH1 0x4 ADD PUSH2 0xABF SWAP2 SWAP1 PUSH2 0x31C8 JUMP JUMPDEST PUSH1 0x40 MLOAD DUP1 SWAP2 SUB SWAP1 REVERT JUMPDEST POP DUP2 PUSH1 0x0 DUP1 PUSH2 0x100 EXP DUP2 SLOAD DUP2 PUSH20 0xFFFFFFFFFFFFFFFFFFFFFFFFFFFFFFFFFFFFFFFF MUL NOT AND SWAP1 DUP4 PUSH20 0xFFFFFFFFFFFFFFFFFFFFFFFFFFFFFFFFFFFFFFFF AND MUL OR SWAP1 SSTORE POP PUSH1 0x1 SWAP1 POP SWAP2 SWAP1 POP JUMP JUMPDEST PUSH2 0xB1A PUSH2 0x26F1 JUMP JUMPDEST PUSH1 0x0 PUSH1 0x2 PUSH1 0x0 DUP6 PUSH20 0xFFFFFFFFFFFFFFFFFFFFFFFFFFFFFFFFFFFFFFFF AND PUSH20 0xFFFFFFFFFFFFFFFFFFFFFFFFFFFFFFFFFFFFFFFF AND DUP2 MSTORE PUSH1 0x20 ADD SWAP1 DUP2 MSTORE PUSH1 0x20 ADD PUSH1 0x0 KECCAK256 PUSH1 0x0 DUP5 DUP2 MSTORE PUSH1 0x20 ADD SWAP1 DUP2 MSTORE PUSH1 0x20 ADD PUSH1 0x0 KECCAK256 SWAP1 POP PUSH1 0x0 PUSH1 0x40 MLOAD DUP1 PUSH1 0xC0 ADD PUSH1 0x40 MSTORE DUP1 DUP4 PUSH1 0x0 ADD SLOAD DUP2 MSTORE PUSH1 0x20 ADD PUSH2 0xB9F DUP5 PUSH1 0x1 ADD PUSH1 0x0 SWAP1 SLOAD SWAP1 PUSH2 0x100 EXP SWAP1 DIV PUSH1 0xFF AND PUSH2 0x24F4 JUMP JUMPDEST DUP2 MSTORE PUSH1 0x20 ADD DUP6 DUP2 MSTORE PUSH1 0x20 ADD PUSH2 0xBB4 PUSH1 0xE PUSH2 0x1EF7 JUMP JUMPDEST DUP2 MSTORE PUSH1 0x20 ADD DUP7 PUSH20 0xFFFFFFFFFFFFFFFFFFFFFFFFFFFFFFFFFFFFFFFF AND DUP2 MSTORE PUSH1 0x20 ADD ADDRESS PUSH20 0xFFFFFFFFFFFFFFFFFFFFFFFFFFFFFFFFFFFFFFFF AND DUP2 MSTORE POP SWAP1 POP DUP1 SWAP3 POP POP POP SWAP3 SWAP2 POP POP JUMP JUMPDEST PUSH1 0x2 PUSH1 0x20 MSTORE DUP2 PUSH1 0x0 MSTORE PUSH1 0x40 PUSH1 0x0 KECCAK256 PUSH1 0x20 MSTORE DUP1 PUSH1 0x0 MSTORE PUSH1 0x40 PUSH1 0x0 KECCAK256 PUSH1 0x0 SWAP2 POP SWAP2 POP POP DUP1 PUSH1 0x0 ADD SLOAD SWAP1 DUP1 PUSH1 0x1 ADD PUSH1 0x0 SWAP1 SLOAD SWAP1 PUSH2 0x100 EXP SWAP1 DIV PUSH1 0xFF AND SWAP1 POP DUP3 JUMP JUMPDEST PUSH1 0x0 DUP1 PUSH1 0x0 SWAP1 SLOAD SWAP1 PUSH2 0x100 EXP SWAP1 DIV PUSH20 0xFFFFFFFFFFFFFFFFFFFFFFFFFFFFFFFFFFFFFFFF AND PUSH20 0xFFFFFFFFFFFFFFFFFFFFFFFFFFFFFFFFFFFFFFFF AND PUSH4 0x70A08231 ADDRESS PUSH1 0x40 MLOAD DUP3 PUSH4 0xFFFFFFFF AND PUSH1 0xE0 SHL DUP2 MSTORE PUSH1 0x4 ADD PUSH2 0xC96 SWAP2 SWAP1 PUSH2 0x2A72 JUMP JUMPDEST PUSH1 0x20 PUSH1 0x40 MLOAD DUP1 DUP4 SUB DUP2 DUP7 GAS STATICCALL ISZERO DUP1 ISZERO PUSH2 0xCB3 JUMPI RETURNDATASIZE PUSH1 0x0 DUP1 RETURNDATACOPY RETURNDATASIZE PUSH1 0x0 REVERT JUMPDEST POP POP POP POP PUSH1 0x40 MLOAD RETURNDATASIZE PUSH1 0x1F NOT PUSH1 0x1F DUP3 ADD AND DUP3 ADD DUP1 PUSH1 0x40 MSTORE POP DUP2 ADD SWAP1 PUSH2 0xCD7 SWAP2 SWAP1 PUSH2 0x3151 JUMP JUMPDEST SWAP1 POP SWAP1 JUMP JUMPDEST PUSH1 0x0 PUSH1 0x1 PUSH1 0x0 SWAP1 SLOAD SWAP1 PUSH2 0x100 EXP SWAP1 DIV PUSH20 0xFFFFFFFFFFFFFFFFFFFFFFFFFFFFFFFFFFFFFFFF AND PUSH20 0xFFFFFFFFFFFFFFFFFFFFFFFFFFFFFFFFFFFFFFFF AND CALLER PUSH20 0xFFFFFFFFFFFFFFFFFFFFFFFFFFFFFFFFFFFFFFFF AND EQ PUSH2 0xD39 PUSH1 0x7 PUSH2 0x1EF7 JUMP JUMPDEST SWAP1 PUSH2 0xD7A JUMPI PUSH1 0x40 MLOAD PUSH32 0x8C379A000000000000000000000000000000000000000000000000000000000 DUP2 MSTORE PUSH1 0x4 ADD PUSH2 0xD71 SWAP2 SWAP1 PUSH2 0x31C8 JUMP JUMPDEST PUSH1 0x40 MLOAD DUP1 SWAP2 SUB SWAP1 REVERT JUMPDEST POP PUSH1 0x0 DUP3 GT PUSH2 0xD89 PUSH1 0xC PUSH2 0x1EF7 JUMP JUMPDEST SWAP1 PUSH2 0xDCA JUMPI PUSH1 0x40 MLOAD PUSH32 0x8C379A000000000000000000000000000000000000000000000000000000000 DUP2 MSTORE PUSH1 0x4 ADD PUSH2 0xDC1 SWAP2 SWAP1 PUSH2 0x31C8 JUMP JUMPDEST PUSH1 0x40 MLOAD DUP1 SWAP2 SUB SWAP1 REVERT JUMPDEST POP DUP2 PUSH1 0x7 DUP2 SWAP1 SSTORE POP PUSH1 0x1 SWAP1 POP SWAP2 SWAP1 POP JUMP JUMPDEST PUSH1 0x1 PUSH1 0x0 SWAP1 SLOAD SWAP1 PUSH2 0x100 EXP SWAP1 DIV PUSH20 0xFFFFFFFFFFFFFFFFFFFFFFFFFFFFFFFFFFFFFFFF AND PUSH20 0xFFFFFFFFFFFFFFFFFFFFFFFFFFFFFFFFFFFFFFFF AND CALLER PUSH20 0xFFFFFFFFFFFFFFFFFFFFFFFFFFFFFFFFFFFFFFFF AND EQ PUSH2 0xE36 PUSH1 0x7 PUSH2 0x1EF7 JUMP JUMPDEST SWAP1 PUSH2 0xE77 JUMPI PUSH1 0x40 MLOAD PUSH32 0x8C379A000000000000000000000000000000000000000000000000000000000 DUP2 MSTORE PUSH1 0x4 ADD PUSH2 0xE6E SWAP2 SWAP1 PUSH2 0x31C8 JUMP JUMPDEST PUSH1 0x40 MLOAD DUP1 SWAP2 SUB SWAP1 REVERT JUMPDEST POP PUSH1 0x0 PUSH2 0xF28 PUSH1 0x6 SLOAD PUSH1 0x0 DUP1 SLOAD SWAP1 PUSH2 0x100 EXP SWAP1 DIV PUSH20 0xFFFFFFFFFFFFFFFFFFFFFFFFFFFFFFFFFFFFFFFF AND PUSH20 0xFFFFFFFFFFFFFFFFFFFFFFFFFFFFFFFFFFFFFFFF AND PUSH4 0x70A08231 ADDRESS PUSH1 0x40 MLOAD DUP3 PUSH4 0xFFFFFFFF AND PUSH1 0xE0 SHL DUP2 MSTORE PUSH1 0x4 ADD PUSH2 0xED9 SWAP2 SWAP1 PUSH2 0x2A72 JUMP JUMPDEST PUSH1 0x20 PUSH1 0x40 MLOAD DUP1 DUP4 SUB DUP2 DUP7 GAS STATICCALL ISZERO DUP1 ISZERO PUSH2 0xEF6 JUMPI RETURNDATASIZE PUSH1 0x0 DUP1 RETURNDATACOPY RETURNDATASIZE PUSH1 0x0 REVERT JUMPDEST POP POP POP POP PUSH1 0x40 MLOAD RETURNDATASIZE PUSH1 0x1F NOT PUSH1 0x1F DUP3 ADD AND DUP3 ADD DUP1 PUSH1 0x40 MSTORE POP DUP2 ADD SWAP1 PUSH2 0xF1A SWAP2 SWAP1 PUSH2 0x3151 JUMP JUMPDEST PUSH2 0x2606 SWAP1 SWAP2 SWAP1 PUSH4 0xFFFFFFFF AND JUMP JUMPDEST SWAP1 POP PUSH1 0x0 PUSH2 0xF41 PUSH1 0x7 SLOAD DUP5 PUSH2 0x261C SWAP1 SWAP2 SWAP1 PUSH4 0xFFFFFFFF AND JUMP JUMPDEST SWAP1 POP DUP1 DUP3 LT ISZERO PUSH2 0xF51 PUSH1 0xD PUSH2 0x1EF7 JUMP JUMPDEST SWAP1 PUSH2 0xF92 JUMPI PUSH1 0x40 MLOAD PUSH32 0x8C379A000000000000000000000000000000000000000000000000000000000 DUP2 MSTORE PUSH1 0x4 ADD PUSH2 0xF89 SWAP2 SWAP1 PUSH2 0x31C8 JUMP JUMPDEST PUSH1 0x40 MLOAD DUP1 SWAP2 SUB SWAP1 REVERT JUMPDEST POP PUSH1 0x0 DUP4 PUSH8 0xFFFFFFFFFFFFFFFF DUP2 GT ISZERO PUSH2 0xFAF JUMPI PUSH2 0xFAE PUSH2 0x2CC3 JUMP JUMPDEST JUMPDEST PUSH1 0x40 MLOAD SWAP1 DUP1 DUP3 MSTORE DUP1 PUSH1 0x20 MUL PUSH1 0x20 ADD DUP3 ADD PUSH1 0x40 MSTORE DUP1 ISZERO PUSH2 0xFE8 JUMPI DUP2 PUSH1 0x20 ADD JUMPDEST PUSH2 0xFD5 PUSH2 0x26F1 JUMP JUMPDEST DUP2 MSTORE PUSH1 0x20 ADD SWAP1 PUSH1 0x1 SWAP1 SUB SWAP1 DUP2 PUSH2 0xFCD JUMPI SWAP1 POP JUMPDEST POP SWAP1 POP PUSH1 0x0 JUMPDEST DUP6 MLOAD DUP2 LT ISZERO PUSH2 0x14F6 JUMPI PUSH1 0x0 DUP7 DUP3 DUP2 MLOAD DUP2 LT PUSH2 0x100C JUMPI PUSH2 0x100B PUSH2 0x326C JUMP JUMPDEST JUMPDEST PUSH1 0x20 MUL PUSH1 0x20 ADD ADD MLOAD PUSH1 0x0 ADD MLOAD SWAP1 POP PUSH1 0x0 DUP8 DUP4 DUP2 MLOAD DUP2 LT PUSH2 0x102F JUMPI PUSH2 0x102E PUSH2 0x326C JUMP JUMPDEST JUMPDEST PUSH1 0x20 MUL PUSH1 0x20 ADD ADD MLOAD PUSH1 0x20 ADD MLOAD SWAP1 POP PUSH1 0x0 JUMPDEST DUP2 MLOAD DUP2 LT ISZERO PUSH2 0x14E0 JUMPI PUSH1 0x0 PUSH1 0x2 PUSH1 0x0 DUP6 PUSH20 0xFFFFFFFFFFFFFFFFFFFFFFFFFFFFFFFFFFFFFFFF AND PUSH20 0xFFFFFFFFFFFFFFFFFFFFFFFFFFFFFFFFFFFFFFFF AND DUP2 MSTORE PUSH1 0x20 ADD SWAP1 DUP2 MSTORE PUSH1 0x20 ADD PUSH1 0x0 KECCAK256 PUSH1 0x0 DUP5 DUP5 DUP2 MLOAD DUP2 LT PUSH2 0x109F JUMPI PUSH2 0x109E PUSH2 0x326C JUMP JUMPDEST JUMPDEST PUSH1 0x20 MUL PUSH1 0x20 ADD ADD MLOAD DUP2 MSTORE PUSH1 0x20 ADD SWAP1 DUP2 MSTORE PUSH1 0x20 ADD PUSH1 0x0 KECCAK256 PUSH1 0x0 ADD SLOAD GT DUP1 PUSH2 0x1163 JUMPI POP PUSH1 0x1 PUSH1 0x2 DUP2 GT ISZERO PUSH2 0x10D4 JUMPI PUSH2 0x10D3 PUSH2 0x2C1E JUMP JUMPDEST JUMPDEST PUSH1 0x2 PUSH1 0x0 DUP6 PUSH20 0xFFFFFFFFFFFFFFFFFFFFFFFFFFFFFFFFFFFFFFFF AND PUSH20 0xFFFFFFFFFFFFFFFFFFFFFFFFFFFFFFFFFFFFFFFF AND DUP2 MSTORE PUSH1 0x20 ADD SWAP1 DUP2 MSTORE PUSH1 0x20 ADD PUSH1 0x0 KECCAK256 PUSH1 0x0 DUP5 DUP5 DUP2 MLOAD DUP2 LT PUSH2 0x1128 JUMPI PUSH2 0x1127 PUSH2 0x326C JUMP JUMPDEST JUMPDEST PUSH1 0x20 MUL PUSH1 0x20 ADD ADD MLOAD DUP2 MSTORE PUSH1 0x20 ADD SWAP1 DUP2 MSTORE PUSH1 0x20 ADD PUSH1 0x0 KECCAK256 PUSH1 0x1 ADD PUSH1 0x0 SWAP1 SLOAD SWAP1 PUSH2 0x100 EXP SWAP1 DIV PUSH1 0xFF AND PUSH1 0x2 DUP2 GT ISZERO PUSH2 0x1161 JUMPI PUSH2 0x1160 PUSH2 0x2C1E JUMP JUMPDEST JUMPDEST EQ JUMPDEST ISZERO PUSH2 0x1291 JUMPI PUSH1 0x0 PUSH1 0x40 MLOAD DUP1 PUSH1 0xC0 ADD PUSH1 0x40 MSTORE DUP1 PUSH1 0x7 SLOAD DUP2 MSTORE PUSH1 0x20 ADD PUSH2 0x1200 PUSH1 0x2 PUSH1 0x0 DUP9 PUSH20 0xFFFFFFFFFFFFFFFFFFFFFFFFFFFFFFFFFFFFFFFF AND PUSH20 0xFFFFFFFFFFFFFFFFFFFFFFFFFFFFFFFFFFFFFFFF AND DUP2 MSTORE PUSH1 0x20 ADD SWAP1 DUP2 MSTORE PUSH1 0x20 ADD PUSH1 0x0 KECCAK256 PUSH1 0x0 DUP8 DUP8 DUP2 MLOAD DUP2 LT PUSH2 0x11D4 JUMPI PUSH2 0x11D3 PUSH2 0x326C JUMP JUMPDEST JUMPDEST PUSH1 0x20 MUL PUSH1 0x20 ADD ADD MLOAD DUP2 MSTORE PUSH1 0x20 ADD SWAP1 DUP2 MSTORE PUSH1 0x20 ADD PUSH1 0x0 KECCAK256 PUSH1 0x1 ADD PUSH1 0x0 SWAP1 SLOAD SWAP1 PUSH2 0x100 EXP SWAP1 DIV PUSH1 0xFF AND PUSH2 0x24F4 JUMP JUMPDEST DUP2 MSTORE PUSH1 0x20 ADD DUP5 DUP5 DUP2 MLOAD DUP2 LT PUSH2 0x1218 JUMPI PUSH2 0x1217 PUSH2 0x326C JUMP JUMPDEST JUMPDEST PUSH1 0x20 MUL PUSH1 0x20 ADD ADD MLOAD DUP2 MSTORE PUSH1 0x20 ADD PUSH2 0x122F PUSH1 0x2 PUSH2 0x1EF7 JUMP JUMPDEST DUP2 MSTORE PUSH1 0x20 ADD DUP6 PUSH20 0xFFFFFFFFFFFFFFFFFFFFFFFFFFFFFFFFFFFFFFFF AND DUP2 MSTORE PUSH1 0x20 ADD ADDRESS PUSH20 0xFFFFFFFFFFFFFFFFFFFFFFFFFFFFFFFFFFFFFFFF AND DUP2 MSTORE POP SWAP1 POP DUP1 DUP7 DUP4 DUP2 MLOAD DUP2 LT PUSH2 0x1280 JUMPI PUSH2 0x127F PUSH2 0x326C JUMP JUMPDEST JUMPDEST PUSH1 0x20 MUL PUSH1 0x20 ADD ADD DUP2 SWAP1 MSTORE POP POP PUSH2 0x14CD JUMP JUMPDEST PUSH1 0x0 PUSH1 0x40 MLOAD DUP1 PUSH1 0x40 ADD PUSH1 0x40 MSTORE DUP1 PUSH1 0x7 SLOAD DUP2 MSTORE PUSH1 0x20 ADD PUSH1 0x0 PUSH1 0x2 DUP2 GT ISZERO PUSH2 0x12BA JUMPI PUSH2 0x12B9 PUSH2 0x2C1E JUMP JUMPDEST JUMPDEST DUP2 MSTORE POP SWAP1 POP PUSH1 0x0 PUSH1 0x40 MLOAD DUP1 PUSH1 0xC0 ADD PUSH1 0x40 MSTORE DUP1 PUSH1 0x7 SLOAD DUP2 MSTORE PUSH1 0x20 ADD PUSH2 0x12DE PUSH1 0x0 PUSH2 0x24F4 JUMP JUMPDEST DUP2 MSTORE PUSH1 0x20 ADD DUP6 DUP6 DUP2 MLOAD DUP2 LT PUSH2 0x12F6 JUMPI PUSH2 0x12F5 PUSH2 0x326C JUMP JUMPDEST JUMPDEST PUSH1 0x20 MUL PUSH1 0x20 ADD ADD MLOAD DUP2 MSTORE PUSH1 0x20 ADD PUSH2 0x130D PUSH1 0x1 PUSH2 0x1EF7 JUMP JUMPDEST DUP2 MSTORE PUSH1 0x20 ADD DUP7 PUSH20 0xFFFFFFFFFFFFFFFFFFFFFFFFFFFFFFFFFFFFFFFF AND DUP2 MSTORE PUSH1 0x20 ADD ADDRESS PUSH20 0xFFFFFFFFFFFFFFFFFFFFFFFFFFFFFFFFFFFFFFFF AND DUP2 MSTORE POP SWAP1 POP DUP2 PUSH1 0x2 PUSH1 0x0 DUP8 PUSH20 0xFFFFFFFFFFFFFFFFFFFFFFFFFFFFFFFFFFFFFFFF AND PUSH20 0xFFFFFFFFFFFFFFFFFFFFFFFFFFFFFFFFFFFFFFFF AND DUP2 MSTORE PUSH1 0x20 ADD SWAP1 DUP2 MSTORE PUSH1 0x20 ADD PUSH1 0x0 KECCAK256 PUSH1 0x0 DUP7 DUP7 DUP2 MLOAD DUP2 LT PUSH2 0x139F JUMPI PUSH2 0x139E PUSH2 0x326C JUMP JUMPDEST JUMPDEST PUSH1 0x20 MUL PUSH1 0x20 ADD ADD MLOAD DUP2 MSTORE PUSH1 0x20 ADD SWAP1 DUP2 MSTORE PUSH1 0x20 ADD PUSH1 0x0 KECCAK256 PUSH1 0x0 DUP3 ADD MLOAD DUP2 PUSH1 0x0 ADD SSTORE PUSH1 0x20 DUP3 ADD MLOAD DUP2 PUSH1 0x1 ADD PUSH1 0x0 PUSH2 0x100 EXP DUP2 SLOAD DUP2 PUSH1 0xFF MUL NOT AND SWAP1 DUP4 PUSH1 0x2 DUP2 GT ISZERO PUSH2 0x13EA JUMPI PUSH2 0x13E9 PUSH2 0x2C1E JUMP JUMPDEST JUMPDEST MUL OR SWAP1 SSTORE POP SWAP1 POP POP PUSH2 0x1409 PUSH1 0x7 SLOAD PUSH1 0x6 SLOAD PUSH2 0x1EE1 SWAP1 SWAP2 SWAP1 PUSH4 0xFFFFFFFF AND JUMP JUMPDEST PUSH1 0x6 DUP2 SWAP1 SSTORE POP PUSH2 0x1425 PUSH1 0x1 PUSH1 0x3 SLOAD PUSH2 0x1EE1 SWAP1 SWAP2 SWAP1 PUSH4 0xFFFFFFFF AND JUMP JUMPDEST PUSH1 0x3 DUP2 SWAP1 SSTORE POP PUSH1 0x9 PUSH1 0x0 DUP7 PUSH20 0xFFFFFFFFFFFFFFFFFFFFFFFFFFFFFFFFFFFFFFFF AND PUSH20 0xFFFFFFFFFFFFFFFFFFFFFFFFFFFFFFFFFFFFFFFF AND DUP2 MSTORE PUSH1 0x20 ADD SWAP1 DUP2 MSTORE PUSH1 0x20 ADD PUSH1 0x0 KECCAK256 DUP5 DUP5 DUP2 MLOAD DUP2 LT PUSH2 0x147D JUMPI PUSH2 0x147C PUSH2 0x326C JUMP JUMPDEST JUMPDEST PUSH1 0x20 MUL PUSH1 0x20 ADD ADD MLOAD SWAP1 DUP1 PUSH1 0x1 DUP2 SLOAD ADD DUP1 DUP3 SSTORE DUP1 SWAP2 POP POP PUSH1 0x1 SWAP1 SUB SWAP1 PUSH1 0x0 MSTORE PUSH1 0x20 PUSH1 0x0 KECCAK256 ADD PUSH1 0x0 SWAP1 SWAP2 SWAP1 SWAP2 SWAP1 SWAP2 POP SSTORE DUP1 DUP8 DUP5 DUP2 MLOAD DUP2 LT PUSH2 0x14BF JUMPI PUSH2 0x14BE PUSH2 0x326C JUMP JUMPDEST JUMPDEST PUSH1 0x20 MUL PUSH1 0x20 ADD ADD DUP2 SWAP1 MSTORE POP POP POP JUMPDEST DUP1 DUP1 PUSH2 0x14D8 SWAP1 PUSH2 0x32CA JUMP JUMPDEST SWAP2 POP POP PUSH2 0x1040 JUMP JUMPDEST POP POP POP DUP1 DUP1 PUSH2 0x14EE SWAP1 PUSH2 0x32CA JUMP JUMPDEST SWAP2 POP POP PUSH2 0xFEE JUMP JUMPDEST POP PUSH32 0x85AFEF6CBB83D349042ED9422B66BB7031FB0B5C024F2112C1D57975FEF01C13 DUP2 PUSH1 0x40 MLOAD PUSH2 0x1526 SWAP2 SWAP1 PUSH2 0x3464 JUMP JUMPDEST PUSH1 0x40 MLOAD DUP1 SWAP2 SUB SWAP1 LOG1 POP POP POP POP POP JUMP JUMPDEST PUSH1 0x0 DUP2 GT PUSH2 0x1543 PUSH1 0xA PUSH2 0x1EF7 JUMP JUMPDEST SWAP1 PUSH2 0x1584 JUMPI PUSH1 0x40 MLOAD PUSH32 0x8C379A000000000000000000000000000000000000000000000000000000000 DUP2 MSTORE PUSH1 0x4 ADD PUSH2 0x157B SWAP2 SWAP1 PUSH2 0x31C8 JUMP JUMPDEST PUSH1 0x40 MLOAD DUP1 SWAP2 SUB SWAP1 REVERT JUMPDEST POP PUSH1 0x0 DUP1 SLOAD SWAP1 PUSH2 0x100 EXP SWAP1 DIV PUSH20 0xFFFFFFFFFFFFFFFFFFFFFFFFFFFFFFFFFFFFFFFF AND PUSH20 0xFFFFFFFFFFFFFFFFFFFFFFFFFFFFFFFFFFFFFFFF AND PUSH4 0x23B872DD CALLER ADDRESS DUP5 PUSH1 0x40 MLOAD DUP5 PUSH4 0xFFFFFFFF AND PUSH1 0xE0 SHL DUP2 MSTORE PUSH1 0x4 ADD PUSH2 0x15E2 SWAP4 SWAP3 SWAP2 SWAP1 PUSH2 0x3486 JUMP JUMPDEST PUSH1 0x20 PUSH1 0x40 MLOAD DUP1 DUP4 SUB DUP2 PUSH1 0x0 DUP8 GAS CALL ISZERO DUP1 ISZERO PUSH2 0x1601 JUMPI RETURNDATASIZE PUSH1 0x0 DUP1 RETURNDATACOPY RETURNDATASIZE PUSH1 0x0 REVERT JUMPDEST POP POP POP POP PUSH1 0x40 MLOAD RETURNDATASIZE PUSH1 0x1F NOT PUSH1 0x1F DUP3 ADD AND DUP3 ADD DUP1 PUSH1 0x40 MSTORE POP DUP2 ADD SWAP1 PUSH2 0x1625 SWAP2 SWAP1 PUSH2 0x323F JUMP JUMPDEST PUSH2 0x162F PUSH1 0xB PUSH2 0x1EF7 JUMP JUMPDEST SWAP1 PUSH2 0x1670 JUMPI PUSH1 0x40 MLOAD PUSH32 0x8C379A000000000000000000000000000000000000000000000000000000000 DUP2 MSTORE PUSH1 0x4 ADD PUSH2 0x1667 SWAP2 SWAP1 PUSH2 0x31C8 JUMP JUMPDEST PUSH1 0x40 MLOAD DUP1 SWAP2 SUB SWAP1 REVERT JUMPDEST POP CALLER PUSH20 0xFFFFFFFFFFFFFFFFFFFFFFFFFFFFFFFFFFFFFFFF AND PUSH32 0x88A5966D370B9919B20F3E2C13FF65706F196A4E32CC2C12BF57088F88525874 DUP3 PUSH1 0x40 MLOAD PUSH2 0x16B7 SWAP2 SWAP1 PUSH2 0x285A JUMP JUMPDEST PUSH1 0x40 MLOAD DUP1 SWAP2 SUB SWAP1 LOG2 POP JUMP JUMPDEST PUSH1 0x1 PUSH1 0x0 SWAP1 SLOAD SWAP1 PUSH2 0x100 EXP SWAP1 DIV PUSH20 0xFFFFFFFFFFFFFFFFFFFFFFFFFFFFFFFFFFFFFFFF AND PUSH20 0xFFFFFFFFFFFFFFFFFFFFFFFFFFFFFFFFFFFFFFFF AND CALLER PUSH20 0xFFFFFFFFFFFFFFFFFFFFFFFFFFFFFFFFFFFFFFFF AND EQ PUSH2 0x171D PUSH1 0x7 PUSH2 0x1EF7 JUMP JUMPDEST SWAP1 PUSH2 0x175E JUMPI PUSH1 0x40 MLOAD PUSH32 0x8C379A000000000000000000000000000000000000000000000000000000000 DUP2 MSTORE PUSH1 0x4 ADD PUSH2 0x1755 SWAP2 SWAP1 PUSH2 0x31C8 JUMP JUMPDEST PUSH1 0x40 MLOAD DUP1 SWAP2 SUB SWAP1 REVERT JUMPDEST POP PUSH1 0x0 DUP2 PUSH8 0xFFFFFFFFFFFFFFFF DUP2 GT ISZERO PUSH2 0x177B JUMPI PUSH2 0x177A PUSH2 0x2CC3 JUMP JUMPDEST JUMPDEST PUSH1 0x40 MLOAD SWAP1 DUP1 DUP3 MSTORE DUP1 PUSH1 0x20 MUL PUSH1 0x20 ADD DUP3 ADD PUSH1 0x40 MSTORE DUP1 ISZERO PUSH2 0x17B4 JUMPI DUP2 PUSH1 0x20 ADD JUMPDEST PUSH2 0x17A1 PUSH2 0x26F1 JUMP JUMPDEST DUP2 MSTORE PUSH1 0x20 ADD SWAP1 PUSH1 0x1 SWAP1 SUB SWAP1 DUP2 PUSH2 0x1799 JUMPI SWAP1 POP JUMPDEST POP SWAP1 POP PUSH1 0x0 PUSH1 0x2 DUP4 PUSH2 0x17C6 SWAP2 SWAP1 PUSH2 0x34BD JUMP JUMPDEST PUSH8 0xFFFFFFFFFFFFFFFF DUP2 GT ISZERO PUSH2 0x17DF JUMPI PUSH2 0x17DE PUSH2 0x2CC3 JUMP JUMPDEST JUMPDEST PUSH1 0x40 MLOAD SWAP1 DUP1 DUP3 MSTORE DUP1 PUSH1 0x20 MUL PUSH1 0x20 ADD DUP3 ADD PUSH1 0x40 MSTORE DUP1 ISZERO PUSH2 0x1818 JUMPI DUP2 PUSH1 0x20 ADD JUMPDEST PUSH2 0x1805 PUSH2 0x2753 JUMP JUMPDEST DUP2 MSTORE PUSH1 0x20 ADD SWAP1 PUSH1 0x1 SWAP1 SUB SWAP1 DUP2 PUSH2 0x17FD JUMPI SWAP1 POP JUMPDEST POP SWAP1 POP PUSH1 0x0 JUMPDEST DUP5 MLOAD DUP2 LT ISZERO PUSH2 0x1E66 JUMPI PUSH1 0x0 DUP6 DUP3 DUP2 MLOAD DUP2 LT PUSH2 0x183C JUMPI PUSH2 0x183B PUSH2 0x326C JUMP JUMPDEST JUMPDEST PUSH1 0x20 MUL PUSH1 0x20 ADD ADD MLOAD SWAP1 POP PUSH1 0x0 DUP2 PUSH1 0x0 ADD MLOAD SWAP1 POP PUSH1 0x0 DUP3 PUSH1 0x20 ADD MLOAD SWAP1 POP PUSH1 0x0 DUP4 PUSH1 0x40 ADD MLOAD SWAP1 POP PUSH1 0x0 PUSH1 0x2 PUSH1 0x0 DUP6 PUSH20 0xFFFFFFFFFFFFFFFFFFFFFFFFFFFFFFFFFFFFFFFF AND PUSH20 0xFFFFFFFFFFFFFFFFFFFFFFFFFFFFFFFFFFFFFFFF AND DUP2 MSTORE PUSH1 0x20 ADD SWAP1 DUP2 MSTORE PUSH1 0x20 ADD PUSH1 0x0 KECCAK256 PUSH1 0x0 DUP5 DUP2 MSTORE PUSH1 0x20 ADD SWAP1 DUP2 MSTORE PUSH1 0x20 ADD PUSH1 0x0 KECCAK256 SWAP1 POP PUSH1 0x0 DUP2 PUSH1 0x0 ADD SLOAD GT PUSH2 0x1959 JUMPI PUSH1 0x0 PUSH1 0x40 MLOAD DUP1 PUSH1 0xC0 ADD PUSH1 0x40 MSTORE DUP1 DUP4 PUSH1 0x0 ADD SLOAD DUP2 MSTORE PUSH1 0x20 ADD PUSH2 0x18E2 PUSH1 0x2 PUSH2 0x24F4 JUMP JUMPDEST DUP2 MSTORE PUSH1 0x20 ADD DUP6 DUP2 MSTORE PUSH1 0x20 ADD PUSH2 0x18F7 PUSH1 0x3 PUSH2 0x1EF7 JUMP JUMPDEST DUP2 MSTORE PUSH1 0x20 ADD DUP7 PUSH20 0xFFFFFFFFFFFFFFFFFFFFFFFFFFFFFFFFFFFFFFFF AND DUP2 MSTORE PUSH1 0x20 ADD ADDRESS PUSH20 0xFFFFFFFFFFFFFFFFFFFFFFFFFFFFFFFFFFFFFFFF AND DUP2 MSTORE POP SWAP1 POP DUP1 DUP10 DUP9 DUP2 MLOAD DUP2 LT PUSH2 0x1948 JUMPI PUSH2 0x1947 PUSH2 0x326C JUMP JUMPDEST JUMPDEST PUSH1 0x20 MUL PUSH1 0x20 ADD ADD DUP2 SWAP1 MSTORE POP POP PUSH2 0x1E4E JUMP JUMPDEST PUSH1 0x1 PUSH1 0x2 DUP2 GT ISZERO PUSH2 0x196D JUMPI PUSH2 0x196C PUSH2 0x2C1E JUMP JUMPDEST JUMPDEST DUP2 PUSH1 0x1 ADD PUSH1 0x0 SWAP1 SLOAD SWAP1 PUSH2 0x100 EXP SWAP1 DIV PUSH1 0xFF AND PUSH1 0x2 DUP2 GT ISZERO PUSH2 0x1991 JUMPI PUSH2 0x1990 PUSH2 0x2C1E JUMP JUMPDEST JUMPDEST SUB PUSH2 0x1A3E JUMPI PUSH1 0x0 PUSH1 0x40 MLOAD DUP1 PUSH1 0xC0 ADD PUSH1 0x40 MSTORE DUP1 DUP4 PUSH1 0x0 ADD SLOAD DUP2 MSTORE PUSH1 0x20 ADD PUSH2 0x19C7 DUP5 PUSH1 0x1 ADD PUSH1 0x0 SWAP1 SLOAD SWAP1 PUSH2 0x100 EXP SWAP1 DIV PUSH1 0xFF AND PUSH2 0x24F4 JUMP JUMPDEST DUP2 MSTORE PUSH1 0x20 ADD DUP6 DUP2 MSTORE PUSH1 0x20 ADD PUSH2 0x19DC PUSH1 0x4 PUSH2 0x1EF7 JUMP JUMPDEST DUP2 MSTORE PUSH1 0x20 ADD DUP7 PUSH20 0xFFFFFFFFFFFFFFFFFFFFFFFFFFFFFFFFFFFFFFFF AND DUP2 MSTORE PUSH1 0x20 ADD ADDRESS PUSH20 0xFFFFFFFFFFFFFFFFFFFFFFFFFFFFFFFFFFFFFFFF AND DUP2 MSTORE POP SWAP1 POP DUP1 DUP10 DUP9 DUP2 MLOAD DUP2 LT PUSH2 0x1A2D JUMPI PUSH2 0x1A2C PUSH2 0x326C JUMP JUMPDEST JUMPDEST PUSH1 0x20 MUL PUSH1 0x20 ADD ADD DUP2 SWAP1 MSTORE POP POP PUSH2 0x1E4D JUMP JUMPDEST PUSH1 0x1 DUP2 PUSH1 0x1 ADD PUSH1 0x0 PUSH2 0x100 EXP DUP2 SLOAD DUP2 PUSH1 0xFF MUL NOT AND SWAP1 DUP4 PUSH1 0x2 DUP2 GT ISZERO PUSH2 0x1A66 JUMPI PUSH2 0x1A65 PUSH2 0x2C1E JUMP JUMPDEST JUMPDEST MUL OR SWAP1 SSTORE POP PUSH1 0x0 DUP2 PUSH1 0x0 ADD SLOAD SWAP1 POP PUSH2 0x1A89 DUP2 PUSH1 0x6 SLOAD PUSH2 0x2606 SWAP1 SWAP2 SWAP1 PUSH4 0xFFFFFFFF AND JUMP JUMPDEST PUSH1 0x6 DUP2 SWAP1 SSTORE POP PUSH1 0x0 PUSH2 0x1ABA PUSH2 0x2710 PUSH2 0x1AAC PUSH1 0x8 SLOAD DUP6 PUSH2 0x261C SWAP1 SWAP2 SWAP1 PUSH4 0xFFFFFFFF AND JUMP JUMPDEST PUSH2 0x2632 SWAP1 SWAP2 SWAP1 PUSH4 0xFFFFFFFF AND JUMP JUMPDEST SWAP1 POP PUSH1 0x0 DUP1 SLOAD SWAP1 PUSH2 0x100 EXP SWAP1 DIV PUSH20 0xFFFFFFFFFFFFFFFFFFFFFFFFFFFFFFFFFFFFFFFF AND PUSH20 0xFFFFFFFFFFFFFFFFFFFFFFFFFFFFFFFFFFFFFFFF AND PUSH4 0xA9059CBB DUP6 DUP4 DUP6 PUSH2 0x1B05 SWAP2 SWAP1 PUSH2 0x34FF JUMP JUMPDEST PUSH1 0x40 MLOAD DUP4 PUSH4 0xFFFFFFFF AND PUSH1 0xE0 SHL DUP2 MSTORE PUSH1 0x4 ADD PUSH2 0x1B22 SWAP3 SWAP2 SWAP1 PUSH2 0x31EA JUMP JUMPDEST PUSH1 0x20 PUSH1 0x40 MLOAD DUP1 DUP4 SUB DUP2 PUSH1 0x0 DUP8 GAS CALL ISZERO DUP1 ISZERO PUSH2 0x1B41 JUMPI RETURNDATASIZE PUSH1 0x0 DUP1 RETURNDATACOPY RETURNDATASIZE PUSH1 0x0 REVERT JUMPDEST POP POP POP POP PUSH1 0x40 MLOAD RETURNDATASIZE PUSH1 0x1F NOT PUSH1 0x1F DUP3 ADD AND DUP3 ADD DUP1 PUSH1 0x40 MSTORE POP DUP2 ADD SWAP1 PUSH2 0x1B65 SWAP2 SWAP1 PUSH2 0x323F JUMP JUMPDEST POP PUSH1 0x0 PUSH1 0x40 MLOAD DUP1 PUSH1 0x80 ADD PUSH1 0x40 MSTORE DUP1 ADDRESS PUSH20 0xFFFFFFFFFFFFFFFFFFFFFFFFFFFFFFFFFFFFFFFF AND DUP2 MSTORE PUSH1 0x20 ADD DUP7 PUSH20 0xFFFFFFFFFFFFFFFFFFFFFFFFFFFFFFFFFFFFFFFF AND DUP2 MSTORE PUSH1 0x20 ADD DUP4 DUP6 PUSH2 0x1BB7 SWAP2 SWAP1 PUSH2 0x34FF JUMP JUMPDEST DUP2 MSTORE PUSH1 0x20 ADD PUSH2 0x1BC6 PUSH1 0x1 PUSH2 0x2648 JUMP JUMPDEST DUP2 MSTORE POP SWAP1 POP PUSH1 0x0 DUP1 SLOAD SWAP1 PUSH2 0x100 EXP SWAP1 DIV PUSH20 0xFFFFFFFFFFFFFFFFFFFFFFFFFFFFFFFFFFFFFFFF AND PUSH20 0xFFFFFFFFFFFFFFFFFFFFFFFFFFFFFFFFFFFFFFFF AND PUSH4 0xA9059CBB PUSH1 0x1 PUSH1 0x0 SWAP1 SLOAD SWAP1 PUSH2 0x100 EXP SWAP1 DIV PUSH20 0xFFFFFFFFFFFFFFFFFFFFFFFFFFFFFFFFFFFFFFFF AND DUP5 PUSH1 0x40 MLOAD DUP4 PUSH4 0xFFFFFFFF AND PUSH1 0xE0 SHL DUP2 MSTORE PUSH1 0x4 ADD PUSH2 0x1C48 SWAP3 SWAP2 SWAP1 PUSH2 0x31EA JUMP JUMPDEST PUSH1 0x20 PUSH1 0x40 MLOAD DUP1 DUP4 SUB DUP2 PUSH1 0x0 DUP8 GAS CALL ISZERO DUP1 ISZERO PUSH2 0x1C67 JUMPI RETURNDATASIZE PUSH1 0x0 DUP1 RETURNDATACOPY RETURNDATASIZE PUSH1 0x0 REVERT JUMPDEST POP POP POP POP PUSH1 0x40 MLOAD RETURNDATASIZE PUSH1 0x1F NOT PUSH1 0x1F DUP3 ADD AND DUP3 ADD DUP1 PUSH1 0x40 MSTORE POP DUP2 ADD SWAP1 PUSH2 0x1C8B SWAP2 SWAP1 PUSH2 0x323F JUMP JUMPDEST POP PUSH1 0x0 PUSH1 0x40 MLOAD DUP1 PUSH1 0x80 ADD PUSH1 0x40 MSTORE DUP1 ADDRESS PUSH20 0xFFFFFFFFFFFFFFFFFFFFFFFFFFFFFFFFFFFFFFFF AND DUP2 MSTORE PUSH1 0x20 ADD PUSH1 0x1 PUSH1 0x0 SWAP1 SLOAD SWAP1 PUSH2 0x100 EXP SWAP1 DIV PUSH20 0xFFFFFFFFFFFFFFFFFFFFFFFFFFFFFFFFFFFFFFFF AND PUSH20 0xFFFFFFFFFFFFFFFFFFFFFFFFFFFFFFFFFFFFFFFF AND DUP2 MSTORE PUSH1 0x20 ADD DUP5 DUP2 MSTORE PUSH1 0x20 ADD PUSH2 0x1D03 PUSH1 0x0 PUSH2 0x2648 JUMP JUMPDEST DUP2 MSTORE POP SWAP1 POP DUP2 DUP12 PUSH1 0x2 DUP13 PUSH2 0x1D17 SWAP2 SWAP1 PUSH2 0x34BD JUMP JUMPDEST DUP2 MLOAD DUP2 LT PUSH2 0x1D28 JUMPI PUSH2 0x1D27 PUSH2 0x326C JUMP JUMPDEST JUMPDEST PUSH1 0x20 MUL PUSH1 0x20 ADD ADD DUP2 SWAP1 MSTORE POP DUP1 DUP12 PUSH1 0x1 PUSH1 0x2 DUP14 PUSH2 0x1D44 SWAP2 SWAP1 PUSH2 0x34BD JUMP JUMPDEST PUSH2 0x1D4E SWAP2 SWAP1 PUSH2 0x3533 JUMP JUMPDEST DUP2 MLOAD DUP2 LT PUSH2 0x1D5F JUMPI PUSH2 0x1D5E PUSH2 0x326C JUMP JUMPDEST JUMPDEST PUSH1 0x20 MUL PUSH1 0x20 ADD ADD DUP2 SWAP1 MSTORE POP PUSH1 0x0 PUSH1 0x40 MLOAD DUP1 PUSH1 0xC0 ADD PUSH1 0x40 MSTORE DUP1 DUP8 PUSH1 0x0 ADD SLOAD DUP2 MSTORE PUSH1 0x20 ADD PUSH2 0x1D9B DUP9 PUSH1 0x1 ADD PUSH1 0x0 SWAP1 SLOAD SWAP1 PUSH2 0x100 EXP SWAP1 DIV PUSH1 0xFF AND PUSH2 0x24F4 JUMP JUMPDEST DUP2 MSTORE PUSH1 0x20 ADD DUP10 DUP2 MSTORE PUSH1 0x20 ADD PUSH2 0x1DB0 PUSH1 0x0 PUSH2 0x1EF7 JUMP JUMPDEST DUP2 MSTORE PUSH1 0x20 ADD DUP11 PUSH20 0xFFFFFFFFFFFFFFFFFFFFFFFFFFFFFFFFFFFFFFFF AND DUP2 MSTORE PUSH1 0x20 ADD ADDRESS PUSH20 0xFFFFFFFFFFFFFFFFFFFFFFFFFFFFFFFFFFFFFFFF AND DUP2 MSTORE POP SWAP1 POP DUP1 DUP14 DUP13 DUP2 MLOAD DUP2 LT PUSH2 0x1E01 JUMPI PUSH2 0x1E00 PUSH2 0x326C JUMP JUMPDEST JUMPDEST PUSH1 0x20 MUL PUSH1 0x20 ADD ADD DUP2 SWAP1 MSTORE POP PUSH2 0x1E22 PUSH1 0x1 PUSH1 0x4 SLOAD PUSH2 0x1EE1 SWAP1 SWAP2 SWAP1 PUSH4 0xFFFFFFFF AND JUMP JUMPDEST PUSH1 0x4 DUP2 SWAP1 SSTORE POP PUSH2 0x1E41 DUP7 PUSH1 0x0 ADD SLOAD PUSH1 0x5 SLOAD PUSH2 0x1EE1 SWAP1 SWAP2 SWAP1 PUSH4 0xFFFFFFFF AND JUMP JUMPDEST PUSH1 0x5 DUP2 SWAP1 SSTORE POP POP POP POP POP POP JUMPDEST JUMPDEST POP POP POP POP POP DUP1 DUP1 PUSH2 0x1E5E SWAP1 PUSH2 0x32CA JUMP JUMPDEST SWAP2 POP POP PUSH2 0x181E JUMP JUMPDEST POP PUSH32 0x4C67C21E78871948226045205C92ED4FD307CF67AA4B9A336AAFF4A19B0A467 DUP3 PUSH1 0x40 MLOAD PUSH2 0x1E96 SWAP2 SWAP1 PUSH2 0x3464 JUMP JUMPDEST PUSH1 0x40 MLOAD DUP1 SWAP2 SUB SWAP1 LOG1 PUSH32 0xB49D040883395A490103D88A7AF5461ADBF654639678B705D119D1A9EDD40C9A DUP2 PUSH1 0x40 MLOAD PUSH2 0x1ECD SWAP2 SWAP1 PUSH2 0x368C JUMP JUMPDEST PUSH1 0x40 MLOAD DUP1 SWAP2 SUB SWAP1 LOG1 POP POP POP POP JUMP JUMPDEST PUSH1 0x5 SLOAD DUP2 JUMP JUMPDEST PUSH1 0x0 DUP2 DUP4 PUSH2 0x1EEF SWAP2 SWAP1 PUSH2 0x3533 JUMP JUMPDEST SWAP1 POP SWAP3 SWAP2 POP POP JUMP JUMPDEST PUSH1 0x60 PUSH1 0x0 PUSH1 0xE DUP2 GT ISZERO PUSH2 0x1F0D JUMPI PUSH2 0x1F0C PUSH2 0x2C1E JUMP JUMPDEST JUMPDEST DUP3 PUSH1 0xE DUP2 GT ISZERO PUSH2 0x1F20 JUMPI PUSH2 0x1F1F PUSH2 0x2C1E JUMP JUMPDEST JUMPDEST SUB PUSH2 0x1F62 JUMPI PUSH1 0x40 MLOAD DUP1 PUSH1 0x40 ADD PUSH1 0x40 MSTORE DUP1 PUSH1 0xE DUP2 MSTORE PUSH1 0x20 ADD PUSH32 0x52454445454D5F53554343455353000000000000000000000000000000000000 DUP2 MSTORE POP SWAP1 POP PUSH2 0x24EF JUMP JUMPDEST PUSH1 0x1 PUSH1 0xE DUP2 GT ISZERO PUSH2 0x1F76 JUMPI PUSH2 0x1F75 PUSH2 0x2C1E JUMP JUMPDEST JUMPDEST DUP3 PUSH1 0xE DUP2 GT ISZERO PUSH2 0x1F89 JUMPI PUSH2 0x1F88 PUSH2 0x2C1E JUMP JUMPDEST JUMPDEST SUB PUSH2 0x1FCB JUMPI PUSH1 0x40 MLOAD DUP1 PUSH1 0x40 ADD PUSH1 0x40 MSTORE DUP1 PUSH1 0x10 DUP2 MSTORE PUSH1 0x20 ADD PUSH32 0x47454E45524154455F5355434345535300000000000000000000000000000000 DUP2 MSTORE POP SWAP1 POP PUSH2 0x24EF JUMP JUMPDEST PUSH1 0x2 PUSH1 0xE DUP2 GT ISZERO PUSH2 0x1FDF JUMPI PUSH2 0x1FDE PUSH2 0x2C1E JUMP JUMPDEST JUMPDEST DUP3 PUSH1 0xE DUP2 GT ISZERO PUSH2 0x1FF2 JUMPI PUSH2 0x1FF1 PUSH2 0x2C1E JUMP JUMPDEST JUMPDEST SUB PUSH2 0x2034 JUMPI PUSH1 0x40 MLOAD DUP1 PUSH1 0x40 ADD PUSH1 0x40 MSTORE DUP1 PUSH1 0xF DUP2 MSTORE PUSH1 0x20 ADD PUSH32 0x564F55434845525F455849535445440000000000000000000000000000000000 DUP2 MSTORE POP SWAP1 POP PUSH2 0x24EF JUMP JUMPDEST PUSH1 0x3 PUSH1 0xE DUP2 GT ISZERO PUSH2 0x2048 JUMPI PUSH2 0x2047 PUSH2 0x2C1E JUMP JUMPDEST JUMPDEST DUP3 PUSH1 0xE DUP2 GT ISZERO PUSH2 0x205B JUMPI PUSH2 0x205A PUSH2 0x2C1E JUMP JUMPDEST JUMPDEST SUB PUSH2 0x209D JUMPI PUSH1 0x40 MLOAD DUP1 PUSH1 0x40 ADD PUSH1 0x40 MSTORE DUP1 PUSH1 0xF DUP2 MSTORE PUSH1 0x20 ADD PUSH32 0x494E56414C49445F564F55434845520000000000000000000000000000000000 DUP2 MSTORE POP SWAP1 POP PUSH2 0x24EF JUMP JUMPDEST PUSH1 0x4 PUSH1 0xE DUP2 GT ISZERO PUSH2 0x20B1 JUMPI PUSH2 0x20B0 PUSH2 0x2C1E JUMP JUMPDEST JUMPDEST DUP3 PUSH1 0xE DUP2 GT ISZERO PUSH2 0x20C4 JUMPI PUSH2 0x20C3 PUSH2 0x2C1E JUMP JUMPDEST JUMPDEST SUB PUSH2 0x2106 JUMPI PUSH1 0x40 MLOAD DUP1 PUSH1 0x40 ADD PUSH1 0x40 MSTORE DUP1 PUSH1 0xC DUP2 MSTORE PUSH1 0x20 ADD PUSH32 0x555345445F564F55434845520000000000000000000000000000000000000000 DUP2 MSTORE POP SWAP1 POP PUSH2 0x24EF JUMP JUMPDEST PUSH1 0x5 PUSH1 0xE DUP2 GT ISZERO PUSH2 0x211A JUMPI PUSH2 0x2119 PUSH2 0x2C1E JUMP JUMPDEST JUMPDEST DUP3 PUSH1 0xE DUP2 GT ISZERO PUSH2 0x212D JUMPI PUSH2 0x212C PUSH2 0x2C1E JUMP JUMPDEST JUMPDEST SUB PUSH2 0x216F JUMPI PUSH1 0x40 MLOAD DUP1 PUSH1 0x40 ADD PUSH1 0x40 MSTORE DUP1 PUSH1 0xE DUP2 MSTORE PUSH1 0x20 ADD PUSH32 0x5245564F4B455F53554343455353000000000000000000000000000000000000 DUP2 MSTORE POP SWAP1 POP PUSH2 0x24EF JUMP JUMPDEST PUSH1 0x6 PUSH1 0xE DUP2 GT ISZERO PUSH2 0x2183 JUMPI PUSH2 0x2182 PUSH2 0x2C1E JUMP JUMPDEST JUMPDEST DUP3 PUSH1 0xE DUP2 GT ISZERO PUSH2 0x2196 JUMPI PUSH2 0x2195 PUSH2 0x2C1E JUMP JUMPDEST JUMPDEST SUB PUSH2 0x21D8 JUMPI PUSH1 0x40 MLOAD DUP1 PUSH1 0x40 ADD PUSH1 0x40 MSTORE DUP1 PUSH1 0xD DUP2 MSTORE PUSH1 0x20 ADD PUSH32 0x5245564F4B455F4641494C454400000000000000000000000000000000000000 DUP2 MSTORE POP SWAP1 POP PUSH2 0x24EF JUMP JUMPDEST PUSH1 0x8 PUSH1 0xE DUP2 GT ISZERO PUSH2 0x21EC JUMPI PUSH2 0x21EB PUSH2 0x2C1E JUMP JUMPDEST JUMPDEST DUP3 PUSH1 0xE DUP2 GT ISZERO PUSH2 0x21FF JUMPI PUSH2 0x21FE PUSH2 0x2C1E JUMP JUMPDEST JUMPDEST SUB PUSH2 0x2241 JUMPI PUSH1 0x40 MLOAD DUP1 PUSH1 0x40 ADD PUSH1 0x40 MSTORE DUP1 PUSH1 0xF DUP2 MSTORE PUSH1 0x20 ADD PUSH32 0x464545535F42454C4F575F5A45524F0000000000000000000000000000000000 DUP2 MSTORE POP SWAP1 POP PUSH2 0x24EF JUMP JUMPDEST PUSH1 0x9 PUSH1 0xE DUP2 GT ISZERO PUSH2 0x2255 JUMPI PUSH2 0x2254 PUSH2 0x2C1E JUMP JUMPDEST JUMPDEST DUP3 PUSH1 0xE DUP2 GT ISZERO PUSH2 0x2268 JUMPI PUSH2 0x2267 PUSH2 0x2C1E JUMP JUMPDEST JUMPDEST SUB PUSH2 0x22AA JUMPI PUSH1 0x40 MLOAD DUP1 PUSH1 0x40 ADD PUSH1 0x40 MSTORE DUP1 PUSH1 0x12 DUP2 MSTORE PUSH1 0x20 ADD PUSH32 0x464545535F41424F56455F48554E445245440000000000000000000000000000 DUP2 MSTORE POP SWAP1 POP PUSH2 0x24EF JUMP JUMPDEST PUSH1 0xA PUSH1 0xE DUP2 GT ISZERO PUSH2 0x22BE JUMPI PUSH2 0x22BD PUSH2 0x2C1E JUMP JUMPDEST JUMPDEST DUP3 PUSH1 0xE DUP2 GT ISZERO PUSH2 0x22D1 JUMPI PUSH2 0x22D0 PUSH2 0x2C1E JUMP JUMPDEST JUMPDEST SUB PUSH2 0x2313 JUMPI PUSH1 0x40 MLOAD DUP1 PUSH1 0x40 ADD PUSH1 0x40 MSTORE DUP1 PUSH1 0x16 DUP2 MSTORE PUSH1 0x20 ADD PUSH32 0x494E56414C49445F4445504F5349545F414D4F554E5400000000000000000000 DUP2 MSTORE POP SWAP1 POP PUSH2 0x24EF JUMP JUMPDEST PUSH1 0xB PUSH1 0xE DUP2 GT ISZERO PUSH2 0x2327 JUMPI PUSH2 0x2326 PUSH2 0x2C1E JUMP JUMPDEST JUMPDEST DUP3 PUSH1 0xE DUP2 GT ISZERO PUSH2 0x233A JUMPI PUSH2 0x2339 PUSH2 0x2C1E JUMP JUMPDEST JUMPDEST SUB PUSH2 0x237C JUMPI PUSH1 0x40 MLOAD DUP1 PUSH1 0x40 ADD PUSH1 0x40 MSTORE DUP1 PUSH1 0x17 DUP2 MSTORE PUSH1 0x20 ADD PUSH32 0x494E53554646494349454E545F555345525F46554E4453000000000000000000 DUP2 MSTORE POP SWAP1 POP PUSH2 0x24EF JUMP JUMPDEST PUSH1 0xC PUSH1 0xE DUP2 GT ISZERO PUSH2 0x2390 JUMPI PUSH2 0x238F PUSH2 0x2C1E JUMP JUMPDEST JUMPDEST DUP3 PUSH1 0xE DUP2 GT ISZERO PUSH2 0x23A3 JUMPI PUSH2 0x23A2 PUSH2 0x2C1E JUMP JUMPDEST JUMPDEST SUB PUSH2 0x23E5 JUMPI PUSH1 0x40 MLOAD DUP1 PUSH1 0x40 ADD PUSH1 0x40 MSTORE DUP1 PUSH1 0x15 DUP2 MSTORE PUSH1 0x20 ADD PUSH32 0x494E56414C49445F564F55434845525F50524943450000000000000000000000 DUP2 MSTORE POP SWAP1 POP PUSH2 0x24EF JUMP JUMPDEST PUSH1 0xD PUSH1 0xE DUP2 GT ISZERO PUSH2 0x23F9 JUMPI PUSH2 0x23F8 PUSH2 0x2C1E JUMP JUMPDEST JUMPDEST DUP3 PUSH1 0xE DUP2 GT ISZERO PUSH2 0x240C JUMPI PUSH2 0x240B PUSH2 0x2C1E JUMP JUMPDEST JUMPDEST SUB PUSH2 0x244E JUMPI PUSH1 0x40 MLOAD DUP1 PUSH1 0x40 ADD PUSH1 0x40 MSTORE DUP1 PUSH1 0x12 DUP2 MSTORE PUSH1 0x20 ADD PUSH32 0x494E53554646494349454E545F46554E44530000000000000000000000000000 DUP2 MSTORE POP SWAP1 POP PUSH2 0x24EF JUMP JUMPDEST PUSH1 0xE DUP1 DUP2 GT ISZERO PUSH2 0x2461 JUMPI PUSH2 0x2460 PUSH2 0x2C1E JUMP JUMPDEST JUMPDEST DUP3 PUSH1 0xE DUP2 GT ISZERO PUSH2 0x2474 JUMPI PUSH2 0x2473 PUSH2 0x2C1E JUMP JUMPDEST JUMPDEST SUB PUSH2 0x24B6 JUMPI PUSH1 0x40 MLOAD DUP1 PUSH1 0x40 ADD PUSH1 0x40 MSTORE DUP1 PUSH1 0x18 DUP2 MSTORE PUSH1 0x20 ADD PUSH32 0x44455441494C5F52455452494556414C5F535543434553530000000000000000 DUP2 MSTORE POP SWAP1 POP PUSH2 0x24EF JUMP JUMPDEST PUSH1 0x40 MLOAD DUP1 PUSH1 0x40 ADD PUSH1 0x40 MSTORE DUP1 PUSH1 0x16 DUP2 MSTORE PUSH1 0x20 ADD PUSH32 0x494E53554646494349454E545F50524956494C45474500000000000000000000 DUP2 MSTORE POP SWAP1 POP JUMPDEST SWAP2 SWAP1 POP JUMP JUMPDEST PUSH1 0x60 PUSH1 0x0 PUSH1 0x2 DUP2 GT ISZERO PUSH2 0x250A JUMPI PUSH2 0x2509 PUSH2 0x2C1E JUMP JUMPDEST JUMPDEST DUP3 PUSH1 0x2 DUP2 GT ISZERO PUSH2 0x251D JUMPI PUSH2 0x251C PUSH2 0x2C1E JUMP JUMPDEST JUMPDEST SUB PUSH2 0x255F JUMPI PUSH1 0x40 MLOAD DUP1 PUSH1 0x40 ADD PUSH1 0x40 MSTORE DUP1 PUSH1 0x5 DUP2 MSTORE PUSH1 0x20 ADD PUSH32 0x56414C4944000000000000000000000000000000000000000000000000000000 DUP2 MSTORE POP SWAP1 POP PUSH2 0x2601 JUMP JUMPDEST PUSH1 0x1 PUSH1 0x2 DUP2 GT ISZERO PUSH2 0x2573 JUMPI PUSH2 0x2572 PUSH2 0x2C1E JUMP JUMPDEST JUMPDEST DUP3 PUSH1 0x2 DUP2 GT ISZERO PUSH2 0x2586 JUMPI PUSH2 0x2585 PUSH2 0x2C1E JUMP JUMPDEST JUMPDEST SUB PUSH2 0x25C8 JUMPI PUSH1 0x40 MLOAD DUP1 PUSH1 0x40 ADD PUSH1 0x40 MSTORE DUP1 PUSH1 0x4 DUP2 MSTORE PUSH1 0x20 ADD PUSH32 0x5553454400000000000000000000000000000000000000000000000000000000 DUP2 MSTORE POP SWAP1 POP PUSH2 0x2601 JUMP JUMPDEST PUSH1 0x40 MLOAD DUP1 PUSH1 0x40 ADD PUSH1 0x40 MSTORE DUP1 PUSH1 0x7 DUP2 MSTORE PUSH1 0x20 ADD PUSH32 0x494E56414C494400000000000000000000000000000000000000000000000000 DUP2 MSTORE POP SWAP1 POP JUMPDEST SWAP2 SWAP1 POP JUMP JUMPDEST PUSH1 0x0 DUP2 DUP4 PUSH2 0x2614 SWAP2 SWAP1 PUSH2 0x34FF JUMP JUMPDEST SWAP1 POP SWAP3 SWAP2 POP POP JUMP JUMPDEST PUSH1 0x0 DUP2 DUP4 PUSH2 0x262A SWAP2 SWAP1 PUSH2 0x34BD JUMP JUMPDEST SWAP1 POP SWAP3 SWAP2 POP POP JUMP JUMPDEST PUSH1 0x0 DUP2 DUP4 PUSH2 0x2640 SWAP2 SWAP1 PUSH2 0x36DD JUMP JUMPDEST SWAP1 POP SWAP3 SWAP2 POP POP JUMP JUMPDEST PUSH1 0x60 PUSH1 0x0 PUSH1 0x1 DUP2 GT ISZERO PUSH2 0x265E JUMPI PUSH2 0x265D PUSH2 0x2C1E JUMP JUMPDEST JUMPDEST DUP3 PUSH1 0x1 DUP2 GT ISZERO PUSH2 0x2671 JUMPI PUSH2 0x2670 PUSH2 0x2C1E JUMP JUMPDEST JUMPDEST SUB PUSH2 0x26B3 JUMPI PUSH1 0x40 MLOAD DUP1 PUSH1 0x40 ADD PUSH1 0x40 MSTORE DUP1 PUSH1 0x4 DUP2 MSTORE PUSH1 0x20 ADD PUSH32 0x4645455300000000000000000000000000000000000000000000000000000000 DUP2 MSTORE POP SWAP1 POP PUSH2 0x26EC JUMP JUMPDEST PUSH1 0x40 MLOAD DUP1 PUSH1 0x40 ADD PUSH1 0x40 MSTORE DUP1 PUSH1 0x8 DUP2 MSTORE PUSH1 0x20 ADD PUSH32 0x5452414E53464552000000000000000000000000000000000000000000000000 DUP2 MSTORE POP SWAP1 POP JUMPDEST SWAP2 SWAP1 POP JUMP JUMPDEST PUSH1 0x40 MLOAD DUP1 PUSH1 0xC0 ADD PUSH1 0x40 MSTORE DUP1 PUSH1 0x0 DUP2 MSTORE PUSH1 0x20 ADD PUSH1 0x60 DUP2 MSTORE PUSH1 0x20 ADD PUSH1 0x0 DUP2 MSTORE PUSH1 0x20 ADD PUSH1 0x60 DUP2 MSTORE PUSH1 0x20 ADD PUSH1 0x0 PUSH20 0xFFFFFFFFFFFFFFFFFFFFFFFFFFFFFFFFFFFFFFFF AND DUP2 MSTORE PUSH1 0x20 ADD PUSH1 0x0 PUSH20 0xFFFFFFFFFFFFFFFFFFFFFFFFFFFFFFFFFFFFFFFF AND DUP2 MSTORE POP SWAP1 JUMP JUMPDEST PUSH1 0x40 MLOAD DUP1 PUSH1 0x80 ADD PUSH1 0x40 MSTORE DUP1 PUSH1 0x0 PUSH20 0xFFFFFFFFFFFFFFFFFFFFFFFFFFFFFFFFFFFFFFFF AND DUP2 MSTORE PUSH1 0x20 ADD PUSH1 0x0 PUSH20 0xFFFFFFFFFFFFFFFFFFFFFFFFFFFFFFFFFFFFFFFF AND DUP2 MSTORE PUSH1 0x20 ADD PUSH1 0x0 DUP2 MSTORE PUSH1 0x20 ADD PUSH1 0x60 DUP2 MSTORE POP SWAP1 JUMP JUMPDEST PUSH1 0x0 PUSH20 0xFFFFFFFFFFFFFFFFFFFFFFFFFFFFFFFFFFFFFFFF DUP3 AND SWAP1 POP SWAP2 SWAP1 POP JUMP JUMPDEST PUSH1 0x0 DUP2 SWAP1 POP SWAP2 SWAP1 POP JUMP JUMPDEST PUSH1 0x0 PUSH2 0x27EC PUSH2 0x27E7 PUSH2 0x27E2 DUP5 PUSH2 0x27A7 JUMP JUMPDEST PUSH2 0x27C7 JUMP JUMPDEST PUSH2 0x27A7 JUMP JUMPDEST SWAP1 POP SWAP2 SWAP1 POP JUMP JUMPDEST PUSH1 0x0 PUSH2 0x27FE DUP3 PUSH2 0x27D1 JUMP JUMPDEST SWAP1 POP SWAP2 SWAP1 POP JUMP JUMPDEST PUSH1 0x0 PUSH2 0x2810 DUP3 PUSH2 0x27F3 JUMP JUMPDEST SWAP1 POP SWAP2 SWAP1 POP JUMP JUMPDEST PUSH2 0x2820 DUP2 PUSH2 0x2805 JUMP JUMPDEST DUP3 MSTORE POP POP JUMP JUMPDEST PUSH1 0x0 PUSH1 0x20 DUP3 ADD SWAP1 POP PUSH2 0x283B PUSH1 0x0 DUP4 ADD DUP5 PUSH2 0x2817 JUMP JUMPDEST SWAP3 SWAP2 POP POP JUMP JUMPDEST PUSH1 0x0 DUP2 SWAP1 POP SWAP2 SWAP1 POP JUMP JUMPDEST PUSH2 0x2854 DUP2 PUSH2 0x2841 JUMP JUMPDEST DUP3 MSTORE POP POP JUMP JUMPDEST PUSH1 0x0 PUSH1 0x20 DUP3 ADD SWAP1 POP PUSH2 0x286F PUSH1 0x0 DUP4 ADD DUP5 PUSH2 0x284B JUMP JUMPDEST SWAP3 SWAP2 POP POP JUMP JUMPDEST PUSH1 0x0 PUSH1 0x40 MLOAD SWAP1 POP SWAP1 JUMP JUMPDEST PUSH1 0x0 DUP1 REVERT JUMPDEST PUSH1 0x0 DUP1 REVERT JUMPDEST PUSH1 0x0 PUSH2 0x2894 DUP3 PUSH2 0x27A7 JUMP JUMPDEST SWAP1 POP SWAP2 SWAP1 POP JUMP JUMPDEST PUSH2 0x28A4 DUP2 PUSH2 0x2889 JUMP JUMPDEST DUP2 EQ PUSH2 0x28AF JUMPI PUSH1 0x0 DUP1 REVERT JUMPDEST POP JUMP JUMPDEST PUSH1 0x0 DUP2 CALLDATALOAD SWAP1 POP PUSH2 0x28C1 DUP2 PUSH2 0x289B JUMP JUMPDEST SWAP3 SWAP2 POP POP JUMP JUMPDEST PUSH1 0x0 PUSH1 0x20 DUP3 DUP5 SUB SLT ISZERO PUSH2 0x28DD JUMPI PUSH2 0x28DC PUSH2 0x287F JUMP JUMPDEST JUMPDEST PUSH1 0x0 PUSH2 0x28EB DUP5 DUP3 DUP6 ADD PUSH2 0x28B2 JUMP JUMPDEST SWAP2 POP POP SWAP3 SWAP2 POP POP JUMP JUMPDEST PUSH1 0x0 DUP2 MLOAD SWAP1 POP SWAP2 SWAP1 POP JUMP JUMPDEST PUSH1 0x0 DUP3 DUP3 MSTORE PUSH1 0x20 DUP3 ADD SWAP1 POP SWAP3 SWAP2 POP POP JUMP JUMPDEST PUSH1 0x0 DUP2 SWAP1 POP PUSH1 0x20 DUP3 ADD SWAP1 POP SWAP2 SWAP1 POP JUMP JUMPDEST PUSH2 0x2929 DUP2 PUSH2 0x2841 JUMP JUMPDEST DUP3 MSTORE POP POP JUMP JUMPDEST PUSH1 0x0 PUSH2 0x293B DUP4 DUP4 PUSH2 0x2920 JUMP JUMPDEST PUSH1 0x20 DUP4 ADD SWAP1 POP SWAP3 SWAP2 POP POP JUMP JUMPDEST PUSH1 0x0 PUSH1 0x20 DUP3 ADD SWAP1 POP SWAP2 SWAP1 POP JUMP JUMPDEST PUSH1 0x0 PUSH2 0x295F DUP3 PUSH2 0x28F4 JUMP JUMPDEST PUSH2 0x2969 DUP2 DUP6 PUSH2 0x28FF JUMP JUMPDEST SWAP4 POP PUSH2 0x2974 DUP4 PUSH2 0x2910 JUMP JUMPDEST DUP1 PUSH1 0x0 JUMPDEST DUP4 DUP2 LT ISZERO PUSH2 0x29A5 JUMPI DUP2 MLOAD PUSH2 0x298C DUP9 DUP3 PUSH2 0x292F JUMP JUMPDEST SWAP8 POP PUSH2 0x2997 DUP4 PUSH2 0x2947 JUMP JUMPDEST SWAP3 POP POP PUSH1 0x1 DUP2 ADD SWAP1 POP PUSH2 0x2978 JUMP JUMPDEST POP DUP6 SWAP4 POP POP POP POP SWAP3 SWAP2 POP POP JUMP JUMPDEST PUSH1 0x0 PUSH1 0x20 DUP3 ADD SWAP1 POP DUP2 DUP2 SUB PUSH1 0x0 DUP4 ADD MSTORE PUSH2 0x29CC DUP2 DUP5 PUSH2 0x2954 JUMP JUMPDEST SWAP1 POP SWAP3 SWAP2 POP POP JUMP JUMPDEST PUSH2 0x29DD DUP2 PUSH2 0x2841 JUMP JUMPDEST DUP2 EQ PUSH2 0x29E8 JUMPI PUSH1 0x0 DUP1 REVERT JUMPDEST POP JUMP JUMPDEST PUSH1 0x0 DUP2 CALLDATALOAD SWAP1 POP PUSH2 0x29FA DUP2 PUSH2 0x29D4 JUMP JUMPDEST SWAP3 SWAP2 POP POP JUMP JUMPDEST PUSH1 0x0 PUSH1 0x20 DUP3 DUP5 SUB SLT ISZERO PUSH2 0x2A16 JUMPI PUSH2 0x2A15 PUSH2 0x287F JUMP JUMPDEST JUMPDEST PUSH1 0x0 PUSH2 0x2A24 DUP5 DUP3 DUP6 ADD PUSH2 0x29EB JUMP JUMPDEST SWAP2 POP POP SWAP3 SWAP2 POP POP JUMP JUMPDEST PUSH1 0x0 DUP2 ISZERO ISZERO SWAP1 POP SWAP2 SWAP1 POP JUMP JUMPDEST PUSH2 0x2A42 DUP2 PUSH2 0x2A2D JUMP JUMPDEST DUP3 MSTORE POP POP JUMP JUMPDEST PUSH1 0x0 PUSH1 0x20 DUP3 ADD SWAP1 POP PUSH2 0x2A5D PUSH1 0x0 DUP4 ADD DUP5 PUSH2 0x2A39 JUMP JUMPDEST SWAP3 SWAP2 POP POP JUMP JUMPDEST PUSH2 0x2A6C DUP2 PUSH2 0x2889 JUMP JUMPDEST DUP3 MSTORE POP POP JUMP JUMPDEST PUSH1 0x0 PUSH1 0x20 DUP3 ADD SWAP1 POP PUSH2 0x2A87 PUSH1 0x0 DUP4 ADD DUP5 PUSH2 0x2A63 JUMP JUMPDEST SWAP3 SWAP2 POP POP JUMP JUMPDEST PUSH1 0x0 DUP1 PUSH1 0x40 DUP4 DUP6 SUB SLT ISZERO PUSH2 0x2AA4 JUMPI PUSH2 0x2AA3 PUSH2 0x287F JUMP JUMPDEST JUMPDEST PUSH1 0x0 PUSH2 0x2AB2 DUP6 DUP3 DUP7 ADD PUSH2 0x28B2 JUMP JUMPDEST SWAP3 POP POP PUSH1 0x20 PUSH2 0x2AC3 DUP6 DUP3 DUP7 ADD PUSH2 0x29EB JUMP JUMPDEST SWAP2 POP POP SWAP3 POP SWAP3 SWAP1 POP JUMP JUMPDEST PUSH1 0x0 DUP2 MLOAD SWAP1 POP SWAP2 SWAP1 POP JUMP JUMPDEST PUSH1 0x0 DUP3 DUP3 MSTORE PUSH1 0x20 DUP3 ADD SWAP1 POP SWAP3 SWAP2 POP POP JUMP JUMPDEST PUSH1 0x0 JUMPDEST DUP4 DUP2 LT ISZERO PUSH2 0x2B07 JUMPI DUP1 DUP3 ADD MLOAD DUP2 DUP5 ADD MSTORE PUSH1 0x20 DUP2 ADD SWAP1 POP PUSH2 0x2AEC JUMP JUMPDEST PUSH1 0x0 DUP5 DUP5 ADD MSTORE POP POP POP POP JUMP JUMPDEST PUSH1 0x0 PUSH1 0x1F NOT PUSH1 0x1F DUP4 ADD AND SWAP1 POP SWAP2 SWAP1 POP JUMP JUMPDEST PUSH1 0x0 PUSH2 0x2B2F DUP3 PUSH2 0x2ACD JUMP JUMPDEST PUSH2 0x2B39 DUP2 DUP6 PUSH2 0x2AD8 JUMP JUMPDEST SWAP4 POP PUSH2 0x2B49 DUP2 DUP6 PUSH1 0x20 DUP7 ADD PUSH2 0x2AE9 JUMP JUMPDEST PUSH2 0x2B52 DUP2 PUSH2 0x2B13 JUMP JUMPDEST DUP5 ADD SWAP2 POP POP SWAP3 SWAP2 POP POP JUMP JUMPDEST PUSH2 0x2B66 DUP2 PUSH2 0x2889 JUMP JUMPDEST DUP3 MSTORE POP POP JUMP JUMPDEST PUSH1 0x0 PUSH1 0xC0 DUP4 ADD PUSH1 0x0 DUP4 ADD MLOAD PUSH2 0x2B84 PUSH1 0x0 DUP7 ADD DUP3 PUSH2 0x2920 JUMP JUMPDEST POP PUSH1 0x20 DUP4 ADD MLOAD DUP5 DUP3 SUB PUSH1 0x20 DUP7 ADD MSTORE PUSH2 0x2B9C DUP3 DUP3 PUSH2 0x2B24 JUMP JUMPDEST SWAP2 POP POP PUSH1 0x40 DUP4 ADD MLOAD PUSH2 0x2BB1 PUSH1 0x40 DUP7 ADD DUP3 PUSH2 0x2920 JUMP JUMPDEST POP PUSH1 0x60 DUP4 ADD MLOAD DUP5 DUP3 SUB PUSH1 0x60 DUP7 ADD MSTORE PUSH2 0x2BC9 DUP3 DUP3 PUSH2 0x2B24 JUMP JUMPDEST SWAP2 POP POP PUSH1 0x80 DUP4 ADD MLOAD PUSH2 0x2BDE PUSH1 0x80 DUP7 ADD DUP3 PUSH2 0x2B5D JUMP JUMPDEST POP PUSH1 0xA0 DUP4 ADD MLOAD PUSH2 0x2BF1 PUSH1 0xA0 DUP7 ADD DUP3 PUSH2 0x2B5D JUMP JUMPDEST POP DUP1 SWAP2 POP POP SWAP3 SWAP2 POP POP JUMP JUMPDEST PUSH1 0x0 PUSH1 0x20 DUP3 ADD SWAP1 POP DUP2 DUP2 SUB PUSH1 0x0 DUP4 ADD MSTORE PUSH2 0x2C16 DUP2 DUP5 PUSH2 0x2B6C JUMP JUMPDEST SWAP1 POP SWAP3 SWAP2 POP POP JUMP JUMPDEST PUSH32 0x4E487B7100000000000000000000000000000000000000000000000000000000 PUSH1 0x0 MSTORE PUSH1 0x21 PUSH1 0x4 MSTORE PUSH1 0x24 PUSH1 0x0 REVERT JUMPDEST PUSH1 0x3 DUP2 LT PUSH2 0x2C5E JUMPI PUSH2 0x2C5D PUSH2 0x2C1E JUMP JUMPDEST JUMPDEST POP JUMP JUMPDEST PUSH1 0x0 DUP2 SWAP1 POP PUSH2 0x2C6F DUP3 PUSH2 0x2C4D JUMP JUMPDEST SWAP2 SWAP1 POP JUMP JUMPDEST PUSH1 0x0 PUSH2 0x2C7F DUP3 PUSH2 0x2C61 JUMP JUMPDEST SWAP1 POP SWAP2 SWAP1 POP JUMP JUMPDEST PUSH2 0x2C8F DUP2 PUSH2 0x2C74 JUMP JUMPDEST DUP3 MSTORE POP POP JUMP JUMPDEST PUSH1 0x0 PUSH1 0x40 DUP3 ADD SWAP1 POP PUSH2 0x2CAA PUSH1 0x0 DUP4 ADD DUP6 PUSH2 0x284B JUMP JUMPDEST PUSH2 0x2CB7 PUSH1 0x20 DUP4 ADD DUP5 PUSH2 0x2C86 JUMP JUMPDEST SWAP4 SWAP3 POP POP POP JUMP JUMPDEST PUSH1 0x0 DUP1 REVERT JUMPDEST PUSH32 0x4E487B7100000000000000000000000000000000000000000000000000000000 PUSH1 0x0 MSTORE PUSH1 0x41 PUSH1 0x4 MSTORE PUSH1 0x24 PUSH1 0x0 REVERT JUMPDEST PUSH2 0x2CFB DUP3 PUSH2 0x2B13 JUMP JUMPDEST DUP2 ADD DUP2 DUP2 LT PUSH8 0xFFFFFFFFFFFFFFFF DUP3 GT OR ISZERO PUSH2 0x2D1A JUMPI PUSH2 0x2D19 PUSH2 0x2CC3 JUMP JUMPDEST JUMPDEST DUP1 PUSH1 0x40 MSTORE POP POP POP JUMP JUMPDEST PUSH1 0x0 PUSH2 0x2D2D PUSH2 0x2875 JUMP JUMPDEST SWAP1 POP PUSH2 0x2D39 DUP3 DUP3 PUSH2 0x2CF2 JUMP JUMPDEST SWAP2 SWAP1 POP JUMP JUMPDEST PUSH1 0x0 PUSH8 0xFFFFFFFFFFFFFFFF DUP3 GT ISZERO PUSH2 0x2D59 JUMPI PUSH2 0x2D58 PUSH2 0x2CC3 JUMP JUMPDEST JUMPDEST PUSH1 0x20 DUP3 MUL SWAP1 POP PUSH1 0x20 DUP2 ADD SWAP1 POP SWAP2 SWAP1 POP JUMP JUMPDEST PUSH1 0x0 DUP1 REVERT JUMPDEST PUSH1 0x0 DUP1 REVERT JUMPDEST PUSH1 0x0 DUP1 REVERT JUMPDEST PUSH1 0x0 PUSH8 0xFFFFFFFFFFFFFFFF DUP3 GT ISZERO PUSH2 0x2D94 JUMPI PUSH2 0x2D93 PUSH2 0x2CC3 JUMP JUMPDEST JUMPDEST PUSH1 0x20 DUP3 MUL SWAP1 POP PUSH1 0x20 DUP2 ADD SWAP1 POP SWAP2 SWAP1 POP JUMP JUMPDEST PUSH1 0x0 PUSH2 0x2DB8 PUSH2 0x2DB3 DUP5 PUSH2 0x2D79 JUMP JUMPDEST PUSH2 0x2D23 JUMP JUMPDEST SWAP1 POP DUP1 DUP4 DUP3 MSTORE PUSH1 0x20 DUP3 ADD SWAP1 POP PUSH1 0x20 DUP5 MUL DUP4 ADD DUP6 DUP2 GT ISZERO PUSH2 0x2DDB JUMPI PUSH2 0x2DDA PUSH2 0x2D6A JUMP JUMPDEST JUMPDEST DUP4 JUMPDEST DUP2 DUP2 LT ISZERO PUSH2 0x2E04 JUMPI DUP1 PUSH2 0x2DF0 DUP9 DUP3 PUSH2 0x29EB JUMP JUMPDEST DUP5 MSTORE PUSH1 0x20 DUP5 ADD SWAP4 POP POP PUSH1 0x20 DUP2 ADD SWAP1 POP PUSH2 0x2DDD JUMP JUMPDEST POP POP POP SWAP4 SWAP3 POP POP POP JUMP JUMPDEST PUSH1 0x0 DUP3 PUSH1 0x1F DUP4 ADD SLT PUSH2 0x2E23 JUMPI PUSH2 0x2E22 PUSH2 0x2CBE JUMP JUMPDEST JUMPDEST DUP2 CALLDATALOAD PUSH2 0x2E33 DUP5 DUP3 PUSH1 0x20 DUP7 ADD PUSH2 0x2DA5 JUMP JUMPDEST SWAP2 POP POP SWAP3 SWAP2 POP POP JUMP JUMPDEST PUSH1 0x0 PUSH1 0x40 DUP3 DUP5 SUB SLT ISZERO PUSH2 0x2E52 JUMPI PUSH2 0x2E51 PUSH2 0x2D6F JUMP JUMPDEST JUMPDEST PUSH2 0x2E5C PUSH1 0x40 PUSH2 0x2D23 JUMP JUMPDEST SWAP1 POP PUSH1 0x0 PUSH2 0x2E6C DUP5 DUP3 DUP6 ADD PUSH2 0x28B2 JUMP JUMPDEST PUSH1 0x0 DUP4 ADD MSTORE POP PUSH1 0x20 DUP3 ADD CALLDATALOAD PUSH8 0xFFFFFFFFFFFFFFFF DUP2 GT ISZERO PUSH2 0x2E90 JUMPI PUSH2 0x2E8F PUSH2 0x2D74 JUMP JUMPDEST JUMPDEST PUSH2 0x2E9C DUP5 DUP3 DUP6 ADD PUSH2 0x2E0E JUMP JUMPDEST PUSH1 0x20 DUP4 ADD MSTORE POP SWAP3 SWAP2 POP POP JUMP JUMPDEST PUSH1 0x0 PUSH2 0x2EBB PUSH2 0x2EB6 DUP5 PUSH2 0x2D3E JUMP JUMPDEST PUSH2 0x2D23 JUMP JUMPDEST SWAP1 POP DUP1 DUP4 DUP3 MSTORE PUSH1 0x20 DUP3 ADD SWAP1 POP PUSH1 0x20 DUP5 MUL DUP4 ADD DUP6 DUP2 GT ISZERO PUSH2 0x2EDE JUMPI PUSH2 0x2EDD PUSH2 0x2D6A JUMP JUMPDEST JUMPDEST DUP4 JUMPDEST DUP2 DUP2 LT ISZERO PUSH2 0x2F25 JUMPI DUP1 CALLDATALOAD PUSH8 0xFFFFFFFFFFFFFFFF DUP2 GT ISZERO PUSH2 0x2F03 JUMPI PUSH2 0x2F02 PUSH2 0x2CBE JUMP JUMPDEST JUMPDEST DUP1 DUP7 ADD PUSH2 0x2F10 DUP10 DUP3 PUSH2 0x2E3C JUMP JUMPDEST DUP6 MSTORE PUSH1 0x20 DUP6 ADD SWAP5 POP POP POP PUSH1 0x20 DUP2 ADD SWAP1 POP PUSH2 0x2EE0 JUMP JUMPDEST POP POP POP SWAP4 SWAP3 POP POP POP JUMP JUMPDEST PUSH1 0x0 DUP3 PUSH1 0x1F DUP4 ADD SLT PUSH2 0x2F44 JUMPI PUSH2 0x2F43 PUSH2 0x2CBE JUMP JUMPDEST JUMPDEST DUP2 CALLDATALOAD PUSH2 0x2F54 DUP5 DUP3 PUSH1 0x20 DUP7 ADD PUSH2 0x2EA8 JUMP JUMPDEST SWAP2 POP POP SWAP3 SWAP2 POP POP JUMP JUMPDEST PUSH1 0x0 DUP1 PUSH1 0x40 DUP4 DUP6 SUB SLT ISZERO PUSH2 0x2F74 JUMPI PUSH2 0x2F73 PUSH2 0x287F JUMP JUMPDEST JUMPDEST PUSH1 0x0 DUP4 ADD CALLDATALOAD PUSH8 0xFFFFFFFFFFFFFFFF DUP2 GT ISZERO PUSH2 0x2F92 JUMPI PUSH2 0x2F91 PUSH2 0x2884 JUMP JUMPDEST JUMPDEST PUSH2 0x2F9E DUP6 DUP3 DUP7 ADD PUSH2 0x2F2F JUMP JUMPDEST SWAP3 POP POP PUSH1 0x20 PUSH2 0x2FAF DUP6 DUP3 DUP7 ADD PUSH2 0x29EB JUMP JUMPDEST SWAP2 POP POP SWAP3 POP SWAP3 SWAP1 POP JUMP JUMPDEST PUSH1 0x0 PUSH8 0xFFFFFFFFFFFFFFFF DUP3 GT ISZERO PUSH2 0x2FD4 JUMPI PUSH2 0x2FD3 PUSH2 0x2CC3 JUMP JUMPDEST JUMPDEST PUSH1 0x20 DUP3 MUL SWAP1 POP PUSH1 0x20 DUP2 ADD SWAP1 POP SWAP2 SWAP1 POP JUMP JUMPDEST PUSH1 0x0 PUSH1 0x60 DUP3 DUP5 SUB SLT ISZERO PUSH2 0x2FFB JUMPI PUSH2 0x2FFA PUSH2 0x2D6F JUMP JUMPDEST JUMPDEST PUSH2 0x3005 PUSH1 0x60 PUSH2 0x2D23 JUMP JUMPDEST SWAP1 POP PUSH1 0x0 PUSH2 0x3015 DUP5 DUP3 DUP6 ADD PUSH2 0x28B2 JUMP JUMPDEST PUSH1 0x0 DUP4 ADD MSTORE POP PUSH1 0x20 PUSH2 0x3029 DUP5 DUP3 DUP6 ADD PUSH2 0x29EB JUMP JUMPDEST PUSH1 0x20 DUP4 ADD MSTORE POP PUSH1 0x40 PUSH2 0x303D DUP5 DUP3 DUP6 ADD PUSH2 0x28B2 JUMP JUMPDEST PUSH1 0x40 DUP4 ADD MSTORE POP SWAP3 SWAP2 POP POP JUMP JUMPDEST PUSH1 0x0 PUSH2 0x305C PUSH2 0x3057 DUP5 PUSH2 0x2FB9 JUMP JUMPDEST PUSH2 0x2D23 JUMP JUMPDEST SWAP1 POP DUP1 DUP4 DUP3 MSTORE PUSH1 0x20 DUP3 ADD SWAP1 POP PUSH1 0x60 DUP5 MUL DUP4 ADD DUP6 DUP2 GT ISZERO PUSH2 0x307F JUMPI PUSH2 0x307E PUSH2 0x2D6A JUMP JUMPDEST JUMPDEST DUP4 JUMPDEST DUP2 DUP2 LT ISZERO PUSH2 0x30A8 JUMPI DUP1 PUSH2 0x3094 DUP9 DUP3 PUSH2 0x2FE5 JUMP JUMPDEST DUP5 MSTORE PUSH1 0x20 DUP5 ADD SWAP4 POP POP PUSH1 0x60 DUP2 ADD SWAP1 POP PUSH2 0x3081 JUMP JUMPDEST POP POP POP SWAP4 SWAP3 POP POP POP JUMP JUMPDEST PUSH1 0x0 DUP3 PUSH1 0x1F DUP4 ADD SLT PUSH2 0x30C7 JUMPI PUSH2 0x30C6 PUSH2 0x2CBE JUMP JUMPDEST JUMPDEST DUP2 CALLDATALOAD PUSH2 0x30D7 DUP5 DUP3 PUSH1 0x20 DUP7 ADD PUSH2 0x3049 JUMP JUMPDEST SWAP2 POP POP SWAP3 SWAP2 POP POP JUMP JUMPDEST PUSH1 0x0 DUP1 PUSH1 0x40 DUP4 DUP6 SUB SLT ISZERO PUSH2 0x30F7 JUMPI PUSH2 0x30F6 PUSH2 0x287F JUMP JUMPDEST JUMPDEST PUSH1 0x0 DUP4 ADD CALLDATALOAD PUSH8 0xFFFFFFFFFFFFFFFF DUP2 GT ISZERO PUSH2 0x3115 JUMPI PUSH2 0x3114 PUSH2 0x2884 JUMP JUMPDEST JUMPDEST PUSH2 0x3121 DUP6 DUP3 DUP7 ADD PUSH2 0x30B2 JUMP JUMPDEST SWAP3 POP POP PUSH1 0x20 PUSH2 0x3132 DUP6 DUP3 DUP7 ADD PUSH2 0x29EB JUMP JUMPDEST SWAP2 POP POP SWAP3 POP SWAP3 SWAP1 POP JUMP JUMPDEST PUSH1 0x0 DUP2 MLOAD SWAP1 POP PUSH2 0x314B DUP2 PUSH2 0x29D4 JUMP JUMPDEST SWAP3 SWAP2 POP POP JUMP JUMPDEST PUSH1 0x0 PUSH1 0x20 DUP3 DUP5 SUB SLT ISZERO PUSH2 0x3167 JUMPI PUSH2 0x3166 PUSH2 0x287F JUMP JUMPDEST JUMPDEST PUSH1 0x0 PUSH2 0x3175 DUP5 DUP3 DUP6 ADD PUSH2 0x313C JUMP JUMPDEST SWAP2 POP POP SWAP3 SWAP2 POP POP JUMP JUMPDEST PUSH1 0x0 DUP3 DUP3 MSTORE PUSH1 0x20 DUP3 ADD SWAP1 POP SWAP3 SWAP2 POP POP JUMP JUMPDEST PUSH1 0x0 PUSH2 0x319A DUP3 PUSH2 0x2ACD JUMP JUMPDEST PUSH2 0x31A4 DUP2 DUP6 PUSH2 0x317E JUMP JUMPDEST SWAP4 POP PUSH2 0x31B4 DUP2 DUP6 PUSH1 0x20 DUP7 ADD PUSH2 0x2AE9 JUMP JUMPDEST PUSH2 0x31BD DUP2 PUSH2 0x2B13 JUMP JUMPDEST DUP5 ADD SWAP2 POP POP SWAP3 SWAP2 POP POP JUMP JUMPDEST PUSH1 0x0 PUSH1 0x20 DUP3 ADD SWAP1 POP DUP2 DUP2 SUB PUSH1 0x0 DUP4 ADD MSTORE PUSH2 0x31E2 DUP2 DUP5 PUSH2 0x318F JUMP JUMPDEST SWAP1 POP SWAP3 SWAP2 POP POP JUMP JUMPDEST PUSH1 0x0 PUSH1 0x40 DUP3 ADD SWAP1 POP PUSH2 0x31FF PUSH1 0x0 DUP4 ADD DUP6 PUSH2 0x2A63 JUMP JUMPDEST PUSH2 0x320C PUSH1 0x20 DUP4 ADD DUP5 PUSH2 0x284B JUMP JUMPDEST SWAP4 SWAP3 POP POP POP JUMP JUMPDEST PUSH2 0x321C DUP2 PUSH2 0x2A2D JUMP JUMPDEST DUP2 EQ PUSH2 0x3227 JUMPI PUSH1 0x0 DUP1 REVERT JUMPDEST POP JUMP JUMPDEST PUSH1 0x0 DUP2 MLOAD SWAP1 POP PUSH2 0x3239 DUP2 PUSH2 0x3213 JUMP JUMPDEST SWAP3 SWAP2 POP POP JUMP JUMPDEST PUSH1 0x0 PUSH1 0x20 DUP3 DUP5 SUB SLT ISZERO PUSH2 0x3255 JUMPI PUSH2 0x3254 PUSH2 0x287F JUMP JUMPDEST JUMPDEST PUSH1 0x0 PUSH2 0x3263 DUP5 DUP3 DUP6 ADD PUSH2 0x322A JUMP JUMPDEST SWAP2 POP POP SWAP3 SWAP2 POP POP JUMP JUMPDEST PUSH32 0x4E487B7100000000000000000000000000000000000000000000000000000000 PUSH1 0x0 MSTORE PUSH1 0x32 PUSH1 0x4 MSTORE PUSH1 0x24 PUSH1 0x0 REVERT JUMPDEST PUSH32 0x4E487B7100000000000000000000000000000000000000000000000000000000 PUSH1 0x0 MSTORE PUSH1 0x11 PUSH1 0x4 MSTORE PUSH1 0x24 PUSH1 0x0 REVERT JUMPDEST PUSH1 0x0 PUSH2 0x32D5 DUP3 PUSH2 0x2841 JUMP JUMPDEST SWAP2 POP PUSH32 0xFFFFFFFFFFFFFFFFFFFFFFFFFFFFFFFFFFFFFFFFFFFFFFFFFFFFFFFFFFFFFFFF DUP3 SUB PUSH2 0x3307 JUMPI PUSH2 0x3306 PUSH2 0x329B JUMP JUMPDEST JUMPDEST PUSH1 0x1 DUP3 ADD SWAP1 POP SWAP2 SWAP1 POP JUMP JUMPDEST PUSH1 0x0 DUP2 MLOAD SWAP1 POP SWAP2 SWAP1 POP JUMP JUMPDEST PUSH1 0x0 DUP3 DUP3 MSTORE PUSH1 0x20 DUP3 ADD SWAP1 POP SWAP3 SWAP2 POP POP JUMP JUMPDEST PUSH1 0x0 DUP2 SWAP1 POP PUSH1 0x20 DUP3 ADD SWAP1 POP SWAP2 SWAP1 POP JUMP JUMPDEST PUSH1 0x0 PUSH1 0xC0 DUP4 ADD PUSH1 0x0 DUP4 ADD MLOAD PUSH2 0x3356 PUSH1 0x0 DUP7 ADD DUP3 PUSH2 0x2920 JUMP JUMPDEST POP PUSH1 0x20 DUP4 ADD MLOAD DUP5 DUP3 SUB PUSH1 0x20 DUP7 ADD MSTORE PUSH2 0x336E DUP3 DUP3 PUSH2 0x2B24 JUMP JUMPDEST SWAP2 POP POP PUSH1 0x40 DUP4 ADD MLOAD PUSH2 0x3383 PUSH1 0x40 DUP7 ADD DUP3 PUSH2 0x2920 JUMP JUMPDEST POP PUSH1 0x60 DUP4 ADD MLOAD DUP5 DUP3 SUB PUSH1 0x60 DUP7 ADD MSTORE PUSH2 0x339B DUP3 DUP3 PUSH2 0x2B24 JUMP JUMPDEST SWAP2 POP POP PUSH1 0x80 DUP4 ADD MLOAD PUSH2 0x33B0 PUSH1 0x80 DUP7 ADD DUP3 PUSH2 0x2B5D JUMP JUMPDEST POP PUSH1 0xA0 DUP4 ADD MLOAD PUSH2 0x33C3 PUSH1 0xA0 DUP7 ADD DUP3 PUSH2 0x2B5D JUMP JUMPDEST POP DUP1 SWAP2 POP POP SWAP3 SWAP2 POP POP JUMP JUMPDEST PUSH1 0x0 PUSH2 0x33DA DUP4 DUP4 PUSH2 0x333E JUMP JUMPDEST SWAP1 POP SWAP3 SWAP2 POP POP JUMP JUMPDEST PUSH1 0x0 PUSH1 0x20 DUP3 ADD SWAP1 POP SWAP2 SWAP1 POP JUMP JUMPDEST PUSH1 0x0 PUSH2 0x33FA DUP3 PUSH2 0x3312 JUMP JUMPDEST PUSH2 0x3404 DUP2 DUP6 PUSH2 0x331D JUMP JUMPDEST SWAP4 POP DUP4 PUSH1 0x20 DUP3 MUL DUP6 ADD PUSH2 0x3416 DUP6 PUSH2 0x332E JUMP JUMPDEST DUP1 PUSH1 0x0 JUMPDEST DUP6 DUP2 LT ISZERO PUSH2 0x3452 JUMPI DUP5 DUP5 SUB DUP10 MSTORE DUP2 MLOAD PUSH2 0x3433 DUP6 DUP3 PUSH2 0x33CE JUMP JUMPDEST SWAP5 POP PUSH2 0x343E DUP4 PUSH2 0x33E2 JUMP JUMPDEST SWAP3 POP PUSH1 0x20 DUP11 ADD SWAP10 POP POP PUSH1 0x1 DUP2 ADD SWAP1 POP PUSH2 0x341A JUMP JUMPDEST POP DUP3 SWAP8 POP DUP8 SWAP6 POP POP POP POP POP POP SWAP3 SWAP2 POP POP JUMP JUMPDEST PUSH1 0x0 PUSH1 0x20 DUP3 ADD SWAP1 POP DUP2 DUP2 SUB PUSH1 0x0 DUP4 ADD MSTORE PUSH2 0x347E DUP2 DUP5 PUSH2 0x33EF JUMP JUMPDEST SWAP1 POP SWAP3 SWAP2 POP POP JUMP JUMPDEST PUSH1 0x0 PUSH1 0x60 DUP3 ADD SWAP1 POP PUSH2 0x349B PUSH1 0x0 DUP4 ADD DUP7 PUSH2 0x2A63 JUMP JUMPDEST PUSH2 0x34A8 PUSH1 0x20 DUP4 ADD DUP6 PUSH2 0x2A63 JUMP JUMPDEST PUSH2 0x34B5 PUSH1 0x40 DUP4 ADD DUP5 PUSH2 0x284B JUMP JUMPDEST SWAP5 SWAP4 POP POP POP POP JUMP JUMPDEST PUSH1 0x0 PUSH2 0x34C8 DUP3 PUSH2 0x2841 JUMP JUMPDEST SWAP2 POP PUSH2 0x34D3 DUP4 PUSH2 0x2841 JUMP JUMPDEST SWAP3 POP DUP3 DUP3 MUL PUSH2 0x34E1 DUP2 PUSH2 0x2841 JUMP JUMPDEST SWAP2 POP DUP3 DUP3 DIV DUP5 EQ DUP4 ISZERO OR PUSH2 0x34F8 JUMPI PUSH2 0x34F7 PUSH2 0x329B JUMP JUMPDEST JUMPDEST POP SWAP3 SWAP2 POP POP JUMP JUMPDEST PUSH1 0x0 PUSH2 0x350A DUP3 PUSH2 0x2841 JUMP JUMPDEST SWAP2 POP PUSH2 0x3515 DUP4 PUSH2 0x2841 JUMP JUMPDEST SWAP3 POP DUP3 DUP3 SUB SWAP1 POP DUP2 DUP2 GT ISZERO PUSH2 0x352D JUMPI PUSH2 0x352C PUSH2 0x329B JUMP JUMPDEST JUMPDEST SWAP3 SWAP2 POP POP JUMP JUMPDEST PUSH1 0x0 PUSH2 0x353E DUP3 PUSH2 0x2841 JUMP JUMPDEST SWAP2 POP PUSH2 0x3549 DUP4 PUSH2 0x2841 JUMP JUMPDEST SWAP3 POP DUP3 DUP3 ADD SWAP1 POP DUP1 DUP3 GT ISZERO PUSH2 0x3561 JUMPI PUSH2 0x3560 PUSH2 0x329B JUMP JUMPDEST JUMPDEST SWAP3 SWAP2 POP POP JUMP JUMPDEST PUSH1 0x0 DUP2 MLOAD SWAP1 POP SWAP2 SWAP1 POP JUMP JUMPDEST PUSH1 0x0 DUP3 DUP3 MSTORE PUSH1 0x20 DUP3 ADD SWAP1 POP SWAP3 SWAP2 POP POP JUMP JUMPDEST PUSH1 0x0 DUP2 SWAP1 POP PUSH1 0x20 DUP3 ADD SWAP1 POP SWAP2 SWAP1 POP JUMP JUMPDEST PUSH1 0x0 PUSH1 0x80 DUP4 ADD PUSH1 0x0 DUP4 ADD MLOAD PUSH2 0x35AB PUSH1 0x0 DUP7 ADD DUP3 PUSH2 0x2B5D JUMP JUMPDEST POP PUSH1 0x20 DUP4 ADD MLOAD PUSH2 0x35BE PUSH1 0x20 DUP7 ADD DUP3 PUSH2 0x2B5D JUMP JUMPDEST POP PUSH1 0x40 DUP4 ADD MLOAD PUSH2 0x35D1 PUSH1 0x40 DUP7 ADD DUP3 PUSH2 0x2920 JUMP JUMPDEST POP PUSH1 0x60 DUP4 ADD MLOAD DUP5 DUP3 SUB PUSH1 0x60 DUP7 ADD MSTORE PUSH2 0x35E9 DUP3 DUP3 PUSH2 0x2B24 JUMP JUMPDEST SWAP2 POP POP DUP1 SWAP2 POP POP SWAP3 SWAP2 POP POP JUMP JUMPDEST PUSH1 0x0 PUSH2 0x3602 DUP4 DUP4 PUSH2 0x3593 JUMP JUMPDEST SWAP1 POP SWAP3 SWAP2 POP POP JUMP JUMPDEST PUSH1 0x0 PUSH1 0x20 DUP3 ADD SWAP1 POP SWAP2 SWAP1 POP JUMP JUMPDEST PUSH1 0x0 PUSH2 0x3622 DUP3 PUSH2 0x3567 JUMP JUMPDEST PUSH2 0x362C DUP2 DUP6 PUSH2 0x3572 JUMP JUMPDEST SWAP4 POP DUP4 PUSH1 0x20 DUP3 MUL DUP6 ADD PUSH2 0x363E DUP6 PUSH2 0x3583 JUMP JUMPDEST DUP1 PUSH1 0x0 JUMPDEST DUP6 DUP2 LT ISZERO PUSH2 0x367A JUMPI DUP5 DUP5 SUB DUP10 MSTORE DUP2 MLOAD PUSH2 0x365B DUP6 DUP3 PUSH2 0x35F6 JUMP JUMPDEST SWAP5 POP PUSH2 0x3666 DUP4 PUSH2 0x360A JUMP JUMPDEST SWAP3 POP PUSH1 0x20 DUP11 ADD SWAP10 POP POP PUSH1 0x1 DUP2 ADD SWAP1 POP PUSH2 0x3642 JUMP JUMPDEST POP DUP3 SWAP8 POP DUP8 SWAP6 POP POP POP POP POP POP SWAP3 SWAP2 POP POP JUMP JUMPDEST PUSH1 0x0 PUSH1 0x20 DUP3 ADD SWAP1 POP DUP2 DUP2 SUB PUSH1 0x0 DUP4 ADD MSTORE PUSH2 0x36A6 DUP2 DUP5 PUSH2 0x3617 JUMP JUMPDEST SWAP1 POP SWAP3 SWAP2 POP POP JUMP JUMPDEST PUSH32 0x4E487B7100000000000000000000000000000000000000000000000000000000 PUSH1 0x0 MSTORE PUSH1 0x12 PUSH1 0x4 MSTORE PUSH1 0x24 PUSH1 0x0 REVERT JUMPDEST PUSH1 0x0 PUSH2 0x36E8 DUP3 PUSH2 0x2841 JUMP JUMPDEST SWAP2 POP PUSH2 0x36F3 DUP4 PUSH2 0x2841 JUMP JUMPDEST SWAP3 POP DUP3 PUSH2 0x3703 JUMPI PUSH2 0x3702 PUSH2 0x36AE JUMP JUMPDEST JUMPDEST DUP3 DUP3 DIV SWAP1 POP SWAP3 SWAP2 POP POP JUMP INVALID LOG2 PUSH5 0x6970667358 0x22 SLT KECCAK256 SWAP5 0xE6 REVERT ORIGIN CODECOPY DUP10 0xD9 0xA8 0xF7 CODECOPY 0xDC DUP14 0xCE JUMP PC 0xAF GASPRICE 0xE6 0x4A PUSH10 0x3461C5EF02902861631F PUSH32 0x1564736F6C634300081200330000000000000000000000000000000000000000 "},"methodIdentifiers":{"depositAvax()":"24056867","depositUSDC(uint256)":"f688bcfb","generateVoucher((address,uint256[])[],uint256)":"db5aef21","getLifeTimeDonation()":"283512b4","getUsdcBalance()":"c31ee12e","getUserVouchers(address)":"2d211e95","managementFees()":"5cdfd08c","mealVoucher(address,uint256)":"b0015a55","mealVoucherPrice()":"90229fee","owner()":"8da5cb5b","redeemVoucher((address,uint256,address)[],uint256)":"fb6fd424","retrieveVoucherDetail(address,uint256)":"abb1c05a","setVoucherPrice(uint256)":"d286c4a7","totalAmountRedeemed()":"ff2a46e0","totalVoucherIssued()":"23b826ca","totalVoucherUsed()":"4e81e2b1","unusedVoucherAmount()":"6e97aa86","updateManagementFees(uint256)":"5799884a","updateUsdcAddress(address)":"934dd293","usdcToken()":"11eac855","withdraw()":"3ccfd60b"}}}}}